:0400000007EF00F016
:100008005F824EED27F063EF29F0929A94949690D0
:100018009590949295929480809A829484908390FB
:100028008292839292988998939A8A9A9384F19863
:10003800F190F0889280809092828092928480944D
:10004800810ED56EE40EF26E010EC26E0C0EC16EFC
:10005800B50EC06E4FEC2FF0330E0001816F7F0E8E
:10006800826F8CEC2DF0000E0001616FC80E606F7E
:1000780086EC2EF0DBEC2AF077EC2FF0BEEC28F0C3
:10008800400E00016D6F420E6E6F0F0E6F6F000E07
:10009800706F97EC2BF0000E0001616F960E606F89
:1000A80086EC2EF0950E0001816F010E826FBD0E59
:1000B800836F7C0E846F08EC2DF06B0E0001816F4E
:1000C800010E826F830E836F7E0E846F08EC2DF015
:1000D8005F0E0001816F010E826F120E836F7F0E1B
:1000E800846F910E856F7E0E866F08EC2DF0950E4D
:1000F8000001686F010E696F800E6A6F010E6B6FE9
:100108006B0E6C6F010E6D6F560E6E6F010E6F6F7A
:10011800EBEC26F0010E0001616F2C0E606F86EC8F
:100128002EF08A8A090E0001616F920E606F86ECCC
:100138002EF0010E92EC2CF00001F66F020E92ECFC
:100148002CF00001F56F030E92EC2CF0596E040EA2
:1001580092EC2CF00001F86F050E92EC2CF00001E7
:10016800F76F060E92EC2CF0586E070E92EC2CF0FE
:100178000001FB6F080E92EC2CF0576E090E92EC02
:100188002CF0566E0A0E92EC2CF0556E0B0E92EC7B
:100198002CF0516E0C0E92EC2CF0506E0D0E92EC71
:1001A8002CF04F6E0E0E92EC2CF00001FC6F0F0E2F
:1001B80092EC2CF05A6E100E92EC2CF0526E110E3E
:1001C80092EC2CF04E6E120E92EC2CF0546E140E33
:1001D80092EC2CF0536E150E92EC2CF00001FF6F90
:1001E800160E92EC2CF00001FA6F170E92EC2CF020
:1001F8004C6E190E92EC2CF00001E36FE351496E3E
:100208004A6A1B0E92EC2CF04D6E1C0E92EC2CF0F0
:100218000001F96F000EF46F000EF46F0E0EF46516
:1002280001D010D0F451010DCD0EF324D96E010E7A
:10023800F420DA6EF451280F92EC2CF0DF6E0001F6
:10024800F42BECD7000EF46F0E0EF46501D010D02D
:10025800F451010DBE0EF324D96E010EF420DA6EAE
:10026800F4513C0F92EC2CF0DF6E0001F42BECD72C
:10027800000EF46F130EF46501D010D0F451010D87
:10028800AA0EF324D96E010EF420DA6EF451500F41
:1002980092EC2CF0DF6E0001F42BECD7690EC4EC65
:1002A8002DF067C033F068C034F01E0E92EC2CF0CD
:1002B8000001F46FBB0EF419D8B42CD0BB0E636FD9
:1002C8001E0E4CEC2DF00400560E0001816F010E3D
:1002D800826F9D0E836F7E0E846F08EC2DF0950E55
:1002E8000001686F010E696F800E6A6F010E6B6FF7
:1002F8006B0E6C6F010E6D6F560E6E6F010E6F6F89
:10030800EBEC26F00B0E0001616FB80E606F86EC07
:100318002EF0D9D7ABA202D0AB98AB88040072EC10
:1003280018F066EC1DF05804D8A410D0F50E0001A2
:10033800686F000E696FF60E6A6F000E6B6FF70E2E
:100348006C6F000E6D6F410E15EC24F0F80E000175
:10035800606F000E616FF60E626F000E636F460EDF
:1003680076EC23F00A0E0001FD19D8A4D3EC15F0A1
:10037800040E41EC2FF00009D8B452D35A0E0001F4
:10038800656F000E666F000E676F010E686F0F0EC7
:10039800696F2B0E14EC29F043D39B0E0001816F7B
:1003A800010E826F200E836F7E0E846F08EC2DF095
:1003B800020E0101956F0001FC51D8A40AD0950ED8
:1003C800606F010E616F010E626F020E636FF7ECD2
:1003D8002DF0460E0101976F5A50D8A40BD0950EF8
:1003E8000001606F010E616F020E626F030E636F92
:1003F800F7EC2DF04750D8A405D0000E0001E76FA8
:10040800200E04D0000E0001E76F050EE66FE6C06F
:1004180099F15950D8A404D0000EE96F200E03D0EA
:10042800000EE96F010EE86FE8C09AF1800E816F47
:10043800010E826F300E836F7C0E846FFEC085F0D4
:10044800866BF6C087F0886B08EC2DF0040E01016E
:10045800856F0001FB51D8A404D0000EEB6F460E47
:1004680003D0000EEB6F250EEA6F6B0E816F010E45
:10047800826FDB0E836F7B0E846F5DC085F0866BA9
:10048800F5C087F0886BEAC089F0EBC08AF008EC09
:100498002DF0030E0101706F560E0001816F010EE1
:1004A800826F1F0E836F7F0E846FF80E606F000ED1
:1004B800616FF60E626F000E636F3F0E76EC23F0ED
:1004C80060C085F061C086F008EC2DF05E50D8A4BD
:1004D8000BD0560E0001816F010E826F590E836F8B
:1004E8007C0E846F08EC2DF0080E41EC2FF000090B
:1004F800D8B405D0010E0001FD6F010E436E020E47
:1005080041EC2FF00009D8A4422A010E41EC2FF04B
:100518000009D8B40ED0FC0E0001656F000E666F9E
:10052800010E676F010E686F0E0E696F2B0E14ECCB
:1005380029F0100E41EC2FF00009D8B481D0FC0E40
:100548000001656F000E666F000E676F000E686F22
:100558000E0E696F2B0E14EC29F072D0800E00017C
:10056800606F010E616F0F0E626F140E636FF7EC10
:100578002DF0400E41EC2FF00009D8B40ED0F60E45
:100588000001656F000E666F550E676FA00E686FED
:10059800010E696F2B0E14EC29F0200E41EC2FF0A0
:1005A8000009D8B45ED2F60E0001656F000E666FC2
:1005B800550E676FA00E686F010E696F2D0E14EC53
:1005C80029F04FD25850D8A438D06B0E0001606F74
:1005D800010E616F0F0E626F140E636FF7EC2DF052
:1005E800400E41EC2FF00009D8B410D0F50E0001F0
:1005F800686F000E696FF60E6A6F000E6B6FF70E6C
:100608006C6F000E6D6F2B0E15EC24F0200E41EC74
:100618002FF00009D8B425D2F50E0001686F000E3E
:10062800696FF60E6A6F000E6B6FF70E6C6F000E37
:100638006D6F2D0E15EC24F014D2000E426E11D2FF
:100648004250010AD8B48AD7030AD8B4BBD7F5D721
:10065800960E0001816F010E826F430E836F7D0E2F
:10066800846FF6C085F0866B08EC2DF00001FB5115
:10067800D8A404D0000EED6F460E03D0000EED6F27
:10068800250EEC6F810E816F010E826F110E836F44
:100698007E0E846FF5C085F0866BECC087F0EDC0E8
:1006A80088F008EC2DF06C0E0001816F010E826F4E
:1006B8004E0E836F7F0E846FF80E606F000E616FB1
:1006C800F60E626F000E636F3F0E76EC23F060C08B
:1006D80085F061C086F008EC2DF0570E0001816F9F
:1006E800010E826F0B0E836F7F0E846FF751E4EC5F
:1006F8002CF060C085F061C086F008EC2DF0B1D117
:100708005850D8B405D0D60E0001EE6F7E0E04D036
:10071800940E0001EE6F7F0EEF6F960E816F010E43
:10072800826F570E836F7F0E846FEEC085F0EFC027
:1007380086F008EC2DF05950D8A405D0E10E000140
:10074800F06F7E0E04D0600E0001F06F7F0EF16F27
:10075800810E816F010E826F150E836F7F0E846F7D
:10076800F0C085F0F1C086F008EC2DF00001FC51D6
:10077800D8A404D0F70EF26F7E0E03D09B0EF26F52
:100788007F0EF36F6C0E816F010E826FEC0E836F1C
:100798007E0E846FF2C085F0F3C086F008EC2DF071
:1007A800570E0001816F010E826F950E836F7C0ECC
:1007B800846F08EC2DF055D1960E0001816F010E63
:1007C800826F810E836F7C0E846F08EC2DF0810E92
:1007D8000001816F010E826FA90E836F7C0E846FFA
:1007E80008EC2DF03ED1960E0001816F010E826F4C
:1007F800AE0E836F7D0E846F4BC085F0866B51C043
:1008080087F0886B08EC2DF0810E0001816F010ED6
:10081800826FBF0E836F7D0E846FFBC085F0866B81
:1008280052C087F0886B08EC2DF06C0E0001816FC8
:10083800010E826FD00E836F7D0E846F50C085F0DD
:10084800866B4EC087F0886B08EC2DF0570E0001C0
:10085800816F010E826FE10E836F7D0E846F4FC032
:1008680085F0866B54C087F0886B08EC2DF0F9D0C2
:10087800960E0001816F010E826F550E836F7D0EFB
:10088800846F53C085F0866B49C087F04AC088F0F2
:1008980008EC2DF0810E0001816F010E826F670E4A
:1008A800836F7D0E846FFFC085F0866B4DC087F027
:1008B800886B08EC2DF06C0E0001816F010E826FC1
:1008C800790E836F7D0E846FFAC085F0866BF9C050
:1008D80087F0886B08EC2DF0570E0001816F010E30
:1008E800826F290E836F7F0E846F4CC085F0866BF4
:1008F80008EC2DF0B6D0950E0001816F010E826FC5
:10090800680E836F7F0E846FCD0E856F010E866F24
:1009180008EC2DF0800E0001816F010E826F700EC1
:10092800836F7F0E846FBE0E856F010E866F08EC95
:100938002DF06B0E0001816F010E826FA20E836F86
:100948007F0E846FE60E856F010E866F08EC2DF022
:1009580049C060F04AC061F0000E0001636F270EC5
:10096800626F9BEC2EF060C0E4F061C0E5F0560EBB
:100978000001816F010E826F450E836F7F0E846FB9
:10098800E4C085F0E5C086F008EC2DF06AD0960E3C
:100998000001816F010E826F6D0E836F7C0E846F74
:1009A80008EC2DF05ED0FEEC1AF05BD0960E00013C
:1009B800816F010E826F0B0E836F7D0E846F57C09F
:1009C80085F0866B08EC2DF0810E0001816F010E19
:1009D800826F1E0E836F7D0E846F56C085F0866B06
:1009E80008EC2DF06C0E0001816F010E826FF80E7D
:1009F800836F7C0E846F55C085F0866B08EC2DF0F4
:100A0800560E0001816F010E826F8B0E836F7D0E73
:100A1800846F08EC2DF025D0000E0001FD6F21D069
:100A28000001FD51000AD8B4B8D4010AD8B410D6D0
:100A3800030AD8B465D6010AD8B4BED6060AD8B413
:100A4800D2D6030AD8B414D70E0AD8B454D7010A98
:100A5800D8B49DD7030AD8B4A6D7010AD8B4A6D764
:100A6800DBD70001FD05D8B408D0020EFD19D8B4B3
:100A780004D0030EFD19D8A4C0D1000E426E86D151
:100A88000A0E80D1010E0001FD6F3E0E0101956F27
:100A9800400E41EC2FF00009D8B40ED0F60E00013C
:100AA800656F000E666F3C0E676FA00E686F010ED3
:100AB800696F2B0E14EC29F0200E41EC2FF0000981
:100AC800D8B487D1F60E0001656F000E666F3C0E34
:100AD800676FA00E686F010E696F2D0E14EC29F078
:100AE80078D13E0E0101806F5850D8A472D1400EC3
:100AF80041EC2FF00009D8B410D0F50E0001686F52
:100B0800000E696FF60E6A6F000E6B6FF70E6C6F52
:100B1800000E6D6F2B0E15EC24F0200E41EC2FF01B
:100B28000009D8B456D1F50E0001686F000E696F40
:100B3800F60E6A6F000E6B6FF70E6C6F000E6D6F1E
:100B48002D0E15EC24F045D13E0E01016B6F400EC1
:100B580041EC2FF00009D8B42AD0F80E0001656FD7
:100B6800000E666F010E676F040E686F040E696FE2
:100B78002B0E14EC29F0F80E0001606F000E616F67
:100B8800F60E626F000E636F410E76EC23F0F50EE1
:100B98000001686F000E696FF60E6A6F000E6B6FCA
:100BA800F70E6C6F000E6D6F410E15EC24F0200EE1
:100BB80041EC2FF00009D8B40CD1F80E0001656F94
:100BC800000E666F010E676F040E686F040E696F82
:100BD8002D0E14EC29F0F80E0001606F000E616F05
:100BE800F60E626F000E636F410E76EC23F0F50E81
:100BF8000001686F000E696FF60E6A6F000E6B6F6A
:100C0800F70E6C6F000E6D6F410E15EC24F0E1D0FD
:100C1800010E0001FD6F3E0E0101566F400E41ECC2
:100C28002FF00009D8B40ED0F70E0001656F000E42
:100C3800666F010E676F030E686F050E696F2B0EE6
:100C480014EC29F0200E41EC2FF00009D8B4C1D0E3
:100C5800F70E0001656F000E666F010E676F030ED9
:100C6800686F050E696F2D0E14EC29F0B2D0020ED4
:100C78000001FD6F3E0E0101956F400E41EC2FF013
:100C88000009D8A406D0200E41EC2FF00009D8B4F2
:100C9800A0D0580E0001656F000E666F000E676FDA
:100CA800010E686F060E696F2B0E14EC29F091D0B7
:100CB8003E0E0101806F400E41EC2FF00009D8A4D0
:100CC80006D0200E41EC2FF00009D8B482D0590E7E
:100CD8000001656F000E666F000E676F010E686F8A
:100CE800030E696F2B0E14EC29F073D03E0E010130
:100CF8006B6F400E41EC2FF00009D8A406D0200EEF
:100D080041EC2FF00009D8B464D0FC0E0001656FE7
:100D1800000E666F000E676F010E686F0E0E696F2A
:100D28002B0E14EC29F055D0020E0001FD6F3E0E7B
:100D38000101566F020E41EC2FF00009D8B449D0DA
:100D48000B0E0DD0030E0001FD6F3E0E0101956FD5
:100D5800020E41EC2FF00009D8B43BD0080E000178
:100D6800FD6F37D0030E0001FD6F3E0E0101806F4D
:100D7800020E41EC2FF00009D8B42BD0050E00016B
:100D8800FD6F02D0436E25D0010EFCD74350000AF8
:100D9800D8B476D6010AD8B475D6030AD8B4A1D681
:100DA800010AD8B4D1D6070AD8B432D7010AD8B4C0
:100DB8005ED7030AD8B47CD7010AD8B497D70F0AEC
:100DC800D8B4B2D7010AD8B4BDD7030AD8B4CAD7A1
:100DD800DBD7100E41EC2FF00009D8A4432A010EEE
:100DE80041EC2FF00009D8A44306080E41EC2FF07F
:100DF8000009D8B4F4D3000EF0D3050EFD19D8B409
:100E080004D0060EFD19D8A4EED2300E4B18D8B473
:100E1800A3D2010E436EA0D2050E0001FD6F3E0E57
:100E28000101956F400E41EC2FF00009D8B40ED0A7
:100E38004B0E0001656F000E666F000E676F320E75
:100E4800686F000E696F2B0E14EC29F0200E41EC30
:100E58002FF00009D8B4AFD24B0E0001656F000E19
:100E6800666F000E676F320E686F000E696F2D0E89
:100E780014EC29F0A0D23E0E0101806F400E41EC27
:100E88002FF00009D8B40ED0FB0E0001656F000EDC
:100E9800666F000E676F010E686F070E696F2B0E85
:100EA80014EC29F0200E41EC2FF00009D8B483D2BD
:100EB800FB0E0001656F000E666F000E676F010E76
:100EC800686F070E696F2D0E14EC29F074D23E0E70
:100ED80001016B6F400E41EC2FF00009D8B40ED021
:100EE800500E0001656F000E666F010E676F0A0EE7
:100EF800686F0C0E696F2B0E14EC29F0200E41EC74
:100F08002FF00009D8B457D2500E0001656F000EBB
:100F1800666F010E676F0A0E686F0C0E696F2D0EF3
:100F280014EC29F048D23E0E0101566F400E41ECF8
:100F38002FF00009D8B40ED04F0E0001656F000ED7
:100F4800666F010E676F0A0E686F0D0E696F2B0EC4
:100F580014EC29F0200E41EC2FF00009D8B42BD264
:100F68004F0E0001656F000E666F010E676F0A0E67
:100F7800686F0D0E696F2D0E14EC29F01CD23E0E11
:100F88000101A06F400E41EC2FF00009D8B40ED03B
:100F9800510E0001656F000E666F010E676F0A0E35
:100FA800686F0B0E696F2B0E14EC29F0200E41ECC4
:100FB8002FF00009D8B4FFD1510E0001656F000E63
:100FC800666F010E676F0A0E686F0B0E696F2D0E44
:100FD80014EC29F0F0D13E0E01018B6F400E41EC6C
:100FE8002FF00009D8B40ED0520E0001656F000E24
:100FF800666F000E676F0F0E686F100E696F2B0E0D
:1010080014EC29F0200E41EC2FF00009D8B4D3D10C
:10101800520E0001656F000E666F000E676F0F0EAF
:10102800686F100E696F2D0E14EC29F0C4D13E0EB6
:101038000101766F400E41EC2FF00009D8B40ED0B4
:101048004E0E0001656F000E666F010E676F0F0E82
:10105800686F110E696F2B0E14EC29F0200E41EC0D
:101068002FF00009D8B4A7D14E0E0001656F000E0D
:10107800666F010E676F0F0E686F110E696F2D0E88
:1010880014EC29F098D1050E0001FD6F3E0E010108
:10109800616F400E41EC2FF00009D8B40ED0540E09
:1010A8000001656F000E666F010E676FFA0E686FBC
:1010B800120E696F2B0E14EC29F0200E41EC2FF064
:1010C8000009D8B478D1540E0001656F000E666F20
:1010D800010E676FFA0E686F120E696F2D0E14EC11
:1010E80029F069D1060E0001FD6F3E0E0101956FD2
:1010F800400E41EC2FF00009D8B40ED0530E000179
:10110800656F000E666F000E676FFA0E686F140E3B
:10111800696F2B0E14EC29F0200E41EC2FF000091A
:10112800D8B449D1530E0001656F000E666F000EEA
:10113800676FFA0E686F140E696F2D0E14EC29F0A4
:101148003AD13E0E0101806F400E41EC2FF00009AC
:10115800D8B40ED0FF0E0001656F000E666F000E4A
:10116800676F1E0E686F150E696F2B0E14EC29F051
:10117800200E41EC2FF00009D8B41DD1FF0E00015C
:10118800656F000E666F000E676F1E0E686F150E96
:10119800696F2D0E14EC29F00ED13E0E01016B6F14
:1011A800400E41EC2FF00009D8B40ED0FA0E000121
:1011B800656F000E666F000E676FFA0E686F160E89
:1011C800696F2B0E14EC29F0200E41EC2FF000096A
:1011D800D8B4F1D0FA0E0001656F000E666F000EEC
:1011E800676FFA0E686F160E696F2D0E14EC29F0F2
:1011F800E2D03E0E0101566F400E41EC2FF000097F
:10120800D8B40ED04C0E0001656F000E666F000E4C
:10121800676F010E686F170E696F2B0E14EC29F0BB
:10122800200E41EC2FF00009D8B4C5D04C0E0001B7
:10123800656F000E666F000E676F010E686F170E00
:10124800696F2D0E14EC29F0B6D03E0E0101A06F87
:10125800400E41EC2FF00009D8B40ED0490E000121
:10126800656F000E666F010E676FFA0E686F190ED4
:10127800696F2B0E14EC29F0200E41EC2FF00009B9
:10128800D8B499D0490E0001656F000E666F010E43
:10129800676FFA0E686F190E696F2D0E14EC29F03E
:1012A8008AD03E0E01018B6F400E41EC2FF00009F1
:1012B800D8B40ED04D0E0001656F000E666F000E9B
:1012C800676F0F0E686F1B0E696F2B0E14EC29F0F9
:1012D800200E41EC2FF00009D8B46DD04D0E00015E
:1012E800656F000E666F000E676F0F0E686F1B0E3E
:1012F800696F2D0E14EC29F05ED03E0E0101766F59
:10130800400E41EC2FF00009D8B40ED0F90E0001C0
:10131800656F000E666F000E676F3C0E686F1C0EDF
:10132800696F2B0E14EC29F0200E41EC2FF0000908
:10133800D8B441D0F90E0001656F000E666F000E3B
:10134800676F3C0E686F1C0E696F2D0E14EC29F048
:1013580032D0010E436E2FD04350010AD8B45CD569
:10136800030AD8B488D5010AD8B4B1D5070AD8B4C5
:10137800DAD5010AD8B403D6030AD8B42CD6010AA0
:10138800D8B455D60F0AD8B47ED6010AD8B4AAD68E
:10139800030AD8B4D6D6010AD8B4FFD6070AD8B4F7
:1013A80028D7010AD8B451D7030AD8B47AD7010A82
:1013B800D8B4A3D7CED7100E41EC2FF00009D8A48B
:1013C800432A010E41EC2FF00009D8A44306080E69
:1013D80041EC2FF00009D8B402D1000E0001FD6FD6
:1013E800000E4B6EFCD0080EFD19D8B430D0090E93
:1013F800FD19D8B42CD047D0080E0001FD6F2FD0AE
:10140800090E0001FD6F3E0E0101956F020E41ECC1
:101418002FF00009D8B423D08988000E0001616F2D
:10142800640E606F86EC2EF08998030E0001616FE0
:10143800200E606F86EC2EF00A0E0001FD6F000E84
:101448003B6E0F0E3C6E0BD0010E436E08D043501E
:10145800010AD8B4D1D7030AD8B4D2D7F5D7100E19
:1014680041EC2FF00009D8A4432A010E41EC2FF0DB
:101478000009D8A44306080E41EC2FF00009D8B49F
:10148800AED0030EAAD00B0EFD19D8B488D0A7D0C1
:101498003E0E0101956F400E41EC2FF00009D8B4C3
:1014A8000ED0570E0001656F000E666F000E676F55
:1014B8001E0E686F080E696F2B0E14EC29F0200EB3
:1014C80041EC2FF00009D8B475D0570E0001656FB4
:1014D800000E666F000E676F1E0E686F080E696F4C
:1014E8002D0E14EC29F066D03E0E0101806F400EDF
:1014F80041EC2FF00009D8B40ED0560E0001656FEC
:10150800000E666F000E676F1E0E686F090E696F1A
:101518002B0E14EC29F0200E41EC2FF00009D8B462
:1015280049D0560E0001656F000E666F000E676F9A
:101538001E0E686F090E696F2D0E14EC29F03AD053
:101548003E0E01016B6F400E41EC2FF00009D8B43C
:101558000ED0550E0001656F000E666F000E676FA6
:101568001E0E686F0A0E696F2B0E14EC29F0200E00
:1015780041EC2FF00009D8B41DD0550E0001656F5D
:10158800000E666F000E676F1E0E686F0A0E696F99
:101598002D0E14EC29F00ED0010E436E0BD04350E3
:1015A800010AD8B475D7030AD8B49ED7010AD8B4AB
:1015B800C7D7F2D7100E41EC2FF00009D8A4432A60
:1015C800010E41EC2FF00009D8A44306080E41ECA7
:1015D8002FF00009D8B403D0020E0001FD6F10EC03
:1015E8002EF0950E0001686F010E696F800E6A6F0C
:1015F800010E6B6F6B0E6C6F010E6D6F560E6E6F7A
:10160800010E6F6FEBEC26F08EEF01F0000E00017B
:10161800676F6451D8B406D31AD361BF06D061513D
:1016280006E15B0E605DD8B002D0550E4BD05B0E64
:1016380060196111D8A402D0560E44D05C0E60190E
:101648006111D8A402D0570E3DD05D0E601961110A
:10165800D8A402D0580E36D05E0E60196111D8A4F5
:1016680002D0590E2FD05F0E60196111D8A402D094
:101678005A0E28D0600E60196111D8A402D05B0EF2
:1016880021D0610E60196111D8A402D05C0E1AD065
:10169800620E60196111D8A402D05D0E13D0630EDA
:1016A80060196111D8A402D05E0E0CD0640E6019C6
:1016B8006111D8B49EEF0FF0650E60196111D8A4BE
:1016C80004D0F2D7676FEFEF12F061BF0ED061510F
:1016D80004E1660E605DD8A008D061BFE5D761510E
:1016E80004E16C0E605DD8A0DFD761BF10D06151F6
:1016F80004E16C0E605DD8A00AD061BF9EEF0FF0C8
:10170800615105E1770E605DD8A09EEF0FF0770E6E
:1017180060196111D8B491EF0FF0780E601961115A
:10172800D8B4FBD3790E60196111D8B4EED37A0E10
:1017380060196111D8B4E9D37B0E60196111D8B46E
:101748002AEF11F07C0E60196111D8B42AEF11F05C
:101758007D0E60196111D8B417EF11F07E0E601973
:101768006111D8B417EF11F07F0E60196111D8B468
:101778000FEF11F0800E60196111D8B40FEF11F05E
:10178800810E60196111D8B4BBD1820E6019611144
:10179800D8B4B6D1830E60196111D8B4BDD1840E06
:1017A80060196111D8B4B8D1850E60196111D8B427
:1017B800BFD1860E60196111D8B4BAD161BF0ED0FD
:1017C800615104E1870E605DD8A008D061BFEDD0FB
:1017D800615104E1930E605DD8A0E7D061BF0ED0DF
:1017E800615104E1930E605DD8A008D061BFB2D109
:1017F800615104E1970E605DD8A0ACD1970E6019D5
:101808006111D8B4B3D1980E60196111D8B4AED1B2
:10181800990E60196111D8B4B5D19A0E6019611189
:10182800D8B4C2D19B0E60196111D8B4BDD19C0E39
:1018380060196111D8B4C4D19D0E60196111D8B472
:10184800BFD19E0E60196111D8B4E4D09F0E601903
:101858006111D8B4DFD061BFEFEF12F0615101E13F
:10186800E0D0C6D161BFF6D6615104E15B0E605D80
:10187800D8A0F0D65B0E60196111D8B4F2D65C0E10
:1018880060196111D8B4F4D65D0E60196111D8B42D
:10189800F6D65E0E60196111D8B4F8D65F0E6019DD
:1018A8006111D8B4FAD6600E60196111D8B4FCD6AB
:1018B800610E60196111D8B43DD361BF0ED061517A
:1018C80004E1620E605DD8A008D061BF26D36151E3
:1018D80004E1650E605DD8A020D361BF0ED06151D0
:1018E80004E1650E605DD8A008D061BF0ED36151D8
:1018F80004E1780E605DD8A008D361BF10D06151B3
:1019080004E1780E605DD8A00AD061BF2AEF11F01B
:10191800615105E17B0E605DD8A02AEF11F07B0EC6
:1019280060196111D8B417EF11F07C0E60196111BC
:10193800D8B417EF11F07D0E60196111D8B40FEF0C
:1019480011F07E0E60196111D8B40FEF11F07F0EFF
:1019580060196111D8B4D4D0800E60196111D8B45F
:10196800CFD0810E60196111D8B4D6D0820E60191B
:101978006111D8B4D1D0830E60196111D8B4D8D010
:10198800840E60196111D8B4D3D061BF10D06151F1
:1019980004E1850E605DD8A00AD061BF06D0615110
:1019A80006E1950E605DD8B002D0680E8BD661BF97
:1019B8000ED0615104E1950E605DD8A008D061BFDA
:1019C800C9D0615104E1990E605DD8A0C3D0990EC9
:1019D80060196111D8B4CAD09A0E60196111D8B4CF
:1019E800D1D09B0E60196111D8B4DED09C0E60195D
:1019F8006111D8B4D9D09D0E60196111D8B4E0D066
:101A08009E0E60196111D8B4DBD09F0E6019611168
:101A1800D8A402D06E0E56D661BFEFEF12F0615116
:101A280005E1A00E605DD8A0EFEF12F0E1D061BF34
:101A38001FD6615104E15B0E605DD8A019D65B0E1C
:101A480060196111D8B41BD65C0E60196111D8B445
:101A58001DD65D0E60196111D8B41FD65E0E6019CF
:101A68006111D8B421D65F0E60196111D8B462D261
:101A7800600E60196111D8B45DD2610E60196111F0
:101A8800D8B44BD2620E60196111D8B446D2630E35
:101A980060196111D8B439D261BF0ED0615104E127
:101AA800640E605DD8A008D061BFD0D3615104E155
:101AB800680E605DD8A0CAD3680E60196111D8B4E9
:101AC800B2D3690E60196111D8B4ADD361BF0ED01D
:101AD800615104E16A0E605DD8A008D061BF9BD354
:101AE800615104E17B0E605DD8A095D37B0E60192F
:101AF8006111D8B405D07C0E60196111D8A402D048
:101B0800650EE0D57D0E60196111D8B405D07E0E42
:101B180060196111D8A402D0660ED4D57F0E601961
:101B28006111D8B405D0800E60196111D8A402D013
:101B3800670EC8D561BF10D0615104E1810E605DA8
:101B4800D8A00AD061BF06D0615106E18B0E605D56
:101B5800D8B002D0690EB6D58B0E60196111D8B411
:101B680005D08C0E60196111D8A402D06A0EAAD5CE
:101B78008D0E60196111D8B405D0920E60196111EB
:101B8800D8A402D06B0E9ED561BF10D0615104E17C
:101B9800930E605DD8A00AD061BF06D0615106E1FE
:101BA800980E605DD8B002D06C0E8CD5990E601975
:101BB8006111D8B405D0980E60196111D8A402D06B
:101BC8006D0E80D59B0E60196111D8B405D09A0EA0
:101BD80060196111D8A402D06F0E74D59D0E6019DA
:101BE8006111D8B405D09C0E60196111D8A402D037
:101BF800700E68D59F0E60196111D8B405D09E0E7D
:101C080060196111D8A402D0710E5CD561BFEFEFE5
:101C180012F0615105E1A00E605DD8A0EFEF12F05F
:101C2800730E50D562C065F063C066F06651000A55
:101C3800D8A4EFEF12F06551010AD8B4EED4030A24
:101C4800D8B410D6010AD8B4F2D6EFEF12F0640572
:101C5800D8B4E4EF12F0EFEF12F061BF17D561517D
:101C680004E15B0E605DD8A011D55B0E60196111AF
:101C7800D8B40CD55C0E60196111D8B4F9D45D0ED6
:101C880060196111D8B4EDD461BF0ED0615104E17F
:101C98005E0E605DD8A008D061BFDCD4615104E15C
:101CA800650E605DD8A0D6D461BF0ED0615104E145
:101CB800650E605DD8A008D061BFFED2615104E115
:101CC800670E605DD8A0F8D2670E60196111D8B4AC
:101CD80003D3680E60196111D8B406D3690E601970
:101CE8006111D8B479D16A0E60196111D8B40FD3D3
:101CF8006B0E60196111D8B412D36C0E60196111A2
:101D0800D8A402D0430EDED46D0E60196111D8B488
:101D18000ED36E0E60196111D8B47ED161BF0ED09A
:101D2800615104E16F0E605DD8A008D061BF17D380
:101D3800615104E1730E605DD8A011D3730E601970
:101D48006111D8B414D3740E60196111D8B417D3C3
:101D5800750E60196111D8A402D0360EB3D4760E70
:101D680060196111D8B423D3770E60196111D8B402
:101D780026D3780E60196111D8B48DD1790E601907
:101D88006111D8B42CD37A0E60196111D8A402D08D
:101D98002E0E98D47B0E60196111D8B428D37C0E0E
:101DA80060196111D8B489D17D0E60196111D8B458
:101DB80026D37E0E60196111D8B487D17F0E6019C1
:101DC8006111D8B42CD3800E60196111D8B427D30F
:101DD800810E60196111D8B42AD3820E601961117D
:101DE800D8A402D0260E6ED4830E60196111D8B41F
:101DF80026D3840E60196111D8B429D3850E6019D1
:101E08006111D8B424D3860E60196111D8B41FD3D8
:101E1800870E60196111D8B422D3880E6019611138
:101E2800D8B425D3890E60196111D8B428D38A0E85
:101E380060196111D8B42BD38B0E60196111D8B415
:101E48002ED38C0E60196111D8B431D38D0E601960
:101E58006111D8B434D38E0E60196111D8B437D358
:101E68008F0E60196111D8B43AD3900E60196111C0
:101E7800D8B43DD3910E60196111D8B440D3920EF5
:101E880060196111D8B443D3930E60196111D8B4A5
:101E980046D3940E60196111D8B449D3950E6019D0
:101EA8006111D8B44CD3960E60196111D8B44FD3D0
:101EB800970E60196111D8B452D3980E6019611148
:101EC800D8B455D361BF0ED0615104E1990E605D5D
:101ED800D8A008D061BF5ED3615104E19D0E605D5A
:101EE800D8A058D39D0E60196111D8B45BD361BFD7
:101EF80072D3615101E182D160D361BF06D06151D3
:101F080007E15B0E605DD8B003D0610E66EF0BF0A1
:101F18005B0E60196111D8A403D0600E66EF0BF058
:101F28005C0E60196111D8B405D05C0E601961119E
:101F3800D8A403D05F0E66EF0BF05D0E6019611137
:101F4800D8B458EF0BF061BF10D0615104E15E0EB8
:101F5800605DD8A00AD061BF51EF0BF0615105E177
:101F6800650E605DD8A051EF0BF061BF11D06151D3
:101F780004E1650E605DD8A00BD061BF06D0615149
:101F880007E1670E605DD8B003D0530E66EF0BF023
:101F9800670E60196111D8A403D0510E66EF0BF0DB
:101FA800680E60196111D8B47FD1690E601961118A
:101FB800D8B48AD16A0E60196111D8B495D16B0E64
:101FC80060196111D8A403D0490E66EF0BF06C0EAE
:101FD80060196111D8A403D0480E66EF0BF06D0E9E
:101FE80060196111D8A403D0470E66EF0BF06E0E8E
:101FF80060196111D8B48BD161BF11D0615104E16E
:102008006F0E605DD8A00BD061BF06D0615107E1AB
:10201800730E605DD8B003D0410E66EF0BF0730EFF
:1020280060196111D8A403D03F0E66EF0BF0740E4F
:1020380060196111D8A403D03D0E66EF0BF0750E40
:1020480060196111D8A403D03B0E66EF0BF0760E31
:1020580060196111D8A403D0390E66EF0BF0770E22
:1020680060196111D8B493D1780E60196111D8B490
:1020780096D1790E60196111D8A403D0330E66EF9A
:102088000BF07A0E60196111D8B499D17B0E6019E2
:102098006111D8A403D0300E66EF0BF07C0E6019E6
:1020A8006111D8B49CD17D0E60196111D8B49FD14B
:1020B8007E0E60196111D8A403D02C0E66EF0BF0C8
:1020C8007F0E60196111D8A403D02A0E66EF0BF0B9
:1020D800800E60196111D8B49AD1810E601961110E
:1020E800D8B495D1820E60196111D8B498D1830EF5
:1020F80060196111D8B493D1840E60196111D8B4F4
:1021080096D1850E60196111D8B491D1860E6019E7
:102118006111D8B49CD1870E60196111D8B49FD1D0
:10212800880E60196111D8B4A2D1890E60196111A5
:10213800D8B4A5D18A0E60196111D8B4A8D18B0E74
:1021480060196111D8B4ABD18C0E60196111D8B483
:10215800AED18D0E60196111D8B4B1D18E0E60194F
:102168006111D8B4B4D18F0E60196111D8B4B7D148
:10217800900E60196111D8B4BAD1910E601961112D
:10218800D8B4BDD1920E60196111D8B4C0D1930EE4
:1021980060196111D8B4C3D1940E60196111D8B413
:1021A800C6D1950E60196111D8B4C9D1960E6019BF
:1021B8006111D8B4CCD1970E60196111D8B4CFD1C0
:1021C800980E60196111D8B4D2D161BF0ED0615197
:1021D80004E1990E605DD8A008D061BFDBD16151E0
:1021E80004E19D0E605DD8A0D5D19D0E60196111E6
:1021F800D8B4D8D161BFEFD1615104E19E0E605DC2
:10220800D8A0E9D1DAD161BF06D0615107E15D0EEE
:10221800605DD8B003D0640E66EF0BF05D0E6019F8
:102228006111D8A403D0630E66EF0BF061BF11D023
:10223800615104E15E0E605DD8A00BD061BF06D08D
:10224800615107E1650E605DD8B003D0620E66EF9C
:102258000BF061BF10D0615104E1650E605DD8A03C
:102268000AD061BF2EEF0BF0615105E1670E605D8A
:10227800D8A02EEF0BF0670E60196111D8B420EFCB
:102288000BF0680E60196111D8B419EF0BF0690EE4
:1022980060196111D8A403D0520E66EF0BF06A0ED4
:1022A80060196111D8A403D0500E66EF0BF06B0EC5
:1022B80060196111D8A403D04E0E66EF0BF06C0EB6
:1022C80060196111D8A403D04D0E66EF0BF06D0EA6
:1022D80060196111D8A403D04C0E66EF0BF06E0E96
:1022E80060196111D8A403D04B0E66EF0BF061BFE3
:1022F80011D0615104E16F0E605DD8A00BD061BFB1
:1023080006D0615107E1730E605DD8B003D0460E68
:1023180066EF0BF0730E60196111D8A403D0440E58
:1023280066EF0BF0740E60196111D8A403D0420E49
:1023380066EF0BF0750E60196111D8A403D0400E3A
:1023480066EF0BF0760E60196111D8A403D03E0E2B
:1023580066EF0BF0770E60196111D8A403D03C0E1C
:1023680066EF0BF0780E60196111D8A403D03A0E0D
:1023780066EF0BF0790E60196111D8A403D0380EFE
:1023880066EF0BF07A0E60196111D8A403D0370EEE
:1023980066EF0BF07B0E60196111D8A403D0350EDF
:1023A80066EF0BF07C0E60196111D8A403D0340ECF
:1023B80066EF0BF07D0E60196111D8A403D0320EC0
:1023C80066EF0BF07E0E60196111D8A403D0310EB0
:1023D80066EF0BF07F0E60196111D8A403D02F0EA1
:1023E80066EF0BF0800E60196111D8A403D02D0E92
:1023F80066EF0BF0810E60196111D8A403D02B0E83
:1024080066EF0BF0820E60196111D8A403D0290E73
:1024180066EF0BF0830E60196111D8A403D0280E63
:1024280066EF0BF0840E60196111D8A403D0270E53
:1024380066EF0BF0850E60196111D8A403D0250E44
:1024480066EF0BF0860E60196111D8A403D0240E34
:1024580066EF0BF0870E60196111D8A403D0230E24
:1024680066EF0BF0880E60196111D8A403D0220E14
:1024780066EF0BF0890E60196111D8A403D0210E04
:1024880066EF0BF08A0E60196111D8A403D0200EF4
:1024980066EF0BF08B0E60196111D8A403D01F0EE4
:1024A80066EF0BF08C0E60196111D8A403D01E0ED4
:1024B80066EF0BF08D0E60196111D8A403D01D0EC4
:1024C80066EF0BF08E0E60196111D8A403D01C0EB4
:1024D80066EF0BF08F0E60196111D8A403D01B0EA4
:1024E80066EF0BF0900E60196111D8A403D01A0E94
:1024F80066EF0BF0910E60196111D8A403D0190E84
:1025080066EF0BF0920E60196111D8A403D0180E73
:1025180066EF0BF0930E60196111D8A403D0170E63
:1025280066EF0BF0940E60196111D8A403D0160E53
:1025380066EF0BF0950E60196111D8A403D0150E43
:1025480066EF0BF0960E60196111D8A403D0140E33
:1025580066EF0BF0970E60196111D8A403D0130E23
:1025680066EF0BF0980E60196111D8A403D0120E13
:1025780066EF0BF061BF11D0615104E1990E605D07
:10258800D8A00BD061BF06D0615107E19D0E605DF8
:10259800D8B003D0110E66EF0BF09D0E60196111D3
:1025A800D8A403D0100E66EF0BF061BF14D06151B0
:1025B80004E19E0E605DD8A00ED00F0E66EF0BF002
:1025C800F751010AD8B431EF0EF0030AD8B495D404
:1025D800010AD8B418D667C060F0616B1200CCD27B
:1025E800250E00018019D8B433D020EE02F06C51CA
:1025F800D9266D51DA22DE50DE10D8B413D020EE81
:1026080002F06C51D9266D51DA2201D8B5D20500F5
:10261800FA6EDE50FD6EDE50FE6EF850FF6EFA5018
:10262800805112006CC0D9FF6DC0DAFFDECF72F0A6
:10263800DDCF73F072C0D9FF73C0DAFF80C0DFFF4F
:102648006CC0D9FF6DC0DAFFDE2A000EDD2294D2FD
:10265800000E00017F6F000E7E6F000E776F6EC058
:10266800F6FF6FC0F7FF0800F55021EC2FF0D8A057
:102678003CD1000E00017F6F000E7E6F7EC060F0BF
:102688007FC061F0000E0001636F0A0E626F9BEC61
:102698002EF060C07EF061C07FF0D00E0001726F36
:1026A800FF0E736F6EC0F6FF6FC0F7FF0800F5509E
:1026B800746F756B725174277351752374517E272B
:1026C80075517F236E4B6F2B6EC0F6FF6FC0F7FFFF
:1026D8000800F55021EC2FF0D8A007D1CFD770C053
:1026E800D9FF71C0DAFFDFCF72F0020EDE26DFCF2E
:1026F80073F0000EDD2272C0D9FF73C0DAFFDECF9F
:102708007CF0DDCF7DF000017C517D11D8A404D090
:10271800780E7C6F7F0E7D6F000E7B6F000E7A6FD8
:1027280003D000017A4B7B2B7A517C25726F7B5149
:102738007D21736F72C0F6FF73C0F7FFF86A070E4A
:10274800F76403D00800F55005D0F6CFE9FFF7CFBE
:10275800EAFFEF500009D8A4E4D700017E517A5D62
:102768007F517B59D8B005D07A517E5F7B517F5B12
:1027780037D0000E7F6F000E7E6F32D020EE02F051
:102788006C51D9266D51DA22DE50DE10D8B413D040
:1027980020EE02F06C51D9266D51DA2201D820D0F2
:1027A8000500FA6EDE50FD6EDE50FE6EF850FF6ECC
:1027B800FA50200E12006CC0D9FF6DC0DAFFDECFD0
:1027C80072F0DDCF73F072C0D9FF73C0DAFF200E4C
:1027D800DF6E6CC0D9FF6DC0DAFFDE2A000EDD2285
:1027E80000017E07D8A07F077E29C8E17F29D8B4D9
:1027F80058D0C4D720EE02F06C51D9266D51DA2298
:10280800DE50DE10D8B426D020EE02F06C51D92666
:102818006D51DA2201D81AD00500FA6EDE50FD6E2D
:10282800DE50FE6EF850FF6EFA507CC0F6FF7DC099
:10283800F7FFF86A070EF76403D00800F55005D0D3
:10284800F6CFE9FFF7CFEAFFEF50120000017C4B0B
:102858007D2B27D07CC0F6FF7DC0F7FFF86A6CC0DF
:10286800D9FF6DC0DAFFDECF72F0DDCF73F072C032
:10287800D9FF73C0DAFF070EF76403D00800F550DC
:1028880005D0F6CFE9FFF7CFEAFFEF50DF6E000182
:102898007C4B7D2B6CC0D9FF6DC0DAFFDE2A000EA1
:1028A800DD227A07D8A07B077A29A4E17B29D8B44E
:1028B80063D1A0D770C0D9FF71C0DAFFDFCF72F043
:1028C800020EDE26DFCF73F0000EDD2272C0D9FFC4
:1028D80073C0DAFFDF50806F800E7C6F000E7D6F53
:1028E800000E7B6F010E7A6F38D76EC0F6FF6FC08F
:1028F800F7FF00016E4B6F2B0800F5CF80F0805179
:10290800000AD8B446D1630AD8B4D4D7070AD8B4D1
:1029180007D00D0AD8B404D01A0AD8B4E0D6DCD748
:1029280070C0D9FF71C0DAFFDFCF72F0020EDE2669
:10293800DFCF73F0000EDD2272C0D9FF73C0DAFF5B
:10294800DECF78F0DDCF79F0000179AF06D0030E45
:102958007713786D791FD8B0792B010E806F050E2B
:102968008019D8B412D08051020D470EF324F66EA8
:10297800780EF420F76E0900F550785D0900F550DF
:102988007959D8A002D0802BEAD77E517F11D8B4CC
:1029980009D077C072F0030E7217D8B403D07E073F
:1029A800D8A07F07800E80BF7F0E726F7E51805D3A
:1029B8007F51800A7259D8B007D080517E5F000ECF
:1029C80080BFFF0E7F5B04D0000E7F6F000E7E6F0E
:1029D8007E517F11D8B43AD020EE02F06C51D9263E
:1029E8006D51DA22DE50DE10D8B413D020EE02F09A
:1029F8006C51D9266D51DA2201D820D00500FA6E23
:102A0800DE50FD6EDE50FE6EF850FF6EFA50200E5E
:102A180012006CC0D9FF6DC0DAFFDECF72F0DDCFD7
:102A280073F072C0D9FF73C0DAFF200EDF6E6CC07E
:102A3800D9FF6DC0DAFFDE2A000EDD2200017E0715
:102A4800D8A07F077E517F11D8A4C6D777C072F06F
:102A5800030E7217D8B432D020EE02F06C51D9268A
:102A68006D51DA22DE50DE10D8B413D020EE02F019
:102A78006C51D9266D51DA2201D820D00500FA6EA2
:102A8800DE50FD6EDE50FE6EF850FF6EFA502D0ED1
:102A980012006CC0D9FF6DC0DAFFDECF72F0DDCF57
:102AA80073F072C0D9FF73C0DAFF2D0EDF6E6CC0F1
:102AB800D9FF6DC0DAFFDE2A000EDD2280C076F075
:102AC80056D000017651020D470EF324F66E780EAB
:102AD800F420F76E0900F5CF62F00A00F5CF63F035
:102AE80078C060F079C061F068EC2CF060C067F0E5
:102AF80061C068F0000E00016A6F0A0E696F2AEC67
:102B08002DF000016751300F806F20EE02F06C51FC
:102B1800D9266D51DA22DE50DE10D8B413D020EE5B
:102B280002F06C51D9266D51DA2201D820D0050067
:102B3800FA6EDE50FD6EDE50FE6EF850FF6EFA50F3
:102B4800805112006CC0D9FF6DC0DAFFDECF72F081
:102B5800DDCF73F072C0D9FF73C0DAFF80C0DFFF2A
:102B68006CC0D9FF6DC0DAFFDE2A000EDD2200013D
:102B780076077629D8A4A5D76EC0F6FF6FC0F7FFF1
:102B880000016E4B6F2B0800F5CF80F08051D8A460
:102B980027D5000E00016D6F000E6C6F12003C50BF
:102BA800D8A405D0000E3B6E0A0E3C6E1200E60E4D
:102BB8000001606F010E616F3DEC2CF00C0E0001FE
:102BC80060196111D8B4B2D17ED2E20E0001916FC2
:102BD8007F0E926FCFEC2BF03D0E0001816F7E0EC1
:102BE800826F8CEC2DF0000E476E3B2A1200EF0E20
:102BF8000001746F7F0E756FAFEC2EF00009D8B42A
:102C08001200E20E0001916F7F0E926FCFEC2BF055
:102C18002F0E0001816F7E0E826F8CEC2DF03B2A07
:102C28001200EF0E0001746F7F0E756FAFEC2EF07F
:102C38000009D8A40AD0CC0E0001746F7F0E756FFE
:102C4800AFEC2EF00009D8B41200E20E0001916F2B
:102C58007F0E926FCFEC2BF0000E0001616F0A0E11
:102C6800606F86EC2EF0F10E0001816F7B0E826F93
:102C7800CD0E836F010E846FBE0E856F010E866FB9
:102C88008CEC2DF03B2A230E3C6E1200100E3C609B
:102C98001200E20E0001916F7F0E926FCFEC2BF0C5
:102CA800020E0001816F7E0E826F8CEC2DF03B2AA4
:102CB8001200FB0E0001746F7F0E756FAFEC2EF0E3
:102CC8000009D8A40AD0FD0E0001746F7F0E756F3D
:102CD800AFEC2EF00009D8B41200E20E0001916F9B
:102CE8007F0E926FCFEC2BF0A90E0001816F7B0E47
:102CF800826FAA0E836F010E846F33C085F034C0D3
:102D080086F08CEC2DF0010E476E3B2A1200EF0E78
:102D18000001746F7F0E756FAFEC2EF00009D8B408
:102D28001200E20E0001916F7F0E926FCFEC2BF034
:102D3800E50E0001816F7C0E826F8CEC2DF03B2A32
:102D480012007F0E0001746F7C0E756FAFEC2EF0D1
:102D58000009D8B41200DA0E0001916F7F0E926F4D
:102D6800CFEC2BF0000E0001D86FC50E816F000E5E
:102D7800826F120E836F7F0E846F910E856F7E0EA9
:102D8800866F08EC2DF0000E0001D86F17D0D851CF
:102D9800010DC50EF324D96E000EF420DA6E200E54
:102DA800DE18D8A40AD0D851010DC50EF324D96E67
:102DB800000EF420DA6E2D0EDF6ED82BC50E606F74
:102DC800000E616F3DEC2CF00001D851C36FC46B4D
:102DD8006051C35D6151C459D8A0D9D749C060F0CA
:102DE8004AC061F0000E636F270E626F9BEC2EF0F5
:102DF80060C0D4F061C0D5F0B10E0001816F7A0EC9
:102E0800826FFEC083F0846BF6C085F0866B5DC070
:102E180087F0886BF5C089F08A6B5AC08BF08C6B91
:102E2800FCC08DF08E6B58C08FF0906B59C091F03C
:102E3800926BF8C093F0946BF7C095F0966BFBC05B
:102E480097F0986BE60E996F010E9A6FD4C09BF0BD
:102E5800D5C09CF0C50E9D6F000E9E6F5EC09FF0A2
:102E6800A06BFBC0A1F0A26B50C0A3F0A46B4FC035
:102E7800A5F0A66B51C0A7F0A86B52C0A9F0AA6B29
:102E88004EC0ABF0AC6B54C0ADF0AE6B53C0AFF0FE
:102E9800B06BFFC0B1F0B26BFAC0B3F0B46B4CC00A
:102EA800B5F0B66B49C0B7F04AC0B8F04DC0B9F03C
:102EB800BA6BF9C0BBF0BC6B8CEC2DF03B2A12004E
:102EC800C70E0001746F7F0E756FAFEC2EF000090E
:102ED800D8B41200E20E0001916F7F0E926FCFEC12
:102EE8002BF0670E0001816F7E0E826F8CEC2DF047
:102EF8003B2A1200EF0E0001746F7F0E756FAFEC66
:102F08002EF00009D8A40AD0860E0001746F7F0E37
:102F1800756FAFEC2EF00009D8B41200030E3B6EAB
:102F2800190E3C6E1200000E3B6E12003B50000A58
:102F3800D8B44BD6010AD8B45AD6030AD8B471D635
:102F4800010AD8B4A3D6070AD8B4B3D6010AD8B4AC
:102F5800DED6030AD8B4F5D6010AD8B4B1D70F0A19
:102F6800D8B4C8D7E0D7E20E0001916F7F0E926FF8
:102F7800CFEC2BF03D0E0001816F7E0E826F8CEC42
:102F88002DF0010E3B6E1200EF0E0001746F7F0EE4
:102F9800756FAFEC2EF00009D8B41200DE0E0001F8
:102FA800916F7F0E926FCFEC2BF0B50E0001816F01
:102FB8007E0E826F8CEC2DF0020E3B6E1200EF0E2F
:102FC8000001746F7F0E756FAFEC2EF00009D8B456
:102FD8001200000E0001D96F000ED66F000ED76FD9
:102FE800000ED96F5CD0D951010D690EF324D96E4A
:102FF800020EF420DA6E220EDE18D8A406D0D751BD
:10300800D8A403D0010ED76F49D0D951010D690E4C
:10301800F324D96E020EF420DA6E220EDE18D8A43C
:103028000ED0D705D8A40BD0D651010DE60EF32447
:10303800D96E010EF420DA6E000EDF6E1200D75141
:10304800D8B42CD0D951010D690EF324D96E020ED3
:10305800F420DA6E3A0EDE18D8B420D0E60E606F8F
:10306800010E616F3DEC2CF00001615117E10C0E6F
:10307800605DD8B013D0D951010D690EF324D96E13
:10308800020EF420DA6ED651010DE60EF324E16E3D
:10309800010EF420E26EDFCFE7FFD62BD92B690EA5
:1030A800606F020E616F3DEC2CF00001D951C36FC7
:1030B800C46B6051C35D6151C459D8B0120093D735
:1030C800000E3B6E12003B50000AD8B44CD7010AE0
:1030D800D8B45AD7030AD8B472D7F2D7000E000171
:1030E800B36F000EB46F000EB56F000EB66F36509A
:1030F800D8A4F3D10A0E366E0A0E356005D0352AEB
:1031080035C0ABF0AC6B04D0000EAC6F000EAB6FEB
:10311800ABC035F0000EB46F000EB56F000EB66F81
:10312800000EB36F0B0EB36501D042D0000E7E6F58
:10313800000E7F6F420E806F000E6F6F610E706F12
:103148003F0E716F000EB1EC29F060C069F061C0EC
:103158006AF0D7EC2EF069C06CF06AC06DF06BC0F5
:103168006EF090EC25F06CC07BF06DC07CF06EC00A
:103178007DF09FEC22F07BC0B0F07CC0B1F07DC048
:10318800B2F0B4C07BF0B5C07CF0B6C07DF0B0C082
:103198007EF0B1C07FF0B2C080F09FEC22F07BC01F
:1031A800B4F07CC0B5F07DC0B6F00001B32BBAD73F
:1031B800B4C087F0B5C088F0B6C089F0000E8A6F39
:1031C800400E8B6F410E8C6F0BEC26F087C0B4F06D
:1031D80088C0B5F089C0B6F0000E0001606F140E0B
:1031E800616F420E626FB4C063F0B5C064F0B6C0E0
:1031F80065F04BEC2AF00001D8B015D0B4C07BF0D4
:10320800B5C07CF0B6C07DF0000E7E6F800E7F6F7B
:103218003F0E806F9FEC22F07BC0A5F07CC0A6F02B
:103228007DC0A7F007D0000E0001A56F000EA66FA5
:10323800000EA76F3550030D210EF324D96E010E31
:10324800F420DA6EA5C0DEFFA6C0DEFFA7C0DEFF51
:10325800000E0001B46F000EB56F000EB66FFB05CF
:10326800D8A47ED0000EAD6F000EAE6F000EAF6F0B
:10327800000EB36F0B0EB36501D0BAD0750E7E6F1A
:10328800530E7F6FBF0E806F000E6F6FA00E706FB2
:103298003B0E716F010EB1EC29F060C069F061C09E
:1032A8006AF0D7EC2EF069C06CF06AC06DF06BC0A4
:1032B8006EF090EC25F06CC07BF06DC07CF06EC0B9
:1032C8007DF09FEC22F07BC087F07CC088F07DC049
:1032D80089F0060E00018A6F010E8B6F3D0E8C6F10
:1032E8000BEC26F087C0ADF088C0AEF089C0AFF017
:1032F800ADC060F0AEC061F0AFC062F0000E00017A
:10330800636F200E646F410E656F4BEC2AF000016D
:10331800D8B00FD0B4C07BF0B5C07CF0B6C07DF09B
:10332800000E7E6F000E7F6F000E806F9FEC22F004
:103338000ED0B4C07BF0B5C07CF0B6C07DF0ADC097
:103348007EF0AEC07FF0AFC080F09FEC22F07BC073
:10335800B4F07CC0B5F07DC0B6F00001B32B8AD7BD
:10336800000EB36F0B0EB36501D042D0000E7E6F16
:10337800000E7F6F420E806F000E6F6F610E706FD0
:103388003F0E716F020EB1EC29F060C069F061C0A8
:103398006AF0D7EC2EF069C06CF06AC06DF06BC0B3
:1033A8006EF090EC25F06CC07BF06DC07CF06EC0C8
:1033B8007DF09FEC22F07BC0B0F07CC0B1F07DC006
:1033C800B2F0B4C07BF0B5C07CF0B6C07DF0B0C040
:1033D8007EF0B1C07FF0B2C080F09FEC22F07BC0DD
:1033E800B4F07CC0B5F07DC0B6F00001B32BBAD7FD
:1033F800B4C087F0B5C088F0B6C089F0000E8A6FF7
:10340800400E8B6F410E8C6F0BEC26F087C0B4F02A
:1034180088C0B5F089C0B6F00001FB05D8A42ED04D
:10342800000E606FC80E616F420E626FB4C063F029
:10343800B5C064F0B6C065F04BEC2AF00001D8B016
:1034480006D0000EB46FC80EB56F420EB66FB4C08A
:1034580060F0B5C061F0B6C062F0000E636F200E78
:10346800646F410E656F4BEC2AF00001D8B006D0AE
:10347800000EB46F000EB56F000EB66FB4C060F0EA
:10348800B5C061F0B6C062F0000E636F200E646FC5
:10349800420E656F4BEC2AF00001D8B003D0FB5107
:1034A800D8B407D0B4C0A8F0B5C0A9F0B6C0AAF087
:1034B80006D0000EA86F000EA96F000EAA6F355037
:1034C800030D000EF324D96E010EF420DA6EA8C0A5
:1034D800DEFFA9C0DEFFAAC0DEFF000EB36F000E3C
:1034E800B46F000EB56F000EB66F000EB36F090E05
:1034F800B36501D01FD0B4C07BF0B5C07CF0B6C0B6
:103508007DF0B351030D210EF324D96E010EF42082
:10351800DA6EDECF7EF0DECF7FF0DDCF80F09FEC7D
:1035280022F07BC0B4F07CC0B5F07DC0B6F00001DD
:10353800B32BDDD7000E8A6F200E8B6F410E8C6F78
:10354800B4C087F0B5C088F0B6C089F00BEC26F09F
:1035580087C096F088C097F089C098F098EC24F05E
:1035680000019651FE6F000EB36F000EB46F000E8F
:10357800B56F000EB66F000EB36F090EB36501D0BC
:103588001FD0B4C07BF0B5C07CF0B6C07DF0B3519D
:10359800030D000EF324D96E010EF420DA6EDECF8F
:1035A8007EF0DECF7FF0DDCF80F09FEC22F07BC095
:1035B800B4F07CC0B5F07DC0B6F00001B32BDDD708
:1035C800000E8A6F200E8B6F410E8C6FB4C087F08F
:1035D800B5C088F0B6C089F00BEC26F087C096F02D
:1035E80088C097F089C098F098EC24F000019651B3
:1035F8005D6E12003C50D8A406D0080E0001FD6F85
:10360800010E436E1200000E0001616F0A0E606F1A
:1036180086EC2EF03AD2E20E0001916F7F0E926F87
:10362800CFEC2BF0590E0001816F7E0E826F8CEC6F
:103638002DF0000E476E3B2A1200EF0E0001746F4A
:103648007F0E756FAFEC2EF00009D8B41200E20EB1
:103658000001916F7F0E926FCFEC2BF04B0E0001A3
:10366800816F7E0E826F8CEC2DF03B2A1200EF0EDC
:103678000001746F7F0E756FAFEC2EF00009D8B49F
:103688001200E20E0001916F7F0E926FCFEC2BF0CB
:10369800860E0001816F7B0E826F8CEC2DF03B2A29
:1036A8001200EF0E0001746F7F0E756FAFEC2EF0F5
:1036B8000009D8B41200E20E0001916F7F0E926FDC
:1036C800CFEC2BF0C50E0001816F7B0E826F8CEC66
:1036D8002DF03B2A1200EF0E0001746F7F0E756FFC
:1036E800AFEC2EF00009D8B41200E20E0001916F81
:1036F8007F0E926FCFEC2BF0450E0001816F7C0E90
:10370800826F8CEC2DF03B2A1200EF0E0001746FD3
:103718007F0E756FAFEC2EF00009D8B41200A90E19
:103728000001916F7F0E926FCFEC2BF03B2AB40E05
:103738003C6E1200950E0001816F010E826FD10E52
:10374800836F7C0E846F08EC2DF0800E0001816F72
:10375800010E826F9D0E836F7D0E846F08EC2DF035
:103768006B0E0001816F010E826F1B0E836F7C0E42
:10377800846F08EC2DF0560E0001816F010E826FE8
:103788003C0E836F7F0E846F08EC2DF0A90E0001AC
:10379800746F7F0E756FAFEC2EF00009D8B412006D
:1037A800010E0001616F900E606F86EC2EF0E20E44
:1037B8000001916F7F0E926FCFEC2BF0060E000187
:1037C800816F7C0E826F8CEC2DF03B2A12007F0EED
:1037D8000001746F7C0E756FAFEC2EF00009D8B441
:1037E8001200E20E0001916F7F0E926FCFEC2BF06A
:1037F800590E0001816F7B0E826F8CEC2DF0000E4C
:103808000001616F640E606F86EC2EF0510E0001AE
:10381800816F780E826FCD0E836F010E846FBE0E9E
:10382800856F010E866FAA0E876F010E886F33C0F1
:1038380089F034C08AF08CEC2DF0030E0001616F22
:10384800200E606F86EC2EF0F20E0001816F7D0E67
:10385800826F8CEC2DF0010E0001616F2C0E606FF1
:1038680086EC2EF0B40E3C6EE60E0001916F7F0ED2
:10387800926FCFEC2BF03B2A1200560E0001816F9D
:10388800010E826F750E836F7E0E846F08EC2DF02B
:10389800E90E0001746F7F0E756FAFEC2EF0000912
:1038A800D8B41200690E0001916F020E926FF20EE9
:1038B800936F7F0E946FCD0E956F010E966FC6ECC9
:1038C80021F0690E0001916F020E926FF80E936F4E
:1038D8007F0E946FBE0E956F010E966FC6EC21F0A9
:1038E800690E0001916F020E926FF50E936F7F0EB5
:1038F800946FAA0E956F010E966FC6EC21F0690EB3
:103908000001916F020E926FAD0E936F7F0E946F50
:10391800E2EC20F091C0E0F092C0E1F00001E0514B
:10392800E111D8B404D0E0C033F0E1C034F0950E12
:10393800816F010E826F120E836F7F0E846FCD0E22
:10394800856F010E866F08EC2DF0800E0001816FE7
:10395800010E826F120E836F7F0E846FBE0E856F0D
:10396800010E866F08EC2DF06B0E0001816F010EC1
:10397800826FB60E836F7F0E846FAA0E856F010E5D
:10398800866F33C087F034C088F008EC2DF0560EEF
:103998000001816F010E826F310E836F7D0E846F7F
:1039A80008EC2DF0950E0001686F010E696F800E0E
:1039B8006A6F010E6B6F6B0E6C6F010E6D6F560E9A
:1039C8006E6F010E6F6FEBEC26F0CD0E0001606F8D
:1039D800010E616F3DEC2CF00001615104E1040E11
:1039E800605DD8A04ED0000EE26F000EE26F0E0EA2
:1039F800E26501D011D0E251010DCD0EF324D96E4C
:103A0800010EF420DA6EDF50636FE251280F4CECA0
:103A18002DF00001E22BEBD7000EE26F0E0EE265EF
:103A280001D011D0E251010DBE0EF324D96E010E62
:103A3800F420DA6EDF50636FE2513C0F4CEC2DF04E
:103A48000001E22BEBD7000EE26F130EE26501D006
:103A580011D0E251010DAA0EF324D96E010EF42003
:103A6800DA6EDF50636FE251500F4CEC2DF000011D
:103A7800E22BEBD733C065F034C066F0690EFDEC7D
:103A88002EF0FFD7000E3B6E12003B50000AD8B450
:103A9800C2D5010AD8B4D1D5030AD8B4E8D5010AE9
:103AA800D8B4FFD5070AD8B416D6010AD8B42DD68B
:103AB800030AD8B43FD6010AD8B489D60F0AD8B4B5
:103AC800DCD6E0D75E50D8A42BD05BA402D08A8A7B
:103AD80001D08A9A8D908C808C92000E0001636FC1
:103AE8000A0E626F000E656F000E646F010E94EC93
:103AF8002AF03904D8A408D00001FC51D8A404D075
:103B0800010EFC6F000E396E0001FC51D8B406D0CE
:103B18005BA402D08B8201D08B9212008B92120090
:103B2800010E396E8A8A5250FEC068F00001696B36
:103B38006827000E6923F6516A6F6B6B68516A5DDE
:103B48006B51800A6C6F6951800A6C59D8B01BD0D0
:103B5800F651686F696B52506A6F6B6B6A1F6B1F07
:103B68006A4B6B2BFE516C6F6D6B6A516C276B51F6
:103B78006D2368516C5D6D51800A6E6F6951800AC2
:103B88006E59D8A025D05250D8B422D0010E606FFB
:103B9800080E32EC2FF0000E0001636F0A0E626F00
:103BA800000E656F000E646F000E5BB2010E94ECA0
:103BB8002AF001014C514D11D8A442D0070E4D6F87
:103BC800080E4C6F5BB202D05B823AD05B9238D061
:103BD800000E0001606F080E32EC2FF04F50F5C058
:103BE80068F00001696B6827000E69235D506A6FF1
:103BF8006B6B68516A5D6B51800A6C6F6951800A02
:103C08006C59D8A00DD054C062F0636B53500A0DA4
:103C1800F3CF64F0F4CF65F0010E94EC2AF010D0E5
:103C28005D500001F55DD8A00BD0000E636FC80E83
:103C3800626F020E656F580E646F000E94EC2AF0E6
:103C48000001FE51D8B43DD05050FEC068F0696BF9
:103C58006827000E6923F6516A6F6B6B68516A5DBD
:103C68006B51800A6C6F6951800A6C59D8A002D0D8
:103C78008D8008D0F651FE5DD8A003D08D908C8041
:103C880002D08D908C905A04D8A41DD05150FEC0FB
:103C980068F0696B6827000E6923F6516A6F6B6BD1
:103CA80068516A5D6B51800A6C6F6951800A6C5962
:103CB800D8A002D08C8208D0F651FE5DD8A004D0DE
:103CC80002D08D908C808C925A04D8A408D0F951D7
:103CD800D8B405D0F9C04EF101014F6B0BD00101EA
:103CE8004E514F11D8A406D00001F951D8B402D0D2
:103CF800010E5A6E0001FC05D8A443D03750D8A451
:103D080040D04E50FEC068F0696B6827000E6923EA
:103D1800F6516A6F6B6B68516A5D6B51800A6C6F04
:103D28006951800A6C59D8B01BD0F651686F696B1D
:103D38004E506A6F6B6B6A1F6B1F6A4B6B2BFE5181
:103D48006C6F6D6B6A516C276B516D2368516C5D9C
:103D58006D51800A6E6F6951800A6E59D8A010D0D3
:103D68000A0E376E8BA202D0010E01D0000EFF0A98
:103D7800686F68478B506819FD0B68198B6E01D006
:103D88008B92FC05D8A408D0FF51D8B405D0FFC049
:103D980050F10101516B0BD0010150515111D8A4C0
:103DA80006D00001FF51D8B402D0010EFC6F00010B
:103DB800FC51D8B48B92F651686F696BFE516A6FEB
:103DC8006B6B030E6A27000E6B2368516A5D6B519B
:103DD800800A6C6F6951800A6C59D8B00CD0010EFA
:103DE800606F100E32EC2FF0000E0001606F200E95
:103DF80032EC2FF031D0FD0E0001686FFF0E696FB5
:103E0800FE516A6F6B6B68516A2769516B23F651D3
:103E18006C6F6D6B6A516C5D6D51800A6E6F6B5182
:103E2800800A6E59D8B00CD0010E606F200E32ECAB
:103E38002FF0000E0001606F100E32EC2FF00CD046
:103E4800000E0001606F200E32EC2FF0000E000112
:103E5800606F100E32EC2FF00001F551686F696B3E
:103E68005D506A6F6B6B030E6A27000E6B236851F7
:103E78006A5D6B51800A6C6F6951800A6C59D8B0C1
:103E88000CD0000E606F010E32EC2FF0010E000115
:103E9800606F020E32EC2FF01200FD0E0001686F09
:103EA800FF0E696F5D506A6F6B6B68516A276951C5
:103EB8006B23F5516C6F6D6B6A516C5D6D51800AA7
:103EC8006E6F6B51800A6E59D8B00CD0010E606FBE
:103ED800010E32EC2FF0000E0001606F020E32EC82
:103EE8002FF01200000E0001606F010E32EC2FF06F
:103EF800000E0001606F020E32EC2FF012003250FB
:103F080009E1020E315CD8B005D0000E326E000E09
:103F1800316E07D03106D8A0320631C031F032C038
:103F280032F0020E376005D0000E196E000E186EC2
:103F380004D0370637C018F0196A18C037F00101E5
:103F48004D5109E1020E4C5DD8B005D0000E4D6F01
:103F5800000E4C6F07D04C07D8A04D074CC14CF150
:103F68004DC14DF1020E366005D0000E1B6E000EDD
:103F78001A6E04D0360636C01AF01B6A1AC036F01C
:103F8800010E536502D0530708D05BB402D05B849E
:103F980001D05B94050E0101536F482A090E48644D
:103FA8001200000E486E462A020E3C6005D0000E34
:103FB8001D6E000E1C6E04D03C063CC01CF01D6A31
:103FC8001CC03CF03B0E46641200515109E1020E40
:103FD800505DD8B005D0000E516F000E506F07D05D
:103FE8005007D8A0510750C150F151C151F14F515C
:103FF80009E1020E4E5DD8B005D0000E4F6F000EDD
:104008004E6F07D04E07D8A04F074EC14EF14FC193
:104018004FF1640E0001F619D8B45BD06E0EF61994
:10402800D8B457D0850EF619D8B453D05E04D8A4A6
:1040380050D0F651116E126A4D50FEC013F0146A3A
:104048001326000E14221150135C1450800A156EAA
:104058001250800A1558D8A03CD04D50116E126AE3
:10406800111E121E114A122AFE51136E146A1150A3
:10407800132612501422F651156E166A1350155C49
:104088001650800A176E1450800A1758D8A021D0ED
:10409800960EF6611ED0FA51D8B41BD05950D8A448
:1040A80018D00101522B0001FA510101525DD8A02C
:1040B80010D0F60E066E000E076E550E086E970E9F
:1040C800096E010E0A6E2B0EFEEC29F0000E01019E
:1040D800526F000E466E452A3B0E45641200000ED4
:1040E800456E442A5950D8A463D00001FA51D8B477
:1040F8005FD05E04D8A45CD0640EF619D8A419D099
:10410800F805D8A416D0382A5750385CD8A050D013
:104118005750D8B44DD0F60E066E000E076E550EE9
:10412800086E970E096E010E0A6E2B0EFEEC29F032
:104138003DD06E0E0001F619D8A41AD0020EF81957
:10414800D8A416D0382A5650385CD8A031D056504A
:10415800D8B42ED0F60E066E000E076E550E086EF9
:10416800970E096E010E0A6E2B0EFEEC29F01ED07A
:10417800850E0001F619D8A419D0030EF819D8A491
:1041880015D0382A5550385CD8A012D05550D8B41C
:104198000FD0F60E066E000E076E550E086E970EBF
:1041A800096E010E0A6E2B0EFEEC29F0000E386E19
:1041B800170E44641200000E446E1200000E000137
:1041C800CD6F000ECC6F21EE42F010EEABF0090E71
:1041D800DBCFE3FFE806FCE222EE55F010EEB5F087
:1041E800130EDBCFE3FFE806FCE222EE41F010EE0F
:1041F80097F0130EDBCFE3FFE806FCE2000ECB6F6F
:10420800C969CA69970E816F000E826FB00E836FFD
:104218007F0E846F93C085F094C086F008EC2DF073
:10422800000E0001CF6F000ECE6F95D0970ECC25F3
:10423800D96E000ECD21DA6ECE519125E16ECF51A7
:104248009221E26EDE50E618D8A435D0CB51D8A41E
:1042580032D0B50E816F000E826FC20E836F7F0E53
:10426800846FB50E856F000E866FCE519125D96E7D
:10427800CF519221DA6EDF50956F9551876F886B19
:1042880008EC2DF00001CC4BCD2BB50E6F6F000E56
:10429800706F970E716F000E726FAEEC27F0000111
:1042A8006F517011D8B454D0000ECD6F000ECC6F82
:1042B800010ECB6F4DD0CB51D8A40FD0000ECD6FCF
:1042C800000ECC6FB50E816F000E826F850E836F66
:1042D8007B0E846F08EC2DF03BD00001CE51912568
:1042E800D96ECF519221DA6E220EDE18D8B414D0CE
:1042F800CE519125D96ECF519221DA6E2C0EDE184F
:10430800D8B40AD0CE519125D96ECF519221DA6E08
:104318007D0EDE18D8A40BD0AB0E666F000E676F4B
:104328007FEC26F066C0C9F067C0CAF011D0000162
:10433800CE519125D96ECF519221DA6EAB0ECC2594
:10434800E16E000ECD21E26EDFCFE7FFCC4BCD2B27
:104358000001CE4BCF2B91C060F092C061F03DECD4
:104368002CF000016051CE5D6151CF59D8B005D015
:10437800C92903E1CA29D8B459D7C9C091F0CAC01C
:1043880092F01200000E0001DC6F000EDB6F22EECF
:1043980000F010EE99F0180EDBCFE3FFE806FCE220
:1043A80022EE2DF010EEC6F0130EDBCFE3FFE80689
:1043B800FCE222EE19F010EEB2F0130EDBCFE3FFB1
:1043C800E806FCE2000EDD6F000EDA6FB20E816FB8
:1043D800000E826F7F0E836F7F0E846F93C085F00F
:1043E80094C086F008EC2DF0000E0001DF6F000E7F
:1043F800DE6F90D0B20EDB25D96E000EDC21DA6EAE
:10440800DE519125E16EDF519221E26EDE50E61811
:10441800D8A435D0DD51D8A432D0C60E816F000E95
:10442800826FC20E836F7F0E846FC60E856F000E7B
:10443800866FDE519125D96EDF519221DA6EDF50F9
:10444800976F9751876F886B08EC2DF00001DB4B55
:10445800DC2BC60E6F6F000E706FB20E716F000E00
:10446800726FAEEC27F000016F517011D8B44FD0C5
:10447800000EDC6F000EDB6F010EDD6F48D0DD51E2
:10448800D8A40FD0000EDC6F000EDB6FC60E816F54
:10449800000E826F850E836F7B0E846F08EC2DF003
:1044A80036D00001DE519125D96EDF519221DA6EA6
:1044B800220EDE18D8A411D0010EDA6F95C081F053
:1044C80096C082F0120E836F7F0E846F990E856FEF
:1044D800000E866F08EC2DF01AD0990E0001816F3E
:1044E800000E826FC20E836F7F0E846F990E856FE8
:1044F800000E866FDE519125D96EDF519221DA6E5A
:10450800DF50976F9751876F886B08EC2DF000018B
:10451800DE4BDF2B91C060F092C061F03DEC2CF0D7
:1045280000016051DE5D6151DF59D8B01200DA51E7
:10453800D8A412005FD77DC081F00001826B836B25
:104548007C35813701E382818151866F80C081F09B
:10455800826B836B7F35813701E382818151856F5F
:104568008651D8B40BD08551865DD8B00ED086510F
:1045780000088525816F180E816507D07EC07BF005
:104588007FC07CF080C07DF012008551D8B40BD07C
:104598008651855DD8B00ED0855100088625816F7B
:1045A800180E816507D07BC07BF07CC07CF07DC095
:1045B8007DF01200060E846F7DBF848F80BF848DCE
:1045C8007C8FFF0E7B17FF0E7C17000E7D177F8FE9
:1045D800FF0E7E17FF0E7F17000E80178551865D30
:1045E800D8B01BD0D8907E377F3780378507865163
:1045F8008519D8B40DD0840784C081F0070E8117BF
:10460800D8B406D0EFD7D8907D337C337B33862B54
:1046180085518619D8B41FD0F6D78651855DD8B094
:104628001AD0D8907B377C377D3786078651851915
:10463800D8B40DD0840784C081F0070E8117D8B490
:1046480006D0EFD7D89080337F337E33852B8551C2
:104658008619D8A4F7D784AF0CD0FF0E7B1BFF0EAA
:104668007C1BFF0E7D1B010E7B27000E7C23000E9A
:104678007D2384AD0CD0FF0E7E1BFF0E7F1BFF0E2B
:10468800801B010E7E27000E7F23000E8023000E64
:10469800846F7B517E277C517F237D51802380AF9F
:1046A8000ED0FF0E7E1BFF0E7F1BFF0E801B010E20
:1046B8007E27000E7F23000E8023010E846F7EC0AC
:1046C80060F07FC061F080C062F086C063F084C093
:1046D80064F066EC28F060C07BF061C07CF062C0DA
:1046E8007DF012000001656F60C0D9FF61C0DAFF7C
:1046F800DF500001646F62C0D9FF63C0DAFFDF508A
:10470800666F3F0E6519D8B41AD027D0CB0E606FEC
:104718007E0E616F1200A90E606F7E0E616F12002F
:10472800C00E606F7E0E616F1200010E606F7F0E0B
:10473800616F1200D60E606F7F0E616F12006451B8
:10474800010AD8B4E3D7030AD8B4E5D7010AD8B424
:10475800E7D7070AD8B4E9D7EDD7460E6519D8A424
:1047680031D0650E666107D060C0D9FF61C0DAFF3D
:10477800010EDF6E1200640E66650AD06F0E666168
:1047880007D060C0D9FF61C0DAFF020EDF6E1200E9
:104798006E0E66650AD0860E666107D060C0D9FFC6
:1047A80061C0DAFF030EDF6E1200850E6665120027
:1047B800A10E6661120060C0D9FF61C0DAFF040E65
:1047C800DF6E1200410E6519D8A41200F805D8A4AE
:1047D80007D062C0D9FF63C0DAFF550EDF6E120042
:1047E800020EF819D8A407D062C0D9FF63C0DAFF57
:1047F800650EDF6E1200030EF819D8A407D062C048
:10480800D9FF63C0DAFF6F0EDF6E1200040EF819CD
:10481800D8A4120062C0D9FF63C0DAFF860EDF6E2B
:10482800120000016E6F68C0D9FF69C0DAFFDF505F
:104838000001796F6AC0D9FF6BC0DAFFDF50776F6C
:104848006CC0D9FF6DC0DAFFDF50786F5CD0FB0514
:10485800D8A40FD0640E796105D0792B79C06FF098
:10486800706B04D0000E706F0A0E6F6F6FC079F016
:104878000ED0780E796105D0792B79C071F0726B02
:1048880004D0000E726F3C0E716F71C079F079C060
:1048980063F0020E4CEC2DF040D00001FB05D8A4CB
:1048A8000FD00A0E796505D0790779C073F0746B5B
:1048B80004D0000E746F640E736F73C079F00ED05D
:1048C8003C0E796505D0790779C075F0766B04D010
:1048D800000E766F780E756F75C079F079C063F049
:1048E800020E4CEC2DF019D077C060F00001616B1E
:1048F80078C062F0636BFBC064F00AEC0BF0000157
:104908006051796F0AD06E512B0AD8B4A0D7060A25
:10491800D8B4C3D76C0AD8B4E7D768C0D9FF69C080
:10492800DAFF79C0DFFF120098C09AF000019B6B94
:104938009C6B97359A3701E39B819A51A46FA451D8
:10494800D8A409D0000E966F000E976F000E986FCE
:10495800000E996F1200170E9A6F96C09BF097C0C1
:104968009CF098C09DF09A299E6F04D0D8909D33F2
:104978009C339B339E2FFAD700019B519F6F978FD3
:10498800FF0E9617FF0E9717000E98179651A06FF7
:104998009751A16F9851A26FA36B8E0EA45FA4AF1D
:1049A80016D0A451800A8F0FD8B009D0000E966F88
:1049B800000E976F000E986F000E996F1200D89036
:1049C800A333A233A133A033A43FF9D715D0170ED0
:1049D800A4650FD0000E966F000E976F000E986FAB
:1049E800000E996F1200D890A037A137A237A337CD
:1049F800A407A451D8A4F7D79F51D8B408D0A31FAF
:104A0800A21FA11FA06D000EA123A223A323A0C053
:104A180096F0A1C097F0A2C098F0A3C099F0120038
:104A28006DD066C0F6FF67C0F7FFF86A070EF76437
:104A380003D00800F55005D0F6CFE9FFF7CFEAFF1D
:104A4800EF500009D8B425D068C0F6FF69C0F7FF59
:104A5800F86A070EF76403D00800F55005D0F6CFC2
:104A6800E9FFF7CFEAFFEF5000016C6F66C0F6FF71
:104A780067C0F7FFF86A070EF76403D00800F5501F
:104A880005D0F6CFE9FFF7CFEAFFEF506C19D8B49D
:104A980030D068C0F6FF69C0F7FFF86A070EF76400
:104AA80003D00800F55005D0F6CFE9FFF7CFEAFFAD
:104AB800EF5000016C6F6D6B6C1F6D1F6C4B6D2B95
:104AC80066C0F6FF67C0F7FFF86A070EF76403D001
:104AD8000800F55005D0F6CFE9FFF7CFEAFFEF5011
:104AE80000016E6F6E516C25666F000E6D21676F49
:104AF80012000001664B672B684B692B00016A079F
:104B0800D8A06B076A298DE16B29D8A48AD7000E33
:104B1800676F000E666F12006EC072F00001736B53
:104B2800746B6D35723701E373817251756F75510E
:104B3800D8A407D0000E6C6F000E6D6F000E6E6F5C
:104B4800120071C072F0736B746B7035723701E3C9
:104B5800738172517A6F7A51D8A407D0000E6C6FA6
:104B6800000E6D6F000E6E6F12007A517B0F752765
:104B78006EC07AF071517A1B800E7A176D8F708F24
:104B8800FF0E6F17FF0E7017000E7117000E766F6D
:104B9800000E776F000E786F070E796F6CA106D044
:104BA8006F5176277051772371517823D8906E33DF
:104BB8006D336C33D8906F3770377137792FEED7E4
:104BC800090E796F6CA106D06F5176277051772343
:104BD80071517823D8906E336D336C33D890783315
:104BE80077337633792FEED776C060F077C061F0EF
:104BF80078C062F075C063F07AC064F066EC28F0A3
:104C080060C06CF061C06DF062C06EF0120089C0C7
:104C18008DF000018E6B8F6B88358D3701E38E81A7
:104C28008D51946F9451D8A407D0000E876F000E51
:104C3800886F000E896F12008CC08DF08E6B8F6BA1
:104C48008B358D3701E38E818D51956F9551D8A4A1
:104C580007D0000E876F000E886F000E896F120054
:104C6800000E916F000E926F000E936F9551890F91
:104C7800945F89C095F08C51951B800E9517888F8D
:104C8800FF0E8717FF0E8817000E89178B8FFF0EF0
:104C98008A17FF0E8B17000E8C17180E906FD8907E
:104CA8009137923793378A51875D8B5188598C5148
:104CB8008959D8A007D08A51875F8B51885B8C515E
:104CC800895B9181D890873788378937902FE7D7C4
:104CD80091C060F092C061F093C062F094C063F03C
:104CE80095C064F066EC28F060C087F061C088F079
:104CF80062C089F0120003D00001664B672B66C0C2
:104D0800D9FF67C0DAFF200EDE18D8B4F5D766C021
:104D1800D9FF67C0DAFF090EDE18D8B4EDD7000E48
:104D280000016C6F000E6B6F000E6A6F66C0D9FFD2
:104D380067C0DAFF2D0EDE18D8A402D06A2B26D061
:104D480066C0D9FF67C0DAFF2B0EDE18D8A420D0C2
:104D58001DD06BC060F06CC061F0000E0001636F85
:104D68000A0E626F9BEC2EF066C0D9FF67C0DAFFAF
:104D7800DF500001686F696B6051682761516923D2
:104D8800D00E68256B6FFF0E69216C6F664B672B21
:104D980066C0D9FF67C0DAFFDF5021EC2FF0D8B02A
:104DA800D8D700016A51D8B40DD06BC068F06CC078
:104DB80069F0681F691F684B692B68C066F069C095
:104DC80067F012006BC066F06CC067F01200010E4D
:104DD8000001636F010E0CEC28F068C064F069C034
:104DE80065F058EC2EF0010E0001636F020E0CEC1A
:104DF80028F06AC064F06BC065F058EC2EF0000E25
:104E08000001636F030E0CEC28F06CC064F06DC0F9
:104E180065F058EC2EF0000E0001636F040E0CECE8
:104E280028F06EC064F06FC065F058EC2EF0000EEC
:104E38000001706F000E706F130E706501D01200C4
:104E48007051010DF3506825D96EF4506921DA6E5E
:104E5800200EDF6E7051010DF3506A25D96EF450A3
:104E68006B21DA6E200EDF6E7051010DF3506C2548
:104E7800D96EF4506D21DA6E200EDF6E7051010D7F
:104E8800F3506E25D96EF4506F21DA6E200EDF6E66
:104E9800702BD2D70600FACF1EF0FBCF1FF0E9CF58
:104EA80020F0EACF21F0E1CF22F0E2CF23F0D9CFF2
:104EB80024F0DACF25F0F3CF26F0F4CF27F0F6CFA1
:104EC80028F0F7CF29F0F8CF2AF0F5CF2BF05FC004
:104ED8002CF060C02DF061C02EF062C02FF0F2A45B
:104EE80007D0F2943C0ED76EB00ED66E83EC1FF04E
:104EF8009EAA05D0AECF30F0305006EC2CF0F0A2D0
:104F080003D0F092C3EC2EF02FC062F02EC061F0F7
:104F18002DC060F02CC05FF02BC0F5FF2AC0F8FF51
:104F280029C0F7FF28C0F6FF27C0F4FF26C0F3FF0B
:104F380025C0DAFF24C0D9FF23C0E2FF22C0E1FF69
:104F480021C0EAFF20C0E9FF1FC0FBFF1EC0FAFF17
:104F58005F9211003FD06FC066F070C067F071C0FB
:104F680068F072C069F071C060F072C061F03DEC29
:104F78002CF060C06AF061C06BF014EC25F0000101
:104F880066516711D8A405D06FC06FF070C070F07B
:104F98001200010E6F25606F000E7021616F71C0E5
:104FA800F6FF72C0F7FFF86A070EF76403D008002F
:104FB800F55005D0F6CFE9FFF7CFEAFFEF50000133
:104FC800736F7351626F636B5FEC2BF060C06FF0AF
:104FD80061C070F000016F517011D8B413D06FC068
:104FE800F6FF70C0F7FFF86A070EF76403D00800F1
:104FF800F55005D0F6CFE9FFF7CFEAFFEF500009EB
:10500800D8A4A9D7000E00016F6F000E706F1200B0
:105018000001646F48D0000163517F0F676F6739E3
:105028000F0B656F67510F0B666F6551EAEC2EF039
:1050380000016651EAEC2EF0120000016351BF0F27
:10504800676F67390F0B656F67510F0B666F655197
:10505800EAEC2EF000016651EAEC2EF01200000195
:105068006351940F676F67390F0B656F67510F0BAB
:10507800666F6551EAEC2EF000016651EAEC2EF0FD
:10508800120000016351D40F676F67390F0B656F0A
:1050980067510F0B666F6551EAEC2EF000016651FF
:1050A800EAEC2EF0120000016451010AD8B4B3D71B
:1050B800030AD8B4C2D7010AD8B4D1D7070AD8A4EA
:1050C8001200DFD700016351D8B405D060516111D7
:1050D8006211D8A40CD0000E606F000E616F000E34
:1050E800626F1200632BD890623361336033000E15
:1050F8006015656F000E6115666FFE0E6215676FAD
:10510800655166116711D8B40CD0ECD7632B010E2A
:105118006027000E6123000E6223D890623361334A
:105128006033000E6015656F000E6115666FFF0E27
:105138006215676F655166116711D8B406D0E6D756
:105148006307D89060376137623761BF03D0020EBA
:105158006361F6D763A1619FD8906333635162138B
:105168006451D8A4628F60C060F061C061F062C011
:1051780062F012000F0EF66E780EF76E20EE67F0F2
:10518800370E0900F5CFDEFFE806FBE2040EEAEC75
:105198002EF0000EEAEC2EF0210EE82EFED700F0DD
:1051A800000E0001A36F000EA26F000EA16F000E8B
:1051B800A36F040EA36501D01200A105D8A402D0E4
:1051C800000EA36F000EA26F070EA26501D025D0B6
:1051D800A151D8A405D0000EA06F000E9F6F17D064
:1051E800A351080D670E646F000E656FF3506427B6
:1051F800F4506523A251010DF3506425D96EF45083
:105208006521DA6EDF50666F66519F6FA06B9F5104
:105218006DEC2DF00001A22BD7D7A12BA32BC9D75A
:1052280000016D6F65C0D9FF66C0DAFFDF5000016D
:105238006A6F6A516E6F6F6B2CD068516A6F6B6BB7
:105248006A516E5D6F51800A6C6F6B51800A6C59A0
:10525800D8B003D06E4B6F2B13D067C06EF017D049
:1052680067516A6F6B6B6E516A5D6B51800A6C6F28
:105278006F51800A6C59D8B008D06E07D8A06F0754
:105288006EC06EF06FC06FF00BD068C06EF06F6BC1
:1052980007D06D512B0AD8B4D0D7060AD8B4E0D7B6
:1052A8006951D8B405D06EC063F069514CEC2DF04B
:1052B80065C0D9FF66C0DAFF6EC0DFFF1200FC0EC2
:1052C800F66E5E0EF76E000EF86E01EEE6F010EE6A
:1052D8000CF00900F5CFEEFFE550E150FAE1470E7A
:1052E800F66E5F0EF76E000EF86E0900F5CFFDF052
:1052F8000900F5CFFEF00900F5CFFFF0440EF66E79
:105308005F0EF76E000EF86E0900F5CF5CF009002D
:10531800F5CF5DF00900F5CF5EF002EE00F0CD0E9E
:10532800EE6AE806FDE101EE00F0E60EEE6AE80638
:10533800FDE100EEF5F0080EEE6AE806FDE15B6AB5
:1053480000EE31F02A0EEE6AE806FDE15F905F920A
:10535800000EF86E000109EF00F00001686F000E02
:10536800C46E000EC36E68C062F00001D890623748
:10537800D89062373C0E6217C250C30B6211C26EDE
:10538800140EE82EFED7C2A204D00001626B622B75
:1053980002D00001626B010E636F622B02D0D890BD
:1053A8006337622FFCD7C2A004D00001646B642B62
:1053B80002D00001646B010E656F642B02D0D89097
:1053C8006537642FFCD7000165516311C212C2B260
:1053D800FED7C350C4CF62F00001636B62C063F0B4
:1053E800626B6211666F6351676F66C060F067C079
:1053F80061F012000E6E06C0D9FF07C0DAFFDF5059
:105408000B6E0B500F6E106A2CD009500B6E0C6A85
:105418000B500F5C1050800A0D6E0C50800A0D580E
:10542800D8B003D00F4A102A13D008C00FF017D0F5
:1054380008500B6E0C6A0F500B5C0C50800A0D6EF6
:105448001050800A0D58D8B008D00F06D8A0100602
:105458000FC00FF010C010F00BD009C00FF0106A89
:1054680007D00E502B0AD8B4D0D7060AD8B4E0D744
:105478000A50D8B405D00FC004F00A50A8EC2DF09B
:1054880006C0D9FF07C0DAFF0FC0DFFF1200000116
:1054980062AF16D060C066F061C067F062C068F0A5
:1054A800661F671F681F662B000E67236823000EA0
:1054B8006625606F000E6721616F800E6821626F3C
:1054C80065AF16D063C066F064C067F065C068F069
:1054D800661F671F681F662B000E67236823000E70
:1054E8006625636F000E6721646F800E6821656F03
:1054F800000E601B000E611B800E621B000E631BFA
:10550800000E641B800E651B6351605D6451615918
:1055180065516259D8B002D0D8901200D8801200D4
:105528000001676F3A5000016719D8B407D0000E20
:10553800326E000E316E67C03AF012006751D8B46F
:1055480006D0010E606F040E32EC2FF006D0000E6C
:105558000001606F040E32EC2FF031503210D8A4E5
:1055680007D0000164516225316E65516321326EA6
:1055780031500001645D32506559D8B015D067517B
:10558800D8A403D0666B662B02D00001666B663B1D
:10559800664789506619DF0B6619896E67B102D0B4
:1055A8008B9401D08B841200899A8B941200959E5B
:1055B800959C959A959895969594000E40EC2EF0AA
:1055C800340E0001636FF10EE82EFED7632FFCD76F
:1055D80000D0030EEAEC2EF00D0E0001636FFB0EF7
:1055E800E82EFED7632FFCD700D0030EEAEC2EF08E
:1055F8001D0E0001636F910EE82EFED7632FFCD7B6
:10560800030EEAEC2EF0020EEAEC2EF0020EEAECA3
:105618002EF0080EEAEC2EF0000EEAEC2EF00C0E3E
:10562800EAEC2EF0000EEAEC2EF0060EEAEC2EF074
:105638001200000E0001686F000E696F000E6A6F9D
:10564800000E6B6F6451651166116711D8B42AD0CA
:10565800010E6C6F06D0D8906437653766376737A8
:105668006C2B67AFF8D7D890683769376A376B37CC
:105678006451605D6551615966516259675163595A
:10568800D8A009D06451605F6551615B6651625B67
:105698006751635B6881D8906733663365336433D9
:1056A8006C2FE1D768C060F069C061F06AC062F031
:1056B8006BC063F0120060C0F6FF61C0F7FFF86AC4
:1056C800070EF76403D00800F55005D0F6CFE9FFC0
:1056D800F7CFEAFFEF5000016219D8A405D060C0E7
:1056E80060F061C061F012006051646F6151656FD4
:1056F800604B612B64C0F6FF65C0F7FFF86A070EC0
:10570800F76403D00800F55005D0F6CFE9FFF7CFCE
:10571800EAFFEF500009D8A4CED7000E0001606F51
:10572800000E616F120093809382280EC66E000EE1
:10573800C56E000E0001606F120E616F7A0E626F07
:10574800000E636F6DC071F06EC072F06FC073F0C1
:1057580070C074F0020ED89071377237733774378F
:10576800E82EF9D771C064F072C065F073C066F0B6
:1057780074C067F01DEC2BF000016005C86E000EC8
:10578800C76E820E0001716FDD0EE82EFED7712FF5
:10579800FCD700D01200000E3F6E000E3E6E000EC9
:1057A8003D6E690E0001606F020E616F000E636F3F
:1057B800000E626F000E656F640E646F28EC2EF0A9
:1057C800DC0E0001816F010E826F120E836F7F0E57
:1057D800846F91C085F092C086F008EC2DF0E20E3F
:1057E80000016F6F7F0E706F91C071F092C072F000
:1057F800AEEC27F000016F517011D8B41200010E01
:105808003F6E1200096E3F50D8B411D03D50010DC3
:10581800690EF324D96E020EF420DA6E09C0DFFF98
:105828003D2A630E3D641200000E3D6E12003E508C
:10583800010DDC0EF324D96E010EF420DA6E095046
:10584800DE18D8A413D03E2ADC0E016E010E026EBB
:10585800BBEC2CF03E50076E086A0150075C025002
:105868000858D8A01200010E3F6E1200000E3E6EBE
:10587800120060C064F061C065F003D00001644BA1
:10588800652B64C0F6FF65C0F7FFF86A070EF7647A
:1058980003D00800F55005D0F6CFE9FFF7CFEAFFAF
:1058A800EF500009D8A4EAD760C062F061C063F085
:1058B8000001621F631F624B632B64516225606F96
:1058C80065516321616F1200000E0001656F000EC3
:1058D800646F62516311D8B41CD0010E666F04D096
:1058E800D89062376337662B63AFFAD7D89064379E
:1058F80065376251605D63516159D8A005D0625126
:10590800605F6351615B6481D89063336233662F53
:10591800EDD764C060F065C061F012000001656FEA
:1059280096EC2FF0000E0001626FA00E616F84EC00
:105938002FF065C061F00001626B84EC2FF08EECF3
:105948002FF0000E0001626FA10E616F84EC2FF042
:10595800000E0001626F000E616FDEEC2DF0000199
:105968006151666F92EC2FF000016651120001C080
:1059780005F002C006F002D0054A062A05C0F6FF67
:1059880006C0F7FFF86A070EF76403D00800F55061
:1059980005D0F6CFE9FFF7CFEAFFEF500009D8A40A
:1059A800EBD701C003F002C004F0031E041E034A33
:1059B800042A05500324016E06500420026E1200CA
:1059C8000001626F15D0BC0E0001606F7F0E616F21
:1059D80012008D0E606F7F0E616F1200D10E606F26
:1059E8007F0E616F1200EC0E606F7F0E616F120008
:1059F80000016251010AD8B4E6D7030AD8B4E9D73E
:105A0800010AD8B4EBD7EFD781C08DF082C08EF0F1
:105A1800000E00018F6F000E906F850E8B6F000EC9
:105A28008C6F8D0E6C6F000E6D6F83C06EF084C02E
:105A38006FF08B0E706F000E716FF3EC12F08DC06B
:105A4800D9FF8EC0DAFF000EDF6E12000001695127
:105A58006A11D8B418D0010E6B6F04D0D89069378A
:105A68006A376B2B6AAFFAD76951675D6A51685913
:105A7800D8A004D06951675F6A51685BD8906A33CF
:105A880069336B2FF1D767C067F068C068F0120000
:105A98000001646F96EC2FF0000E0001626FA00EFB
:105AA800616F84EC2FF064C061F00001626B84ECDC
:105AB8002FF063C061F00001626B84EC2FF092EC70
:105AC8002FF0000E0001616F690E606F86EC2EF0FA
:105AD80012000001636F000163510F0B616F635186
