:0400000007EF00F016
:100008005F8213ED26F028EF28F0929A9494969048
:100018009590949295929480809A829484908390FB
:100028008292839292988998939A8A9A9384F19863
:10003800F190F0889280809092828092928480944D
:10004800810ED56EE40EF26E010EC26E0C0EC16EFC
:10005800B50EC06EE8EC2DF0300E0001816F7F0EFA
:10006800826F51EC2CF0000E0001616FC80E606FBA
:1000780031EC2DF0A0EC29F010EC2EF083EC27F0F9
:10008800400E00016D6F420E6E6F0F0E6F6F000E07
:10009800706F5CEC2AF0000E0001616F960E606FC5
:1000A80031EC2DF0910E0001816F010E826FBA0EB6
:1000B800836F7C0E846FCDEC2BF0670E0001816F8F
:1000C800010E826F800E836F7E0E846FCDEC2BF055
:1000D8005B0E0001816F010E826F0F0E836F7F0E22
:1000E800846F8E0E856F7E0E866FCDEC2BF0910E91
:1000F8000001686F010E696F7C0E6A6F010E6B6FED
:10010800670E6C6F010E6D6F520E6E6F010E6F6F82
:10011800B0EC25F0010E0001616F2C0E606F31EC20
:100128002DF08A8A090E0001616F920E606F31EC22
:100138002DF0010E57EC2BF00001F46F020E57EC76
:100148002BF00001F36F030E57EC2BF00001FB6F4F
:10015800040E57EC2BF00001F66F050E57EC2BF050
:100168000001F56F060E57EC2BF0596E070E57EC91
:100178002BF00001FA6F080E57EC2BF0586E090EA1
:1001880057EC2BF0576E0A0E57EC2BF0566E0B0EF1
:1001980057EC2BF0536E0C0E57EC2BF0526E0D0EE5
:1001A80057EC2BF0516E0E0E57EC2BF00001FC6F44
:1001B8000F0E57EC2BF05A6E100E57EC2BF0000177
:1001C800F76F110E57EC2BF0506E120E57EC2BF008
:1001D800556E140E57EC2BF0546E150E57EC2BF091
:1001E8000001FF6F160E57EC2BF00001F96F170E88
:1001F80057EC2BF04E6E190E57EC2BF00001E16F07
:10020800E1514B6E4C6A1B0E57EC2BF04F6E1C0ED7
:1002180057EC2BF00001F86F000EF26F000EF26F32
:100228000E0EF26501D01ED0F251010DC90EF32455
:10023800D96E010EF420DA6EF251280F57EC2BF02C
:10024800DF6E0001F251010DBA0EF324D96E010ED2
:10025800F420DA6EF2513C0F57EC2BF0DF6E000100
:10026800F22BDED7000EF26F130EF26501D010D01C
:10027800F251010DA60EF324D96E010EF420DA6EA8
:10028800F251500F57EC2BF0DF6E0001F22BECD738
:10029800000EF26F030EF26501D010D0F251010D7D
:1002A800E20EF324D96E010EF420DA6EF251690FD2
:1002B80057EC2BF0DF6E0001F22BECD71E0E57EC3B
:1002C8002BF00001F26FBB0EF219D8B42CD0BB0E84
:1002D800636F1E0E11EC2CF00400520E0001816FAA
:1002E800010E826F9A0E836F7E0E846FCDEC2BF019
:1002F800910E0001686F010E696F7C0E6A6F010E26
:100308006B6F670E6C6F010E6D6F520E6E6F010E84
:100318006F6FB0EC25F00B0E0001616FB80E606FC7
:1003280031EC2DF0D9D7ABA202D0AB98AB88040042
:1003380073EC18F083EC1DF05904D8A410D0F30E18
:100348000001686F000E696FF40E6A6F000E6B6F24
:10035800F50E6C6F000E6D6F410E46EC23F0F60E35
:100368000001606F000E616FF40E626F000E636F24
:10037800460EA7EC22F00A0E0001FD19D8A4DBEC0A
:1003880015F0040EDAEC2DF00009D8B451D35A0E4A
:100398000001656F000E666F000E676F010E686FD3
:1003A8000F0E696F2B0ED9EC27F042D3970E000180
:1003B800816F010E826F1D0E836F7E0E846FCDECF0
:1003C8002BF0020E0101916F0001FC51D8A40AD054
:1003D800910E606F010E616F010E626F020E636F06
:1003E800A2EC2CF0460E0101936F5A50D8A40BD002
:1003F800910E0001606F010E616F020E626F030EB5
:10040800636FA2EC2CF04950D8A405D0000E00016F
:10041800E56F200E04D0000E0001E56F050EE46FB5
:10042800E4C095F1FB51D8A404D0000EE76F200E6C
:1004380003D0000EE76F010EE66FE6C096F17C0E62
:10044800816F010E826F2D0E836F7C0E846FFEC04C
:1004580085F0866BF4C087F0886BCDEC2BF0040E2A
:100468000101816F0001FA51D8A404D0000EE96F90
:10047800460E03D0000EE96F250EE86F670E816FF8
:10048800010E826FD80E836F7B0E846F5DC085F07E
:10049800866BF3C087F0886BE8C089F0E9C08AF002
:1004A800CDEC2BF0030E01016C6F520E0001816F31
:1004B800010E826F1C0E836F7F0E846FF60E606FC5
:1004C800000E616FF40E626F000E636F3F0EA7ECB3
:1004D80022F060C085F061C086F0CDEC2BF05E5054
:1004E800D8A40BD0520E0001816F010E826F560EF8
:1004F800836F7C0E846FCDEC2BF0080EDAEC2DF0B8
:100508000009D8B405D0010E0001FD6F010E456E3B
:10051800020EDAEC2DF00009D8A4442A010EDAEC18
:100528002DF00009D8B40ED0FC0E0001656F000E46
:10053800666F010E676F010E686F0E0E696F2B0EE6
:10054800D9EC27F0100EDAEC2DF00009D8B481D0E0
:10055800FC0E0001656F000E666F000E676F000EDF
:10056800686F0E0E696F2B0ED9EC27F072D07C0ED7
:100578000001606F010E616F0F0E626F140E636FE2
:10058800A2EC2CF0400EDAEC2DF00009D8B40ED015
:10059800F40E0001656F000E666F550E676FA00EB2
:1005A800686F010E696F2B0ED9EC27F0200EDAEC7C
:1005B8002DF00009D8B45DD2F40E0001656F000E6D
:1005C800666F550E676FA00E686F010E696F2D0E6E
:1005D800D9EC27F04ED25950D8A438D0670E000174
:1005E800606F010E616F0F0E626F140E636FA2ECE5
:1005F8002CF0400EDAEC2DF00009D8B410D0F30E30
:100608000001686F000E696FF40E6A6F000E6B6F61
:10061800F50E6C6F000E6D6F2B0E46EC23F0200E5E
:10062800DAEC2DF00009D8B424D2F30E0001686F7B
:10063800000E696FF40E6A6F000E6B6FF50E6C6F2B
:10064800000E6D6F2D0E46EC23F013D2000E446E93
:1006580010D24450010AD8B48AD7030AD8B4BBD7F9
:10066800F5D7920E0001816F010E826F400E836FE5
:100678007D0E846FF4C085F0866BCDEC2BF0000105
:10068800FA51D8A404D0000EEB6F460E03D0000E2A
:10069800EB6F250EEA6F7D0E816F010E826F0E0ED5
:1006A800836F7E0E846FF3C085F0866BEAC087F097
:1006B800EBC088F0CDEC2BF0680E0001816F010EC5
:1006C800826F4B0E836F7F0E846FF60E606F000E85
:1006D800616FF40E626F000E636F3F0EA7EC22F09D
:1006E80060C085F061C086F0CDEC2BF0530E0001A0
:1006F800816F010E826F080E836F7F0E846FF55134
:10070800A9EC2BF060C085F061C086F0CDEC2BF031
:10071800B0D15950D8B405D0D30E0001EC6F7E0E7D
:1007280004D0980E0001EC6F7F0EED6F920E816F72
:10073800010E826F540E836F7F0E846FECC085F0BC
:10074800EDC086F0CDEC2BF00001FB51D8A404D00D
:10075800DE0EEE6F7E0E03D05D0EEE6F7F0EEF6F36
:100768007D0E816F010E826F120E836F7F0E846F74
:10077800EEC085F0EFC086F0CDEC2BF00001FC5107
:10078800D8A404D0F40EF06F7E0E03D09F0EF06F45
:100798007F0EF16F680E816F010E826FE90E836F15
:1007A8007E0E846FF0C085F0F1C086F0CDEC2BF0A2
:1007B800530E0001816F010E826F920E836F7C0EC3
:1007C800846FCDEC2BF055D1920E0001816F010E94
:1007D800826F7E0E836F7C0E846FCDEC2BF07D0EC6
:1007E8000001816F010E826FA60E836F7C0E846FED
:1007F800CDEC2BF03ED1920E0001816F010E826F7D
:10080800AB0E836F7D0E846F4DC085F0866B53C031
:1008180087F0886BCDEC2BF07D0E0001816F010E07
:10082800826FBC0E836F7D0E846FFAC085F0866B75
:10083800F7C087F0886BCDEC2BF0680E0001816F54
:10084800010E826FCD0E836F7D0E846F52C085F0CE
:10085800866B50C087F0886BCDEC2BF0530E0001EF
:10086800816F010E826FDE0E836F7D0E846F51C023
:1008780085F0866B55C087F0886BCDEC2BF0F9D0EE
:10088800920E0001816F010E826F520E836F7D0EF2
:10089800846F54C085F0866B4BC087F04CC088F0DD
:1008A800CDEC2BF07D0E0001816F010E826F640E7E
:1008B800836F7D0E846FFFC085F0866B4FC087F015
:1008C800886BCDEC2BF0680E0001816F010E826FF2
:1008D800760E836F7D0E846FF9C085F0866BF8C045
:1008E80087F0886BCDEC2BF0530E0001816F010E61
:1008F800826F260E836F7F0E846F4EC085F0866BE5
:10090800CDEC2BF0B6D0910E0001816F010E826FF5
:10091800650E836F7F0E846FC90E856F010E866F1B
:10092800CDEC2BF07C0E0001816F010E826F6D0EF5
:10093800836F7F0E846FBA0E856F010E866FCDECC4
:100948002BF0670E0001816F010E826FA60E836F78
:100958007F0E846FE60E856F010E866FCDEC2BF04F
:100968004BC060F04CC061F0000E0001636F270EB1
:10097800626F46EC2DF060C0E2F061C0E3F0520E09
:100988000001816F010E826F420E836F7F0E846FAC
:10099800E2C085F0E3C086F0CDEC2BF06AD0920E71
:1009A8000001816F010E826F6A0E836F7C0E846F67
:1009B800CDEC2BF05ED0FFEC1AF05BD0920E00016C
:1009C800816F010E826F080E836F7D0E846F58C091
:1009D80085F0866BCDEC2BF07D0E0001816F010E4A
:1009E800826F1B0E836F7D0E846F57C085F0866BF8
:1009F800CDEC2BF0680E0001816F010E826FF50EB1
:100A0800836F7C0E846F56C085F0866BCDEC2BF01F
:100A1800520E0001816F010E826F880E836F7D0E6A
:100A2800846FCDEC2BF025D0000E0001FD6F21D096
:100A38000001FD51000AD8B4B9D4010AD8B411D6BE
:100A4800030AD8B466D6010AD8B4BED6060AD8B402
:100A5800D2D6030AD8B414D70E0AD8B454D7010A88
:100A6800D8B49DD7030AD8B4A6D7010AD8B4A6D754
:100A7800DBD70001FD05D8B408D0020EFD19D8B4A3
:100A880004D0030EFD19D8A4C0D1000E446E86D13F
:100A98000A0E80D1010E0001FD6F3E0E0101916F1B
:100AA800400EDAEC2DF00009D8B40ED0F40E000197
:100AB800656F000E666F3C0E676FA00E686F010EC3
:100AC800696F2B0ED9EC27F0200EDAEC2DF0000917
:100AD800D8B487D1F40E0001656F000E666F3C0E26
:100AE800676FA00E686F010E696F2D0ED9EC27F0A5
:100AF80078D13E0E01017C6F5950D8A472D1400EB6
:100B0800DAEC2DF00009D8B410D0F30E0001686FAC
:100B1800000E696FF40E6A6F000E6B6FF50E6C6F46
:100B2800000E6D6F2B0E46EC23F0200EDAEC2DF044
:100B38000009D8B456D1F30E0001686F000E696F32
:100B4800F40E6A6F000E6B6FF50E6C6F000E6D6F12
:100B58002D0E46EC23F045D13E0E0101676F400E85
:100B6800DAEC2DF00009D8B42AD0F60E0001656F32
:100B7800000E666F010E676F040E686F040E696FD2
:100B88002B0ED9EC27F0F60E0001606F000E616F96
:100B9800F40E626F000E636F410EA7EC22F0F30EA5
:100BA8000001686F000E696FF40E6A6F000E6B6FBC
:100BB800F50E6C6F000E6D6F410E46EC23F0200EA3
:100BC800DAEC2DF00009D8B40CD1F60E0001656FEF
:100BD800000E666F010E676F040E686F040E696F72
:100BE8002D0ED9EC27F0F60E0001606F000E616F34
:100BF800F40E626F000E636F410EA7EC22F0F30E45
:100C08000001686F000E696FF40E6A6F000E6B6F5B
:100C1800F50E6C6F000E6D6F410E46EC23F0E1D0BF
:100C2800010E0001FD6F3E0E0101526F400EDAEC1D
:100C38002DF00009D8B40ED0F50E0001656F000E36
:100C4800666F010E676F030E686F050E696F2B0ED6
:100C5800D9EC27F0200EDAEC2DF00009D8B4C1D079
:100C6800F50E0001656F000E666F010E676F030ECB
:100C7800686F050E696F2D0ED9EC27F0B2D0020E01
:100C88000001FD6F3E0E0101916F400EDAEC2DF070
:100C98000009D8A406D0200EDAEC2DF00009D8B44B
:100CA800A0D0590E0001656F000E666F000E676FC9
:100CB800010E686F060E696F2B0ED9EC27F091D0E4
:100CC8003E0E01017C6F400EDAEC2DF00009D8A42D
:100CD80006D0200EDAEC2DF00009D8B482D0FB0E35
:100CE8000001656F000E666F000E676F010E686F7A
:100CF800030E696F2B0ED9EC27F073D03E0E01015D
:100D0800676F400EDAEC2DF00009D8A406D0200E4B
:100D1800DAEC2DF00009D8B464D0FC0E0001656F40
:100D2800000E666F000E676F010E686F0E0E696F1A
:100D38002B0ED9EC27F055D0020E0001FD6F3E0EA8
:100D48000101526F020EDAEC2DF00009D8B449D037
:100D58000B0E0DD0030E0001FD6F3E0E0101916FC9
:100D6800020EDAEC2DF00009D8B43BD0080E0001D1
:100D7800FD6F37D0030E0001FD6F3E0E01017C6F41
:100D8800020EDAEC2DF00009D8B42BD0050E0001C4
:100D9800FD6F02D0456E25D0010EFCD74550000AE4
:100DA800D8B476D6010AD8B475D6030AD8B4A1D671
:100DB800010AD8B4D1D6070AD8B432D7010AD8B4B0
:100DC8005ED7030AD8B47CD7010AD8B497D70F0ADC
:100DD800D8B4B2D7010AD8B4BDD7030AD8B4CAD791
:100DE800DBD7100EDAEC2DF00009D8A4452A010E45
:100DF800DAEC2DF00009D8A44506080EDAEC2DF03F
:100E08000009D8B4F4D3000EF0D3050EFD19D8B4F8
:100E180004D0060EFD19D8A4EED2300E4D18D8B461
:100E2800A3D2010E456EA0D2050E0001FD6F3E0E45
:100E38000101916F400EDAEC2DF00009D8B40ED004
:100E48004D0E0001656F000E666F000E676F320E63
:100E5800686F000E696F2B0ED9EC27F0200EDAECC4
:100E68002DF00009D8B4AFD24D0E0001656F000E09
:100E7800666F000E676F320E686F000E696F2D0E79
:100E8800D9EC27F0A0D23E0E01017C6F400EDAECBF
:100E98002DF00009D8B40ED0FA0E0001656F000ECF
:100EA800666F000E676F010E686F070E696F2B0E75
:100EB800D9EC27F0200EDAEC2DF00009D8B483D253
:100EC800FA0E0001656F000E666F000E676F010E67
:100ED800686F070E696F2D0ED9EC27F074D23E0E9D
:100EE8000101676F400EDAEC2DF00009D8B40ED07E
:100EF800520E0001656F000E666F010E676F0A0ED5
:100F0800686F0C0E696F2B0ED9EC27F0200EDAEC07
:100F18002DF00009D8B457D2520E0001656F000EAB
:100F2800666F010E676F0A0E686F0C0E696F2D0EE3
:100F3800D9EC27F048D23E0E0101526F400EDAEC90
:100F48002DF00009D8B40ED0510E0001656F000EC7
:100F5800666F010E676F0A0E686F0D0E696F2B0EB4
:100F6800D9EC27F0200EDAEC2DF00009D8B42BD2FA
:100F7800510E0001656F000E666F010E676F0A0E55
:100F8800686F0D0E696F2D0ED9EC27F01CD23E0E3E
:100F980001019C6F400EDAEC2DF00009D8B40ED098
:100FA800530E0001656F000E666F010E676F0A0E23
:100FB800686F0B0E696F2B0ED9EC27F0200EDAEC58
:100FC8002DF00009D8B4FFD1530E0001656F000E53
:100FD800666F010E676F0A0E686F0B0E696F2D0E34
:100FE800D9EC27F0F0D13E0E0101876F400EDAEC04
:100FF8002DF00009D8B40ED0F70E0001656F000E71
:10100800666F000E676F0F0E686F100E696F2B0EFC
:10101800D9EC27F0200EDAEC2DF00009D8B4D3D1A2
:10102800F70E0001656F000E666F000E676F0F0EFA
:10103800686F100E696F2D0ED9EC27F0C4D13E0EE3
:101048000101726F400EDAEC2DF00009D8B40ED011
:10105800500E0001656F000E666F010E676F0F0E70
:10106800686F110E696F2B0ED9EC27F0200EDAECA1
:101078002DF00009D8B4A7D1500E0001656F000EFD
:10108800666F010E676F0F0E686F110E696F2D0E78
:10109800D9EC27F098D1050E0001FD6F3E0E010135
:1010A8005D6F400EDAEC2DF00009D8B40ED0550E65
:1010B8000001656F000E666F010E676FFA0E686FAC
:1010C800120E696F2B0ED9EC27F0200EDAEC2DF0FA
:1010D8000009D8B478D1550E0001656F000E666F0F
:1010E800010E676FFA0E686F120E696F2D0ED9EC3C
:1010F80027F069D1060E0001FD6F3E0E0101916FC8
:10110800400EDAEC2DF00009D8B40ED0540E0001D0
:10111800656F000E666F000E676FFA0E686F140E2B
:10112800696F2B0ED9EC27F0200EDAEC2DF00009B0
:10113800D8B449D1540E0001656F000E666F000ED9
:10114800676FFA0E686F140E696F2D0ED9EC27F0D1
:101158003AD13E0E01017C6F400EDAEC2DF0000909
:10116800D8B40ED0FF0E0001656F000E666F000E3A
:10117800676F1E0E686F150E696F2B0ED9EC27F07E
:10118800200EDAEC2DF00009D8B41DD1FF0E0001B5
:10119800656F000E666F000E676F1E0E686F150E86
:1011A800696F2D0ED9EC27F00ED13E0E0101676F45
:1011B800400EDAEC2DF00009D8B40ED0F90E00017B
:1011C800656F000E666F000E676FFA0E686F160E79
:1011D800696F2B0ED9EC27F0200EDAEC2DF0000900
:1011E800D8B4F1D0F90E0001656F000E666F000EDD
:1011F800676FFA0E686F160E696F2D0ED9EC27F01F
:10120800E2D03E0E0101526F400EDAEC2DF00009DB
:10121800D8B40ED04E0E0001656F000E666F000E3A
:10122800676F010E686F170E696F2B0ED9EC27F0E8
:10123800200EDAEC2DF00009D8B4C5D04E0E00010E
:10124800656F000E666F000E676F010E686F170EF0
:10125800696F2D0ED9EC27F0B6D03E0E01019C6FB8
:10126800400EDAEC2DF00009D8B40ED04B0E000178
:10127800656F000E666F010E676FFA0E686F190EC4
:10128800696F2B0ED9EC27F0200EDAEC2DF000094F
:10129800D8B499D04B0E0001656F000E666F010E31
:1012A800676FFA0E686F190E696F2D0ED9EC27F06B
:1012B8008AD03E0E0101876F400EDAEC2DF000094E
:1012C800D8B40ED04F0E0001656F000E666F000E89
:1012D800676F0F0E686F1B0E696F2B0ED9EC27F026
:1012E800200EDAEC2DF00009D8B46DD04F0E0001B5
:1012F800656F000E666F000E676F0F0E686F1B0E2E
:10130800696F2D0ED9EC27F05ED03E0E0101726F89
:10131800400EDAEC2DF00009D8B40ED0F80E00011A
:10132800656F000E666F000E676F3C0E686F1C0ECF
:10133800696F2B0ED9EC27F0200EDAEC2DF000099E
:10134800D8B441D0F80E0001656F000E666F000E2C
:10135800676F3C0E686F1C0E696F2D0ED9EC27F075
:1013680032D0010E456E2FD04550010AD8B45CD555
:10137800030AD8B488D5010AD8B4B1D5070AD8B4B5
:10138800DAD5010AD8B403D6030AD8B42CD6010A90
:10139800D8B455D60F0AD8B47ED6010AD8B4AAD67E
:1013A800030AD8B4D6D6010AD8B4FFD6070AD8B4E7
:1013B80028D7010AD8B451D7030AD8B47AD7010A72
:1013C800D8B4A3D7CED7100EDAEC2DF00009D8A4E4
:1013D800452A010EDAEC2DF00009D8A44506080EBE
:1013E800DAEC2DF00009D8B402D1000E0001FD6F2F
:1013F800000E4D6EFCD0080EFD19D8B430D0090E81
:10140800FD19D8B42CD047D0080E0001FD6F2FD09D
:10141800090E0001FD6F3E0E0101916F020EDAEC1C
:101428002DF00009D8B423D08988000E0001616F1F
:10143800640E606F31EC2DF08998030E0001616F26
:10144800200E606F31EC2DF00A0E0001FD6F000ECA
:101458003D6E0F0E3E6E0BD0010E456E08D0455006
:10146800010AD8B4D1D7030AD8B4D2D7F5D7100E09
:10147800DAEC2DF00009D8A4452A010EDAEC2DF09B
:101488000009D8A44506080EDAEC2DF00009D8B4F6
:10149800AED0030EAAD00B0EFD19D8B488D0A7D0B1
:1014A8003E0E0101916F400EDAEC2DF00009D8B420
:1014B8000ED0580E0001656F000E666F000E676F44
:1014C8001E0E686F080E696F2B0ED9EC27F0200EE0
:1014D800DAEC2DF00009D8B475D0580E0001656F0C
:1014E800000E666F000E676F1E0E686F080E696F3C
:1014F8002D0ED9EC27F066D03E0E01017C6F400E10
:10150800DAEC2DF00009D8B40ED0570E0001656F43
:10151800000E666F000E676F1E0E686F090E696F0A
:101528002B0ED9EC27F0200EDAEC2DF00009D8B4F8
:1015380049D0570E0001656F000E666F000E676F89
:101548001E0E686F090E696F2D0ED9EC27F03AD080
:101558003E0E0101676F400EDAEC2DF00009D8B499
:101568000ED0560E0001656F000E666F000E676F95
:101578001E0E686F0A0E696F2B0ED9EC27F0200E2D
:10158800DAEC2DF00009D8B41DD0560E0001656FB5
:10159800000E666F000E676F1E0E686F0A0E696F89
:1015A8002D0ED9EC27F00ED0010E456E0BD045500C
:1015B800010AD8B475D7030AD8B49ED7010AD8B49B
:1015C800C7D7F2D7100EDAEC2DF00009D8A4452AB7
:1015D800010EDAEC2DF00009D8A44506080EDAEC65
:1015E8002DF00009D8B403D0020E0001FD6FBBEC4A
:1015F8002CF0910E0001686F010E696F7C0E6A6F06
:10160800010E6B6F670E6C6F010E6D6F520E6E6F71
:10161800010E6F6FB0EC25F097EF01F0000E00019E
:10162800676F6451D8B406D31AD361BF06D061512D
:1016380006E15B0E605DD8B002D0550E4BD05B0E54
:1016480060196111D8A402D0560E44D05C0E6019FE
:101658006111D8A402D0570E3DD05D0E60196111FA
:10166800D8A402D0580E36D05E0E60196111D8A4E5
:1016780002D0590E2FD05F0E60196111D8A402D084
:101688005A0E28D0600E60196111D8A402D05B0EE2
:1016980021D0610E60196111D8A402D05C0E1AD055
:1016A800620E60196111D8A402D05D0E13D0630ECA
:1016B80060196111D8A402D05E0E0CD0640E6019B6
:1016C8006111D8B4A6EF0FF0650E60196111D8A4A6
:1016D80004D0F2D7676FF7EF12F061BF0ED06151F7
:1016E80004E1660E605DD8A008D061BFE5D76151FE
:1016F80004E16C0E605DD8A0DFD761BF10D06151E6
:1017080004E16C0E605DD8A00AD061BFA6EF0FF0AF
:10171800615105E1770E605DD8A0A6EF0FF0770E56
:1017280060196111D8B499EF0FF0780E6019611142
:10173800D8B4FBD3790E60196111D8B4EED37A0E00
:1017480060196111D8B4E9D37B0E60196111D8B45E
:1017580032EF11F07C0E60196111D8B432EF11F03C
:101768007D0E60196111D8B41FEF11F07E0E60195B
:101778006111D8B41FEF11F07F0E60196111D8B450
:1017880017EF11F0800E60196111D8B417EF11F03E
:10179800810E60196111D8B4BBD1820E6019611134
:1017A800D8B4B6D1830E60196111D8B4BDD1840EF6
:1017B80060196111D8B4B8D1850E60196111D8B417
:1017C800BFD1860E60196111D8B4BAD161BF0ED0ED
:1017D800615104E1870E605DD8A008D061BFEDD0EB
:1017E800615104E1930E605DD8A0E7D061BF0ED0CF
:1017F800615104E1930E605DD8A008D061BFB2D1F9
:10180800615104E1970E605DD8A0ACD1970E6019C4
:101818006111D8B4B3D1980E60196111D8B4AED1A2
:10182800990E60196111D8B4B5D19A0E6019611179
:10183800D8B4C2D19B0E60196111D8B4BDD19C0E29
:1018480060196111D8B4C4D19D0E60196111D8B462
:10185800BFD19E0E60196111D8B4E4D09F0E6019F3
:101868006111D8B4DFD061BFF7EF12F0615101E127
:10187800E0D0C6D161BFF6D6615104E15B0E605D70
:10188800D8A0F0D65B0E60196111D8B4F2D65C0E00
:1018980060196111D8B4F4D65D0E60196111D8B41D
:1018A800F6D65E0E60196111D8B4F8D65F0E6019CD
:1018B8006111D8B4FAD6600E60196111D8B4FCD69B
:1018C800610E60196111D8B43DD361BF0ED061516A
:1018D80004E1620E605DD8A008D061BF26D36151D3
:1018E80004E1650E605DD8A020D361BF0ED06151C0
:1018F80004E1650E605DD8A008D061BF0ED36151C8
:1019080004E1780E605DD8A008D361BF10D06151A2
:1019180004E1780E605DD8A00AD061BF32EF11F003
:10192800615105E17B0E605DD8A032EF11F07B0EAE
:1019380060196111D8B41FEF11F07C0E60196111A4
:10194800D8B41FEF11F07D0E60196111D8B417EFEC
:1019580011F07E0E60196111D8B417EF11F07F0EE7
:1019680060196111D8B4D4D0800E60196111D8B44F
:10197800CFD0810E60196111D8B4D6D0820E60190B
:101988006111D8B4D1D0830E60196111D8B4D8D000
:10199800840E60196111D8B4D3D061BF10D06151E1
:1019A80004E1850E605DD8A00AD061BF06D0615100
:1019B80006E1950E605DD8B002D0680E8BD661BF87
:1019C8000ED0615104E1950E605DD8A008D061BFCA
:1019D800C9D0615104E1990E605DD8A0C3D0990EB9
:1019E80060196111D8B4CAD09A0E60196111D8B4BF
:1019F800D1D09B0E60196111D8B4DED09C0E60194D
:101A08006111D8B4D9D09D0E60196111D8B4E0D055
:101A18009E0E60196111D8B4DBD09F0E6019611158
:101A2800D8A402D06E0E56D661BFF7EF12F06151FE
:101A380005E1A00E605DD8A0F7EF12F0E1D061BF1C
:101A48001FD6615104E15B0E605DD8A019D65B0E0C
:101A580060196111D8B41BD65C0E60196111D8B435
:101A68001DD65D0E60196111D8B41FD65E0E6019BF
:101A78006111D8B421D65F0E60196111D8B462D251
:101A8800600E60196111D8B45DD2610E60196111E0
:101A9800D8B44BD2620E60196111D8B446D2630E25
:101AA80060196111D8B439D261BF0ED0615104E117
:101AB800640E605DD8A008D061BFD0D3615104E145
:101AC800680E605DD8A0CAD3680E60196111D8B4D9
:101AD800B2D3690E60196111D8B4ADD361BF0ED00D
:101AE800615104E16A0E605DD8A008D061BF9BD344
:101AF800615104E17B0E605DD8A095D37B0E60191F
:101B08006111D8B405D07C0E60196111D8A402D037
:101B1800650EE0D57D0E60196111D8B405D07E0E32
:101B280060196111D8A402D0660ED4D57F0E601951
:101B38006111D8B405D0800E60196111D8A402D003
:101B4800670EC8D561BF10D0615104E1810E605D98
:101B5800D8A00AD061BF06D0615106E18B0E605D46
:101B6800D8B002D0690EB6D58B0E60196111D8B401
:101B780005D08C0E60196111D8A402D06A0EAAD5BE
:101B88008D0E60196111D8B405D0920E60196111DB
:101B9800D8A402D06B0E9ED561BF10D0615104E16C
:101BA800930E605DD8A00AD061BF06D0615106E1EE
:101BB800980E605DD8B002D06C0E8CD5990E601965
:101BC8006111D8B405D0980E60196111D8A402D05B
:101BD8006D0E80D59B0E60196111D8B405D09A0E90
:101BE80060196111D8A402D06F0E74D59D0E6019CA
:101BF8006111D8B405D09C0E60196111D8A402D027
:101C0800700E68D59F0E60196111D8B405D09E0E6C
:101C180060196111D8A402D0710E5CD561BFF7EFCD
:101C280012F0615105E1A00E605DD8A0F7EF12F047
:101C3800730E50D562C065F063C066F06651000A45
:101C4800D8A4F7EF12F06551010AD8B4EED4030A0C
:101C5800D8B410D6010AD8B4F2D6F7EF12F064055A
:101C6800D8B4ECEF12F0F7EF12F061BF17D561515D
:101C780004E15B0E605DD8A011D55B0E601961119F
:101C8800D8B40CD55C0E60196111D8B4F9D45D0EC6
:101C980060196111D8B4EDD461BF0ED0615104E16F
:101CA8005E0E605DD8A008D061BFDCD4615104E14C
:101CB800650E605DD8A0D6D461BF0ED0615104E135
:101CC800650E605DD8A008D061BFFED2615104E105
:101CD800670E605DD8A0F8D2670E60196111D8B49C
:101CE80003D3680E60196111D8B406D3690E601960
:101CF8006111D8B479D16A0E60196111D8B40FD3C3
:101D08006B0E60196111D8B412D36C0E6019611191
:101D1800D8A402D0430EDED46D0E60196111D8B478
:101D28000ED36E0E60196111D8B47ED161BF0ED08A
:101D3800615104E16F0E605DD8A008D061BF17D370
:101D4800615104E1730E605DD8A011D3730E601960
:101D58006111D8B414D3740E60196111D8B417D3B3
:101D6800750E60196111D8A402D0360EB3D4760E60
:101D780060196111D8B423D3770E60196111D8B4F2
:101D880026D3780E60196111D8B48DD1790E6019F7
:101D98006111D8B42CD37A0E60196111D8A402D07D
:101DA8002E0E98D47B0E60196111D8B428D37C0EFE
:101DB80060196111D8B489D17D0E60196111D8B448
:101DC80026D37E0E60196111D8B487D17F0E6019B1
:101DD8006111D8B42CD3800E60196111D8B427D3FF
:101DE800810E60196111D8B42AD3820E601961116D
:101DF800D8A402D0260E6ED4830E60196111D8B40F
:101E080026D3840E60196111D8B429D3850E6019C0
:101E18006111D8B424D3860E60196111D8B41FD3C8
:101E2800870E60196111D8B422D3880E6019611128
:101E3800D8B425D3890E60196111D8B428D38A0E75
:101E480060196111D8B42BD38B0E60196111D8B405
:101E58002ED38C0E60196111D8B431D38D0E601950
:101E68006111D8B434D38E0E60196111D8B437D348
:101E78008F0E60196111D8B43AD3900E60196111B0
:101E8800D8B43DD3910E60196111D8B440D3920EE5
:101E980060196111D8B443D3930E60196111D8B495
:101EA80046D3940E60196111D8B449D3950E6019C0
:101EB8006111D8B44CD3960E60196111D8B44FD3C0
:101EC800970E60196111D8B452D3980E6019611138
:101ED800D8B455D361BF0ED0615104E1990E605D4D
:101EE800D8A008D061BF5ED3615104E19D0E605D4A
:101EF800D8A058D39D0E60196111D8B45BD361BFC7
:101F080072D3615101E182D160D361BF06D06151C2
:101F180007E15B0E605DD8B003D0610E6EEF0BF089
:101F28005B0E60196111D8A403D0600E6EEF0BF040
:101F38005C0E60196111D8B405D05C0E601961118E
:101F4800D8A403D05F0E6EEF0BF05D0E601961111F
:101F5800D8B460EF0BF061BF10D0615104E15E0EA0
:101F6800605DD8A00AD061BF59EF0BF0615105E15F
:101F7800650E605DD8A059EF0BF061BF11D06151BB
:101F880004E1650E605DD8A00BD061BF06D0615139
:101F980007E1670E605DD8B003D0530E6EEF0BF00B
:101FA800670E60196111D8A403D0510E6EEF0BF0C3
:101FB800680E60196111D8B47FD1690E601961117A
:101FC800D8B48AD16A0E60196111D8B495D16B0E54
:101FD80060196111D8A403D0490E6EEF0BF06C0E96
:101FE80060196111D8A403D0480E6EEF0BF06D0E86
:101FF80060196111D8A403D0470E6EEF0BF06E0E76
:1020080060196111D8B48BD161BF11D0615104E15D
:102018006F0E605DD8A00BD061BF06D0615107E19B
:10202800730E605DD8B003D0410E6EEF0BF0730EE7
:1020380060196111D8A403D03F0E6EEF0BF0740E37
:1020480060196111D8A403D03D0E6EEF0BF0750E28
:1020580060196111D8A403D03B0E6EEF0BF0760E19
:1020680060196111D8A403D0390E6EEF0BF0770E0A
:1020780060196111D8B493D1780E60196111D8B480
:1020880096D1790E60196111D8A403D0330E6EEF82
:102098000BF07A0E60196111D8B499D17B0E6019D2
:1020A8006111D8A403D0300E6EEF0BF07C0E6019CE
:1020B8006111D8B49CD17D0E60196111D8B49FD13B
:1020C8007E0E60196111D8A403D02C0E6EEF0BF0B0
:1020D8007F0E60196111D8A403D02A0E6EEF0BF0A1
:1020E800800E60196111D8B49AD1810E60196111FE
:1020F800D8B495D1820E60196111D8B498D1830EE5
:1021080060196111D8B493D1840E60196111D8B4E3
:1021180096D1850E60196111D8B491D1860E6019D7
:102128006111D8B49CD1870E60196111D8B49FD1C0
:10213800880E60196111D8B4A2D1890E6019611195
:10214800D8B4A5D18A0E60196111D8B4A8D18B0E64
:1021580060196111D8B4ABD18C0E60196111D8B473
:10216800AED18D0E60196111D8B4B1D18E0E60193F
:102178006111D8B4B4D18F0E60196111D8B4B7D138
:10218800900E60196111D8B4BAD1910E601961111D
:10219800D8B4BDD1920E60196111D8B4C0D1930ED4
:1021A80060196111D8B4C3D1940E60196111D8B403
:1021B800C6D1950E60196111D8B4C9D1960E6019AF
:1021C8006111D8B4CCD1970E60196111D8B4CFD1B0
:1021D800980E60196111D8B4D2D161BF0ED0615187
:1021E80004E1990E605DD8A008D061BFDBD16151D0
:1021F80004E19D0E605DD8A0D5D19D0E60196111D6
:10220800D8B4D8D161BFEFD1615104E19E0E605DB1
:10221800D8A0E9D1DAD161BF06D0615107E15D0EDE
:10222800605DD8B003D0640E6EEF0BF05D0E6019E0
:102238006111D8A403D0630E6EEF0BF061BF11D00B
:10224800615104E15E0E605DD8A00BD061BF06D07D
:10225800615107E1650E605DD8B003D0620E6EEF84
:102268000BF061BF10D0615104E1650E605DD8A02C
:102278000AD061BF36EF0BF0615105E1670E605D72
:10228800D8A036EF0BF0670E60196111D8B428EFAB
:102298000BF0680E60196111D8B421EF0BF0690ECC
:1022A80060196111D8A403D0520E6EEF0BF06A0EBC
:1022B80060196111D8A403D0500E6EEF0BF06B0EAD
:1022C80060196111D8A403D04E0E6EEF0BF06C0E9E
:1022D80060196111D8A403D04D0E6EEF0BF06D0E8E
:1022E80060196111D8A403D04C0E6EEF0BF06E0E7E
:1022F80060196111D8A403D04B0E6EEF0BF061BFCB
:1023080011D0615104E16F0E605DD8A00BD061BFA0
:1023180006D0615107E1730E605DD8B003D0460E58
:102328006EEF0BF0730E60196111D8A403D0440E40
:102338006EEF0BF0740E60196111D8A403D0420E31
:102348006EEF0BF0750E60196111D8A403D0400E22
:102358006EEF0BF0760E60196111D8A403D03E0E13
:102368006EEF0BF0770E60196111D8A403D03C0E04
:102378006EEF0BF0780E60196111D8A403D03A0EF5
:102388006EEF0BF0790E60196111D8A403D0380EE6
:102398006EEF0BF07A0E60196111D8A403D0370ED6
:1023A8006EEF0BF07B0E60196111D8A403D0350EC7
:1023B8006EEF0BF07C0E60196111D8A403D0340EB7
:1023C8006EEF0BF07D0E60196111D8A403D0320EA8
:1023D8006EEF0BF07E0E60196111D8A403D0310E98
:1023E8006EEF0BF07F0E60196111D8A403D02F0E89
:1023F8006EEF0BF0800E60196111D8A403D02D0E7A
:102408006EEF0BF0810E60196111D8A403D02B0E6A
:102418006EEF0BF0820E60196111D8A403D0290E5B
:102428006EEF0BF0830E60196111D8A403D0280E4B
:102438006EEF0BF0840E60196111D8A403D0270E3B
:102448006EEF0BF0850E60196111D8A403D0250E2C
:102458006EEF0BF0860E60196111D8A403D0240E1C
:102468006EEF0BF0870E60196111D8A403D0230E0C
:102478006EEF0BF0880E60196111D8A403D0220EFC
:102488006EEF0BF0890E60196111D8A403D0210EEC
:102498006EEF0BF08A0E60196111D8A403D0200EDC
:1024A8006EEF0BF08B0E60196111D8A403D01F0ECC
:1024B8006EEF0BF08C0E60196111D8A403D01E0EBC
:1024C8006EEF0BF08D0E60196111D8A403D01D0EAC
:1024D8006EEF0BF08E0E60196111D8A403D01C0E9C
:1024E8006EEF0BF08F0E60196111D8A403D01B0E8C
:1024F8006EEF0BF0900E60196111D8A403D01A0E7C
:102508006EEF0BF0910E60196111D8A403D0190E6B
:102518006EEF0BF0920E60196111D8A403D0180E5B
:102528006EEF0BF0930E60196111D8A403D0170E4B
:102538006EEF0BF0940E60196111D8A403D0160E3B
:102548006EEF0BF0950E60196111D8A403D0150E2B
:102558006EEF0BF0960E60196111D8A403D0140E1B
:102568006EEF0BF0970E60196111D8A403D0130E0B
:102578006EEF0BF0980E60196111D8A403D0120EFB
:102588006EEF0BF061BF11D0615104E1990E605DEF
:10259800D8A00BD061BF06D0615107E19D0E605DE8
:1025A800D8B003D0110E6EEF0BF09D0E60196111BB
:1025B800D8A403D0100E6EEF0BF061BF14D0615198
:1025C80004E19E0E605DD8A00ED00F0E6EEF0BF0EA
:1025D800F551010AD8B439EF0EF0030AD8B495D4EE
:1025E800010AD8B418D667C060F0616B1200CCD26B
:1025F800250E00018019D8B433D020EE02F06C51BA
:10260800D9266D51DA22DE50DE10D8B413D020EE70
:1026180002F06C51D9266D51DA2201D8B5D20500E5
:10262800FA6EDE50FD6EDE50FE6EF850FF6EFA5008
:10263800805112006CC0D9FF6DC0DAFFDECF72F096
:10264800DDCF73F072C0D9FF73C0DAFF80C0DFFF3F
:102658006CC0D9FF6DC0DAFFDE2A000EDD2294D2ED
:10266800000E00017F6F000E7E6F000E776F6EC048
:10267800F6FF6FC0F7FF0800F550BAEC2DF0D8A0B0
:102688003CD1000E00017F6F000E7E6F7EC060F0AF
:102698007FC061F0000E0001636F0A0E626F46ECA6
:1026A8002DF060C07EF061C07FF0D00E0001726F27
:1026B800FF0E736F6EC0F6FF6FC0F7FF0800F5508E
:1026C800746F756B725174277351752374517E271B
:1026D80075517F236E4B6F2B6EC0F6FF6FC0F7FFEF
:1026E8000800F550BAEC2DF0D8A007D1CFD770C0AC
:1026F800D9FF71C0DAFFDFCF72F0020EDE26DFCF1E
:1027080073F0000EDD2272C0D9FF73C0DAFFDECF8E
:102718007CF0DDCF7DF000017C517D11D8A404D080
:10272800750E7C6F7F0E7D6F000E7B6F000E7A6FCB
:1027380003D000017A4B7B2B7A517C25726F7B5139
:102748007D21736F72C0F6FF73C0F7FFF86A070E3A
:10275800F76403D00800F55005D0F6CFE9FFF7CFAE
:10276800EAFFEF500009D8A4E4D700017E517A5D52
:102778007F517B59D8B005D07A517E5F7B517F5B02
:1027880037D0000E7F6F000E7E6F32D020EE02F041
:102798006C51D9266D51DA22DE50DE10D8B413D030
:1027A80020EE02F06C51D9266D51DA2201D820D0E2
:1027B8000500FA6EDE50FD6EDE50FE6EF850FF6EBC
:1027C800FA50200E12006CC0D9FF6DC0DAFFDECFC0
:1027D80072F0DDCF73F072C0D9FF73C0DAFF200E3C
:1027E800DF6E6CC0D9FF6DC0DAFFDE2A000EDD2275
:1027F80000017E07D8A07F077E29C8E17F29D8B4C9
:1028080058D0C4D720EE02F06C51D9266D51DA2287
:10281800DE50DE10D8B426D020EE02F06C51D92656
:102828006D51DA2201D81AD00500FA6EDE50FD6E1D
:10283800DE50FE6EF850FF6EFA507CC0F6FF7DC089
:10284800F7FFF86A070EF76403D00800F55005D0C3
:10285800F6CFE9FFF7CFEAFFEF50120000017C4BFB
:102868007D2B27D07CC0F6FF7DC0F7FFF86A6CC0CF
:10287800D9FF6DC0DAFFDECF72F0DDCF73F072C022
:10288800D9FF73C0DAFF070EF76403D00800F550CC
:1028980005D0F6CFE9FFF7CFEAFFEF50DF6E000172
:1028A8007C4B7D2B6CC0D9FF6DC0DAFFDE2A000E91
:1028B800DD227A07D8A07B077A29A4E17B29D8B43E
:1028C80063D1A0D770C0D9FF71C0DAFFDFCF72F033
:1028D800020EDE26DFCF73F0000EDD2272C0D9FFB4
:1028E80073C0DAFFDF50806F800E7C6F000E7D6F43
:1028F800000E7B6F010E7A6F38D76EC0F6FF6FC07F
:10290800F7FF00016E4B6F2B0800F5CF80F0805168
:10291800000AD8B446D1630AD8B4D4D7070AD8B4C1
:1029280007D00D0AD8B404D01A0AD8B4E0D6DCD738
:1029380070C0D9FF71C0DAFFDFCF72F0020EDE2659
:10294800DFCF73F0000EDD2272C0D9FF73C0DAFF4B
:10295800DECF78F0DDCF79F0000179AF06D0030E35
:102968007713786D791FD8B0792B010E806F050E1B
:102978008019D8B412D08051020D650EF324F66E7A
:10298800780EF420F76E0900F550785D0900F550CF
:102998007959D8A002D0802BEAD77E517F11D8B4BC
:1029A80009D077C072F0030E7217D8B403D07E072F
:1029B800D8A07F07800E80BF7F0E726F7E51805D2A
:1029C8007F51800A7259D8B007D080517E5F000EBF
:1029D80080BFFF0E7F5B04D0000E7F6F000E7E6FFE
:1029E8007E517F11D8B43AD020EE02F06C51D9262E
:1029F8006D51DA22DE50DE10D8B413D020EE02F08A
:102A08006C51D9266D51DA2201D820D00500FA6E12
:102A1800DE50FD6EDE50FE6EF850FF6EFA50200E4E
:102A280012006CC0D9FF6DC0DAFFDECF72F0DDCFC7
:102A380073F072C0D9FF73C0DAFF200EDF6E6CC06E
:102A4800D9FF6DC0DAFFDE2A000EDD2200017E0705
:102A5800D8A07F077E517F11D8A4C6D777C072F05F
:102A6800030E7217D8B432D020EE02F06C51D9267A
:102A78006D51DA22DE50DE10D8B413D020EE02F009
:102A88006C51D9266D51DA2201D820D00500FA6E92
:102A9800DE50FD6EDE50FE6EF850FF6EFA502D0EC1
:102AA80012006CC0D9FF6DC0DAFFDECF72F0DDCF47
:102AB80073F072C0D9FF73C0DAFF2D0EDF6E6CC0E1
:102AC800D9FF6DC0DAFFDE2A000EDD2280C076F065
:102AD80056D000017651020D650EF324F66E780E7D
:102AE800F420F76E0900F5CF62F00A00F5CF63F025
:102AF80078C060F079C061F02DEC2BF060C067F011
:102B080061C068F0000E00016A6F0A0E696FEFEC91
:102B18002BF000016751300F806F20EE02F06C51EE
:102B2800D9266D51DA22DE50DE10D8B413D020EE4B
:102B380002F06C51D9266D51DA2201D820D0050057
:102B4800FA6EDE50FD6EDE50FE6EF850FF6EFA50E3
:102B5800805112006CC0D9FF6DC0DAFFDECF72F071
:102B6800DDCF73F072C0D9FF73C0DAFF80C0DFFF1A
:102B78006CC0D9FF6DC0DAFFDE2A000EDD2200012D
:102B880076077629D8A4A5D76EC0F6FF6FC0F7FFE1
:102B980000016E4B6F2B0800F5CF80F08051D8A450
:102BA80027D5000E00016D6F000E6C6F12003E50AD
:102BB800D8A405D0000E3D6E0A0E3E6E1200E60E39
:102BC8000001606F010E616F02EC2BF00C0E00012A
:102BD80060196111D8B4C0D17AD2E20E0001916FA8
:102BE8007F0E926F94EC2AF03A0E0001816F7E0EF0
:102BF800826F51EC2CF0000E496E3D2A1200EF0E48
:102C08000001746F7F0E756F5AEC2DF00009D8B46F
:102C180012003D2A1200E20E0001916F7F0E926FA2
:102C280094EC2AF02C0E0001816F7E0E826F51EC1D
:102C38002CF03D2A1200EF0E0001746F7F0E756FA5
:102C48005AEC2DF00009D8A40AD0D00E0001746FF8
:102C58007F0E756F5AEC2DF00009D8B412003D2A8A
:102C68001200E20E0001916F7F0E926F94EC2AF031
:102C7800000E0001616F0A0E606F31EC2DF0EE0E50
:102C88000001816F7B0E826FC90E836F010E846F06
:102C9800BA0E856F010E866F51EC2CF03D2A230E7B
:102CA8003E6E12003D2A1200E20E0001916F7F0E67
:102CB800926F94EC2AF0100E3E601200FF0E000195
:102CC800816F7D0E826F51EC2CF03D2A1200FB0EB5
:102CD8000001746F7F0E756F5AEC2DF00009D8A4AF
:102CE8000AD0FD0E0001746F7F0E756F5AEC2DF03F
:102CF8000009D8B41200010E496E3D2A1200E20EF6
:102D08000001916F7F0E926F94EC2AF0A60E0001DD
:102D1800816F7B0E826FA60E836F010E846FE20EA9
:102D2800856F010E866F51EC2CF03D2A1200EF0ED4
:102D38000001746F7F0E756F5AEC2DF00009D8B43E
:102D480012003D2A1200E20E0001916F7F0E926F71
:102D580094EC2AF0E20E0001816F7C0E826F51EC38
:102D68002CF03D2A12007C0E0001746F7C0E756FEA
:102D78005AEC2DF00009D8B412003D2A1200DE0EDC
:102D88000001916F7F0E926F94EC2AF0000E000103
:102D9800D86FC50E816F000E826F0F0E836F7F0E86
:102DA800846F8E0E856F7E0E866FCDEC2BF0000E35
:102DB8000001D86F17D0D851010DC50EF324D96E74
:102DC800000EF420DA6E200EDE18D8A40AD0D851EE
:102DD800010DC50EF324D96E000EF420DA6E2D0E07
:102DE800DF6ED82BC50E606F000E616F02EC2BF002
:102DF8000001D851C36FC46B6051C35D6151C459A0
:102E0800D8A0D9D74BC060F04CC061F0000E636FFA
:102E1800270E626F46EC2DF060C0D4F061C0D5F08B
:102E2800AE0E0001816F7A0E826FFEC083F0846B54
:102E3800F4C085F0866B5DC087F0886BF3C089F0BD
:102E48008A6B5AC08BF08C6BFCC08DF08E6B59C0AE
:102E58008FF0906BFBC091F0926BF6C093F0946B7F
:102E6800F5C095F0966BFAC097F0986BE60E996FDF
:102E7800010E9A6FD4C09BF0D5C09CF0C50E9D6F13
:102E8800000E9E6F5EC09FF0A06BFAC0A1F0A26B0F
:102E980052C0A3F0A46B51C0A5F0A66B53C0A7F015
:102EA800A86BF7C0A9F0AA6B50C0ABF0AC6B55C0CB
:102EB800ADF0AE6B54C0AFF0B06BFFC0B1F0B26B09
:102EC800F9C0B3F0B46B4EC0B5F0B66B4BC0B7F0F9
:102ED8004CC0B8F04FC0B9F0BA6BF8C0BBF0BC6BCF
:102EE80051EC2CF03D2A1200CB0E0001746F7F0EBE
:102EF800756F5AEC2DF00009D8B412003D2A120063
:102F0800E20E0001916F7F0E926F94EC2AF0640E2E
:102F18000001816F7E0E826F51EC2CF03D2A120069
:102F2800EF0E0001746F7F0E756F5AEC2DF00009DB
:102F3800D8A40AD08A0E0001746F7F0E756F5AEC00
:102F48002DF00009D8B41200060E3D6E190E3E6E23
:102F58001200000E3D6E12003D50000AD8B43DD656
:102F6800010AD8B44CD6030AD8B455D6010AD8B445
:102F780062D6070AD8B475D6010AD8B493D6030A1C
:102F8800D8B492D6010AD8B4A2D60F0AD8B4B7D604
:102F9800010AD8B4CCD6030AD8B4D5D6010AD8B415
:102FA800E2D6070AD8B4EBD6010AD8B49DD7030AEB
:102FB800D8B4A6D7010AD8B4B3D7CBD7830E0001AB
:102FC800916F7F0E926F94EC2AF0B20E0001816F20
:102FD8007E0E826F51EC2CF03D2A1200EF0E00019C
:102FE800746F7F0E756F5AEC2DF00009D8B412007B
:102FF800000E0001D96F000ED66F000ED76F000EBD
:10300800D96F51D0D951010D690EF324D96E020E32
:10301800F420DA6E220EDE18D8A406D0D751D8A430
:1030280003D0010ED76F3ED0D951010D690EF3249C
:10303800D96E020EF420DA6E220EDE18D8A403D060
:10304800D705D8B41200D751D8B42CD0D951010D16
:10305800690EF324D96E020EF420DA6E3A0EDE18E9
:10306800D8B420D0E60E606F010E616F02EC2BF031
:103078000001615117E10C0E605DD8B013D0D95131
:10308800010D690EF324D96E020EF420DA6ED651C2
:10309800010DE60EF324E16E010EF420E26EDFCF9F
:1030A800E7FFD62BD92B690E606F020E616F02EC19
:1030B8002BF00001D951C36FC46B6051C35D6151DE
:1030C800C459D8B012009ED7000E3D6E12003D5074
:1030D800000AD8B473D7010AD8B480D7F5D7000E40
:1030E8000001B36F000EB46F000EB56F000EB66F1F
:1030F8003650D8A4F3D10A0E366E0A0E356005D0C4
:10310800352A35C0ABF0AC6B04D0000EAC6F000EA6
:10311800AB6FABC035F0000EB46F000EB56F000E8C
:10312800B66F000EB36F0B0EB36501D042D0000E20
:103138007E6F000E7F6F420E806F000E6F6F610E04
:10314800706F3F0E716F000E76EC28F060C069F06A
:1031580061C06AF082EC2DF069C06CF06AC06DF055
:103168006BC06EF0C1EC24F06CC07BF06DC07CF0DD
:103178006EC07DF0D0EC21F07BC0B0F07CC0B1F027
:103188007DC0B2F0B4C07BF0B5C07CF0B6C07DF0B5
:10319800B0C07EF0B1C07FF0B2C080F0D0EC21F0BA
:1031A8007BC0B4F07CC0B5F07DC0B6F00001B32B95
:1031B800BAD7B4C087F0B5C088F0B6C089F0000EA1
:1031C8008A6F400E8B6F410E8C6F3CEC25F087C0E8
:1031D800B4F088C0B5F089C0B6F0000E0001606F89
:1031E800140E616F420E626FB4C063F0B5C064F034
:1031F800B6C065F010EC29F00001D8B015D0B4C005
:103208007BF0B5C07CF0B6C07DF0000E7E6F800EFE
:103218007F6F3F0E806FD0EC21F07BC0A5F07CC0A3
:10322800A6F07DC0A7F007D0000E0001A56F000E24
:10323800A66F000EA76F3550030D210EF324D96E2B
:10324800010EF420DA6EA5C0DEFFA6C0DEFFA7C01F
:10325800DEFF000E0001B46F000EB56F000EB66FF2
:10326800FA05D8A47ED0000EAD6F000EAE6F000E2A
:10327800AF6F000EB36F0B0EB36501D0BAD0750EE9
:103288007E6F530E7F6FBF0E806F000E6F6FA00EA4
:10329800706F3B0E716F010E76EC28F060C069F01C
:1032A80061C06AF082EC2DF069C06CF06AC06DF004
:1032B8006BC06EF0C1EC24F06CC07BF06DC07CF08C
:1032C8006EC07DF0D0EC21F07BC087F07CC088F028
:1032D8007DC089F0060E00018A6F010E8B6F3D0ECE
:1032E8008C6F3CEC25F087C0ADF088C0AEF089C08B
:1032F800AFF0ADC060F0AEC061F0AFC062F0000EDC
:103308000001636F200E646F410E656F10EC29F0A9
:103318000001D8B00FD0B4C07BF0B5C07CF0B6C007
:103328007DF0000E7E6F000E7F6F000E806FD0EC78
:1033380021F00ED0B4C07BF0B5C07CF0B6C07DF0F3
:10334800ADC07EF0AEC07FF0AFC080F0D0EC21F011
:103358007BC0B4F07CC0B5F07DC0B6F00001B32BE3
:103368008AD7000EB36F0B0EB36501D042D0000EA2
:103378007E6F000E7F6F420E806F000E6F6F610EC2
:10338800706F3F0E716F020E76EC28F060C069F026
:1033980061C06AF082EC2DF069C06CF06AC06DF013
:1033A8006BC06EF0C1EC24F06CC07BF06DC07CF09B
:1033B8006EC07DF0D0EC21F07BC0B0F07CC0B1F0E5
:1033C8007DC0B2F0B4C07BF0B5C07CF0B6C07DF073
:1033D800B0C07EF0B1C07FF0B2C080F0D0EC21F078
:1033E8007BC0B4F07CC0B5F07DC0B6F00001B32B53
:1033F800BAD7B4C087F0B5C088F0B6C089F0000E5F
:103408008A6F400E8B6F410E8C6F3CEC25F087C0A5
:10341800B4F088C0B5F089C0B6F00001FA05D8A4A8
:103428002ED0000E606FC80E616F420E626FB4C07E
:1034380063F0B5C064F0B6C065F010EC29F0000187
:10344800D8B006D0000EB46FC80EB56F420EB66F76
:10345800B4C060F0B5C061F0B6C062F0000E636F32
:10346800200E646F410E656F10EC29F00001D8B092
:1034780006D0000EB46F000EB56F000EB66FB4C064
:1034880060F0B5C061F0B6C062F0000E636F200E48
:10349800646F420E656F10EC29F00001D8B003D0BC
:1034A800FA51D8B407D0B4C0A8F0B5C0A9F0B6C0D6
:1034B800AAF006D0000EA86F000EA96F000EAA6F22
:1034C8003550030D000EF324D96E010EF420DA6E88
:1034D800A8C0DEFFA9C0DEFFAAC0DEFF000EB36FE2
:1034E800000EB46F000EB56F000EB66F000EB36F0E
:1034F800090EB36501D01FD0B4C07BF0B5C07CF015
:10350800B6C07DF0B351030D210EF324D96E010E20
:10351800F420DA6EDECF7EF0DECF7FF0DDCF80F0F4
:10352800D0EC21F07BC0B4F07CC0B5F07DC0B6F023
:103538000001B32BDDD7000E8A6F200E8B6F410E72
:103548008C6FB4C087F0B5C088F0B6C089F03CEC89
:1035580025F087C096F088C097F089C098F0C9EC2C
:1035680023F000019651FE6F000EB36F000EB46F8A
:10357800000EB56F000EB66F000EB36F090EB3657F
:1035880001D01FD0B4C07BF0B5C07CF0B6C07DF0D0
:10359800B351030D000EF324D96E010EF420DA6E38
:1035A800DECF7EF0DECF7FF0DDCF80F0D0EC21F0F3
:1035B8007BC0B4F07CC0B5F07DC0B6F00001B32B81
:1035C800DDD7000E8A6F200E8B6F410E8C6FB4C052
:1035D80087F0B5C088F0B6C089F03CEC25F087C00C
:1035E80096F088C097F089C098F0C9EC23F00001E4
:1035F80096515D6E12003E50D8A406D0080E000108
:10360800FD6F010E456E1200000E0001616F0A0E7B
:10361800606F31EC2DF044D2E20E0001916F7F0E05
:10362800926F94EC2AF0560E0001816F7E0E826F25
:1036380051EC2CF0000E496E3D2A1200EF0E0001ED
:10364800746F7F0E756F5AEC2DF00009D8B4120014
:103658003D2A1200E20E0001916F7F0E926F94ECEA
:103668002AF0480E0001816F7E0E826F51EC2CF01B
:103678003D2A1200EF0E0001746F7F0E756F5AEC31
:103688002DF00009D8B412003D2A1200E20E000104
:10369800916F7F0E926F94EC2AF0830E0001816F78
:1036A8007B0E826F51EC2CF03D2A1200EF0E0001C8
:1036B800746F7F0E756F5AEC2DF00009D8B41200A4
:1036C8003D2A1200E20E0001916F7F0E926F94EC7A
:1036D8002AF0C20E0001816F7B0E826F51EC2CF034
:1036E8003D2A1200EF0E0001746F7F0E756F5AECC1
:1036F8002DF00009D8B412003D2A1200E20E000194
:10370800916F7F0E926F94EC2AF0420E0001816F48
:103718007C0E826F51EC2CF03D2A1200EF0E000156
:10372800746F7F0E756F5AEC2DF00009D8B4120033
:10373800AD0E0001916F7F0E926F94EC2AF03D2A36
:10374800B40E3E6E1200910E0001816F010E826F61
:10375800CE0E836F7C0E846FCDEC2BF07C0E0001B7
:10376800816F010E826F9A0E836F7D0E846FCDEC90
:103778002BF0670E0001816F010E826F180E836FA8
:103788007C0E846FCDEC2BF0520E0001816F010E80
:10379800826F390E836F7F0E846FCDEC2BF0AD0EE8
:1037A8000001746F7F0E756F5AEC2DF00009D8B4C4
:1037B8001200010E0001616F900E606F31EC2DF068
:1037C8003D2A1200E20E0001916F7F0E926F94EC79
:1037D8002AF0030E0001816F7C0E826F51EC2CF0F1
:1037E8003D2A1200690E00016F6F020E706F7C0E89
:1037F800716F7C0E726F73EC26F000016F517011BF
:10380800D8B412003D2A1200E20E0001916F7F0E1B
:10381800926F94EC2AF0560E0001816F7B0E826F36
:1038280051EC2CF0000E0001616F640E606F31ECFA
:103838002DF06F0E0001816F780E826FA60E836FD8
:10384800010E846FE20E856F010E866F51EC2CF02D
:10385800030E0001616F200E606F31EC2DF0EF0E4A
:103868000001816F7D0E826F51EC2CF0010E00017A
:10387800616F2C0E606F31EC2DF0B40E3E6EE60ECB
:103888000001916F7F0E926F94EC2AF03D2A12008E
:10389800520E0001816F010E826F720E836F7E0ED1
:1038A800846FCDEC2BF0E90E0001746F7F0E756FFD
:1038B8005AEC2DF00009D8B41200690E0001916F7E
:1038C800020E926FF50E936F7F0E946FC90E956F6F
:1038D800010E966FF7EC20F0690E0001916F020E51
:1038E800926FF80E936F7F0E946FBA0E956F010E5C
:1038F800966FF7EC20F0690E0001916F020E926F3F
:10390800F20E936F7F0E946FA60E956F010E966F51
:10391800F7EC20F0690E0001916F020E926FB10E64
:10392800936F7F0E946FE20E956F010E966FF7EC12
:1039380020F0910E0001816F010E826F0F0E836FD0
:103948007F0E846FC90E856F010E866FCDEC2BF04C
:103958007C0E0001816F010E826F0F0E836F7F0E48
:10396800846FBA0E856F010E866FCDEC2BF0670E53
:103978000001816F010E826FC00E836F7F0E846F0E
:10398800A60E856F010E866FE20E876F010E886F97
:10399800CDEC2BF0520E0001816F010E826F2E0EBE
:1039A800836F7D0E846FCDEC2BF0910E0001686F54
:1039B800010E696F7C0E6A6F010E6B6F670E6C6F7C
:1039C800010E6D6F520E6E6F010E6F6FB0EC25F029
:1039D800C90E0001606F010E616F02EC2BF000014F
:1039E800615104E1040E605DD8A056D0000EE06F6E
:1039F800000EE06F0E0EE06501D020D0E051010D01
:103A0800C90EF324D96E010EF420DA6EDF50636F0D
:103A1800E051280F11EC2CF00001E051010DBA0E15
:103A2800F324D96E010EF420DA6EDF50636FE05193
:103A38003C0F11EC2CF00001E02BDCD7000EE06FFE
:103A4800130EE06501D011D0E051010DA60EF3244C
:103A5800D96E010EF420DA6EDF50636FE051500F1B
:103A680011EC2CF00001E02BEBD7000EE06F040EF8
:103A7800E06501D011D0E051010DE20EF324D96EBA
:103A8800010EF420DA6EDF50636FE051690F11EC1C
:103A98002CF00001E02BEBD7FFD7000E3D6E120093
:103AA8003D50000AD8B4B8D5010AD8B4C7D5030A1E
:103AB800D8B4D0D5010AD8B4DDD5070AD8B4E6D52C
:103AC800010AD8B4F3D5030AD8B4FCD5010AD8B48E
:103AD80009D60F0AD8B412D6010AD8B41FD6030AD9
:103AE800D8B431D6010AD8B46DD6070AD8B47AD674
:103AF800010AD8B489D6030AD8B4CAD6CED75E503C
:103B0800D8A42BD05BA402D08A8A01D08A9A8D903F
:103B18008C808C92000E0001636F0A0E626F000E9B
:103B2800656F000E646F010E59EC29F03B04D8A4B0
:103B380008D00001FC51D8A404D0010EFC6F000E7F
:103B48003B6E0001FC51D8B406D05BA402D08B8236
:103B580001D08B9212008B921200010E3B6E8A8A62
:103B68000001F751FEC068F0696B6827000E6923F1
:103B7800F4516A6F6B6B68516A5D6B51800A6C6FA8
:103B88006951800A6C59D8B01BD0F451686F696BC1
:103B9800F7516A6F6B6B6A1F6B1F6A4B6B2BFE5179
:103BA8006C6F6D6B6A516C276B516D2368516C5D3E
:103BB8006D51800A6E6F6951800A6E59D8A025D060
:103BC800F751D8B422D0010E606F080ECBEC2DF05F
:103BD800000E0001636F0A0E626F000E656F000E23
:103BE800646F000E5BB2010E59EC29F001014C51D3
:103BF8004D11D8A442D0070E4D6F080E4C6F5BB222
:103C080002D05B823AD05B9238D0000E0001606F20
:103C1800080ECBEC2DF05150F3C068F00001696B31
:103C28006827000E69235D506A6F6B6B68516A5D87
:103C38006B51800A6C6F6951800A6C59D8A00DD0FD
:103C480055C062F0636B54500A0DF3CF64F0F4CFA3
:103C580065F0010E59EC29F010D05D500001F35DBC
:103C6800D8A00BD0000E636FC80E626F020E656F8E
:103C7800580E646F000E59EC29F00001FE51D8B4BB
:103C88003DD05250FEC068F0696B6827000E69236A
:103C9800F4516A6F6B6B68516A5D6B51800A6C6F87
:103CA8006951800A6C59D8A002D08D8008D0F4518F
:103CB800FE5DD8A003D08D908C8002D08D908C9022
:103CC8005A04D8A41DD05350FEC068F0696B682709
:103CD800000E6923F4516A6F6B6B68516A5D6B5112
:103CE800800A6C6F6951800A6C59D8A002D08C8206
:103CF80008D0F451FE5DD8A004D002D08D908C80FD
:103D08008C925A04D8A408D0F851D8B405D0F8C079
:103D18004EF101014F6B0BD001014E514F11D8A448
:103D280006D00001F851D8B402D0010E5A6E000135
:103D3800FC05D8A443D03950D8A440D05050FEC078
:103D480068F0696B6827000E6923F4516A6F6B6B22
:103D580068516A5D6B51800A6C6F6951800A6C59B1
:103D6800D8B01BD0F451686F696B50506A6F6B6B99
:103D78006A1F6B1F6A4B6B2BFE516C6F6D6B6A5120
:103D88006C276B516D2368516C5D6D51800A6E6FA5
:103D98006951800A6E59D8A010D00A0E396E8BA2CC
:103DA80002D0010E01D0000EFF0A686F68478B50E1
:103DB8006819FD0B68198B6E01D08B92FC05D8A48D
:103DC80007D0FF51D8B404D0FFC031F0326A09D00F
:103DD80031503210D8A405D0FF51D8B402D0010E0A
:103DE800FC6FFC51D8B48B92F451686F696BFE512B
:103DF8006A6F6B6B030E6A27000E6B2368516A5D4E
:103E08006B51800A6C6F6951800A6C59D8B00CD01C
:103E1800010E606F100ECBEC2DF0000E0001606FEC
:103E2800200ECBEC2DF031D0FD0E0001686FFF0E97
:103E3800696FFE516A6F6B6B68516A2769516B2312
:103E4800F4516C6F6D6B6A516C5D6D51800A6E6FC9
:103E58006B51800A6E59D8B00CD0010E606F200EDD
:103E6800CBEC2DF0000E0001606F100ECBEC2DF0A6
:103E78000CD0000E0001606F200ECBEC2DF0000E70
:103E88000001606F100ECBEC2DF00001F351686F4C
:103E9800696B5D506A6F6B6B030E6A27000E6B23AC
:103EA80068516A5D6B51800A6C6F6951800A6C5960
:103EB800D8B00CD0000E606F010ECBEC2DF0010EC7
:103EC8000001606F020ECBEC2DF01200FD0E000118
:103ED800686FFF0E696F5D506A6F6B6B68516A2778
:103EE80069516B23F3516C6F6D6B6A516C5D6D5149
:103EF800800A6E6F6B51800A6E59D8B00CD0010ED3
:103F0800606F010ECBEC2DF0000E0001606F020E09
:103F1800CBEC2DF01200000E0001606F010ECBEC0F
:103F28002DF0000E0001606F020ECBEC2DF0120098
:103F3800345009E1020E335CD8B005D0000E346E5F
:103F4800000E336E07D03306D8A0340633C033F0E2
:103F580034C034F0020E396005D0000E196E000E20
:103F6800186E04D0390639C018F0196A18C039F02B
:103F780001014D5109E1020E4C5DD8B005D0000E8B
:103F88004D6F000E4C6F07D04C07D8A04D074CC1A1
:103F98004CF14DC14DF1020E366005D0000E1B6E7E
:103FA800000E1A6E04D0360636C01AF01B6A1AC004
:103FB80036F0010E386402D0380607D05BB402D060
:103FC8005B8401D05B94050E386E4A2A090E4A6458
:103FD8001200000E4A6E482A020E3E6005D0000EFE
:103FE8001D6E000E1C6E04D03E063EC01CF01D6AFD
:103FF8001CC03EF03B0E48641200325009E1020E2C
:10400800315CD8B005D0000E326E000E316E07D08C
:104018003106D8A0320631C031F032C032F0010189
:104028004F5109E1020E4E5DD8B005D0000E4F6F1A
:10403800000E4E6F07D04E07D8A04F074EC14EF165
:104048004FC14FF1640E0001F419D8B457D06E0E69
:10405800F419D8B453D0850EF419D8B44FD05E04EF
:10406800D8A44CD0F451116E126A4F50FEC013F010
:10407800146A1326000E14221150135C1450800A7F
:10408800156E1250800A1558D8A038D04F50116EAE
:10409800126A111E121E114A122AFE51136E146A58
:1040A8001150132612501422F451156E166A13502B
:1040B800155C1650800A176E1450800A1758D8A03D
:1040C8001DD0960EF4611AD0F951D8B417D0FB510F
:1040D800D8A414D0372AF951375CD8A00FD0F40EE1
:1040E800066E000E076E550E086E970E096E010ECD
:1040F8000A6E2B0EC3EC28F0000E376E000E486EC9
:10410800472A3B0E47641200000E476E462A0001FC
:10411800FB51D8A462D0F951D8B45FD05E04D8A4BA
:104128005CD0640EF419D8A419D0F605D8A416D01A
:104138003A2A58503A5CD8A050D05850D8B44DD0EC
:10414800F40E066E000E076E550E086E970E096E79
:10415800010E0A6E2B0EC3EC28F03DD06E0E000146
:10416800F419D8A41AD0020EF619D8A416D03A2AEF
:1041780057503A5CD8A031D05750D8B42ED0F40E4E
:10418800066E000E076E550E086E970E096E010E2C
:104198000A6E2B0EC3EC28F01ED0850E0001F41910
:1041A800D8A419D0030EF619D8A415D03A2A565017
:1041B8003A5CD8A012D05650D8B40FD0F40E066E80
:1041C800000E076E550E086E970E096E010E0A6EE8
:1041D8002B0EC3EC28F0000E3A6E170E4664120040
:1041E800000E466E1200000E0001DC6F000EDB6F41
:1041F80022EE00F010EE99F0180EDBCFE3FFE80690
:10420800FCE222EE2DF010EEC6F0130EDBCFE3FF3A
:10421800E806FCE222EE19F010EEB2F0130EDBCF46
:10422800E3FFE806FCE2000EDD6F000EDA6FB20E67
:10423800816F000E826F7C0E836F7F0E846F93C038
:1042480085F094C086F0CDEC2BF0000E0001DF6FF6
:10425800000EDE6F90D0B20EDB25D96E000EDC2189
:10426800DA6EDE519125E16EDF519221E26EDE5069
:10427800E618D8A435D0DD51D8A432D0C60E816F47
:10428800000E826FC60E836F7F0E846FC60E856F19
:10429800000E866FDE519125D96EDF519221DA6EBC
:1042A800DF50976F9751876F886BCDEC2BF000012B
:1042B800DB4BDC2BC60E6F6F000E706FB20E716F8A
:1042C800000E726F73EC26F000016F517011D8B4B4
:1042D8004FD0000EDC6F000EDB6F010EDD6F48D093
:1042E800DD51D8A40FD0000EDC6F000EDB6FC60EB8
:1042F800816F000E826F820E836F7B0E846FCDEC10
:104308002BF036D00001DE519125D96EDF51922174
:10431800DA6E220EDE18D8A411D0010EDA6F95C01D
:1043280081F096C082F00F0E836F7F0E846F990E16
:10433800856F000E866FCDEC2BF01AD0990E000118
:10434800816F000E826FC60E836F7F0E846F990E89
:10435800856F000E866FDE519125D96EDF5192214F
:10436800DA6EDF50976F9751876F886BCDEC2BF023
:104378000001DE4BDF2B91C060F092C061F002ECCF
:104388002BF000016051DE5D6151DF59D8B0120099
:10439800DA51D8A412005FD77DC081F00001826B8A
:1043A800836B7C35813701E382818151866F80C0C0
:1043B80081F0826B836B7F35813701E38281815184
:1043C800856F8651D8B40BD08551865DD8B00ED094
:1043D800865100088525816F180E816507D07EC03B
:1043E8007BF07FC07CF080C07DF012008551D8B48E
:1043F8000BD08651855DD8B00ED085510008862532
:10440800816F180E816507D07BC07BF07CC07CF083
:104418007DC07DF01200060E846F7DBF848F80BF43
:10442800848D7C8FFF0E7B17FF0E7C17000E7D1787
:104438007F8FFF0E7E17FF0E7F17000E80178551A6
:10444800865DD8B01BD0D8907E377F3780378507F8
:1044580086518519D8B40DD0840784C081F0070E21
:104468008117D8B406D0EFD7D8907D337C337B330F
:10447800862B85518619D8B41FD0F6D78651855D0D
:10448800D8B01AD0D8907B377C377D3786078651CD
:104498008519D8B40DD0840784C081F0070E811720
:1044A800D8B406D0EFD7D89080337F337E33852BAE
:1044B80085518619D8A4F7D784AF0CD0FF0E7B1B83
:1044C800FF0E7C1BFF0E7D1B010E7B27000E7C233D
:1044D800000E7D2384AD0CD0FF0E7E1BFF0E7F1BCC
:1044E800FF0E801B010E7E27000E7F23000E802307
:1044F800000E846F7B517E277C517F237D51802362
:1045080080AF0ED0FF0E7E1BFF0E7F1BFF0E801BA1
:10451800010E7E27000E7F23000E8023010E846F7C
:104528007EC060F07FC061F080C062F086C063F03A
:1045380084C064F02BEC27F060C07BF061C07CF095
:1045480062C07DF012000001656F60C0D9FF61C0D4
:10455800DAFFDF500001646F62C0D9FF63C0DAFF81
:10456800DF50666F3F0E6519D8B41AD027D0C80E31
:10457800606F7E0E616F1200A60E606F7E0E616F17
:104588001200BD0E606F7E0E616F1200FE0E606F2E
:104598007E0E616F1200DA0E606F7F0E616F12007F
:1045A8006451010AD8B4E3D7030AD8B4E5D7010A9D
:1045B800D8B4E7D7070AD8B4E9D7EDD7460E6519B6
:1045C800D8A431D0650E666107D060C0D9FF61C03C
:1045D800DAFF010EDF6E1200640E66650AD06F0EF8
:1045E800666107D060C0D9FF61C0DAFF020EDF6ED6
:1045F80012006E0E66650AD0860E666107D060C02E
:10460800D9FF61C0DAFF030EDF6E1200850E666502
:104618001200A10E6661120060C0D9FF61C0DAFF06
:10462800040EDF6E1200410E6519D8A41200F605BB
:10463800D8A407D062C0D9FF63C0DAFF550EDF6E79
:104648001200020EF619D8A407D062C0D9FF63C0C1
:10465800DAFF650EDF6E1200030EF619D8A407D034
:1046680062C0D9FF63C0DAFF6F0EDF6E1200040E5E
:10467800F619D8A4120062C0D9FF63C0DAFF860E0B
:10468800DF6E120000016E6F68C0D9FF69C0DAFFE3
:10469800DF500001796F6AC0D9FF6BC0DAFFDF50C5
:1046A800776F6CC0D9FF6DC0DAFFDF50786F5CD0D0
:1046B800FA05D8A40FD0640E796105D0792B79C09A
:1046C8006FF0706B04D0000E706F0A0E6F6F6FC0C2
:1046D80079F00ED0780E796105D0792B79C071F018
:1046E800726B04D0000E726F3C0E716F71C079F05E
:1046F80079C063F0020E11EC2CF040D00001FA05ED
:10470800D8A40FD00A0E796505D0790779C073F05F
:10471800746B04D0000E746F640E736F73C079F0FD
:104728000ED03C0E796505D0790779C075F0766BA7
:1047380004D0000E766F780E756F75C079F079C069
:1047480063F0020E11EC2CF019D077C060F0000174
:10475800616B78C062F0636BFAC064F012EC0BF026
:1047680000016051796F0AD06E512B0AD8B4A0D7D6
:10477800060AD8B4C3D76C0AD8B4E7D768C0D9FF3B
:1047880069C0DAFF79C0DFFF120098C09AF0000113
:104798009B6B9C6B97359A3701E39B819A51A46F69
:1047A800A451D8A409D0000E966F000E976F000E82
:1047B800986F000E996F1200170E9A6F96C09BF0B3
:1047C80097C09CF098C09DF09A299E6F04D0D8900D
:1047D8009D339C339B339E2FFAD700019B519F6FCB
:1047E800978FFF0E9617FF0E9717000E9817965182
:1047F800A06F9751A16F9851A26FA36B8E0EA45F03
:10480800A4AF16D0A451800A8F0FD8B009D0000EDB
:10481800966F000E976F000E986F000E996F12003A
:10482800D890A333A233A133A033A43FF9D715D02E
:10483800170EA4650FD0000E966F000E976F000E2E
:10484800986F000E996F1200D890A037A137A23741
:10485800A337A407A451D8A4F7D79F51D8B408D038
:10486800A31FA21FA11FA06D000EA123A223A32393
:10487800A0C096F0A1C097F0A2C098F0A3C099F08C
:1048880012006DD066C0F6FF67C0F7FFF86A070E22
:10489800F76403D00800F55005D0F6CFE9FFF7CF4D
:1048A800EAFFEF500009D8B425D068C0F6FF69C008
:1048B800F7FFF86A070EF76403D00800F55005D033
:1048C800F6CFE9FFF7CFEAFFEF5000016C6F66C043
:1048D800F6FF67C0F7FFF86A070EF76403D0080011
:1048E800F55005D0F6CFE9FFF7CFEAFFEF506C1986
:1048F800D8B430D068C0F6FF69C0F7FFF86A070E71
:10490800F76403D00800F55005D0F6CFE9FFF7CFDC
:10491800EAFFEF5000016C6F6D6B6C1F6D1F6C4BE5
:104928006D2B66C0F6FF67C0F7FFF86A070EF764DD
:1049380003D00800F55005D0F6CFE9FFF7CFEAFF1E
:10494800EF5000016E6F6E516C25666F000E6D2181
:10495800676F12000001664B672B684B692B0001DB
:104968006A07D8A06B076A298DE16B29D8A48AD772
:10497800000E676F000E666F12006EC072F00001C5
:10498800736B746B6D35723701E373817251756F98
:104998007551D8A407D0000E6C6F000E6D6F000E15
:1049A8006E6F120071C072F0736B746B7035723772
:1049B80001E3738172517A6F7A51D8A407D0000E3F
:1049C8006C6F000E6D6F000E6E6F12007A517B0FC8
:1049D80075276EC07AF071517A1B800E7A176D8F29
:1049E800708FFF0E6F17FF0E7017000E7117000EF5
:1049F800766F000E776F000E786F070E796F6CA1D7
:104A080006D06F5176277051772371517823D8904B
:104A18006E336D336C33D8906F3770377137792FA9
:104A2800EED7090E796F6CA106D06F5176277051B9
:104A3800772371517823D8906E336D336C33D890C7
:104A4800783377337633792FEED776C060F077C036
:104A580061F078C062F075C063F07AC064F02BEC46
:104A680027F060C06CF061C06DF062C06EF012009B
:104A780089C08DF000018E6B8F6B88358D3701E30F
:104A88008E818D51946F9451D8A407D0000E876FF2
:104A9800000E886F000E896F12008CC08DF08E6B2F
:104AA8008F6B8B358D3701E38E818D51956F9551C5
:104AB800D8A407D0000E876F000E886F000E896F8C
:104AC8001200000E916F000E926F000E936F9551B9
:104AD800890F945F89C095F08C51951B800E9517AE
:104AE800888FFF0E8717FF0E8817000E89178B8F88
:104AF800FF0E8A17FF0E8B17000E8C17180E906F7B
:104B0800D8909137923793378A51875D8B5188595E
:104B18008C518959D8A007D08A51875F8B51885BFF
:104B28008C51895B9181D890873788378937902F46
:104B3800E7D791C060F092C061F093C062F094C072
:104B480063F095C064F02BEC27F060C087F061C07B
:104B580088F062C089F01200010E0001636F010E37
:104B6800D1EC26F068C064F069C065F003EC2DF064
:104B7800010E0001636F020ED1EC26F06AC064F0EA
:104B88006BC065F003EC2DF0000E0001636F030E9F
:104B9800D1EC26F06CC064F06DC065F003EC2DF02C
:104BA800000E0001636F040ED1EC26F06EC064F0B5
:104BB8006FC065F003EC2DF0000E0001706F000E61
:104BC800706F130E706501D012007051010DF35013
:104BD8006825D96EF4506921DA6E200EDF6E7051A7
:104BE800010DF3506A25D96EF4506B21DA6E200E50
:104BF800DF6E7051010DF3506C25D96EF4506D21A4
:104C0800DA6E200EDF6E7051010DF3506E25D96EED
:104C1800F4506F21DA6E200EDF6E702BD2D70600AB
:104C2800FACF1EF0FBCF1FF0E9CF20F0EACF21F03A
:104C3800E1CF22F0E2CF23F0D9CF24F0DACF25F06C
:104C4800F3CF26F0F4CF27F0F6CF28F0F7CF29F0EE
:104C5800F8CF2AF0F5CF2BF05FC02CF060C02DF014
:104C680061C02EF062C02FF0F2A407D0F2943C0E7F
:104C7800D76EB00ED66E9CEC1FF09EAA05D0AECFB4
:104C880030F03050CBEC2AF0F0A203D0F0926EEC6A
:104C98002DF02FC062F02EC061F02DC060F02CC046
:104CA8005FF02BC0F5FF2AC0F8FF29C0F7FF28C026
:104CB800F6FF27C0F4FF26C0F3FF25C0DAFF24C0A3
:104CC800D9FF23C0E2FF22C0E1FF21C0EAFF20C0D4
:104CD800E9FF1FC0FBFF1EC0FAFF5F9211003FD023
:104CE8006FC066F070C067F071C068F072C069F09C
:104CF80071C060F072C061F002EC2BF060C06AF025
:104D080061C06BF045EC24F0000166516711D8A42E
:104D180005D06FC06FF070C070F01200010E6F25E3
:104D2800606F000E7021616F71C0F6FF72C0F7FFEF
:104D3800F86A070EF76403D00800F55005D0F6CFDF
:104D4800E9FFF7CFEAFFEF500001736F7351626F0D
:104D5800636B24EC2AF060C06FF061C070F0000152
:104D68006F517011D8B413D06FC0F6FF70C0F7FF41
:104D7800F86A070EF76403D00800F55005D0F6CF9F
:104D8800E9FFF7CFEAFFEF500009D8A4A9D7000E32
:104D980000016F6F000E706F12000001646F48D041
:104DA800000163517F0F676F67390F0B656F67519C
:104DB8000F0B666F655195EC2DF00001665195EC6F
:104DC8002DF0120000016351BF0F676F67390F0B99
:104DD800656F67510F0B666F655195EC2DF00001FB
:104DE800665195EC2DF0120000016351940F676F26
:104DF80067390F0B656F67510F0B666F655195EC3F
:104E08002DF00001665195EC2DF012000001635160
:104E1800D40F676F67390F0B656F67510F0B666F9C
:104E2800655195EC2DF00001665195EC2DF01200BE
:104E380000016451010AD8B4B3D7030AD8B4C2D761
:104E4800010AD8B4D1D7070AD8A41200DFD70001C5
:104E58006351D8B405D0605161116211D8A40CD047
:104E6800000E606F000E616F000E626F1200632B00
:104E7800D890623361336033000E6015656F000EA1
:104E88006115666FFE0E6215676F655166116711D1
:104E9800D8B40CD0ECD7632B010E6027000E612329
:104EA800000E6223D890623361336033000E6015C0
:104EB800656F000E6115666FFF0E6215676F6551AD
:104EC80066116711D8B406D0E6D76307D890603763
:104ED8006137623761BF03D0020E6361F6D763A101
:104EE800619FD8906333635162136451D8A4628F71
:104EF80060C060F061C061F062C062F012002D0E07
:104F0800F66E780EF76E20EE67F0370E0900F5CFD3
:104F1800DEFFE806FBE2040E95EC2DF0000E95ECA2
:104F28002DF0210EE82EFED700F0000E0001A36F31
:104F3800000EA26F000EA16F000EA36F040EA365F2
:104F480001D01200A105D8A402D0000EA36F000E54
:104F5800A26F070EA26501D025D0A151D8A405D013
:104F6800000EA06F000E9F6F17D0A351080D670E9B
:104F7800646F000E656FF3506427F4506523A251E7
:104F8800010DF3506425D96EF4506521DA6EDF50B7
:104F9800666F66519F6FA06B9F5132EC2CF0000139
:104FA800A22BD7D7A12BA32BC9D700016D6F65C042
:104FB800D9FF66C0DAFFDF5000016A6F6A516E6F71
:104FC8006F6B2CD068516A6F6B6B6A516E5D6F5155
:104FD800800A6C6F6B51800A6C59D8B003D06E4B45
:104FE8006F2B13D067C06EF017D067516A6F6B6B69
:104FF8006E516A5D6B51800A6C6F6F51800A6C59F3
:10500800D8B008D06E07D8A06F076EC06EF06FC01A
:105018006FF00BD068C06EF06F6B07D06D512B0A24
:10502800D8B4D0D7060AD8B4E0D76951D8B405D0D7
:105038006EC063F0695111EC2CF065C0D9FF66C0F1
:10504800DAFF6EC0DFFF12002E0EF66E5C0EF76EF2
:10505800000EF86E01EEE6F010EE0CF00900F5CF48
:10506800EEFFE550E150FAE1790EF66E5C0EF76E50
:10507800000EF86E0900F5CFFDF00900F5CFFEF03F
:105088000900F5CFFFF0760EF66E5C0EF76E000E97
:10509800F86E0900F5CF5CF00900F5CF5DF0090066
:1050A800F5CF5EF002EE00F0CD0EEE6AE806FDE107
:1050B80001EE00F0E60EEE6AE806FDE100EEF3F020
:1050C8000A0EEE6AE806FDE15B6A00EE31F02A0E90
:1050D800EE6AE806FDE15F905F92000EF86E00014F
:1050E80009EF00F00001686F000EC46E000EC36E79
:1050F80068C062F00001D8906237D89062373C0EE1
:105108006217C250C30B6211C26E140EE82EFED78E
:10511800C2A204D00001626B622B02D00001626B54
:10512800010E636F622B02D0D8906337622FFCD7D1
:10513800C2A004D00001646B642B02D00001646B30
:10514800010E656F642B02D0D8906537642FFCD7A9
:10515800000165516311C212C2B2FED7C350C4CF59
:1051680062F00001636B62C063F0626B6211666F8C
:105178006351676F66C060F067C061F012000E6E21
:1051880006C0D9FF07C0DAFFDF500B6E0B500F6E59
:10519800106A2CD009500B6E0C6A0B500F5C105023
:1051A800800A0D6E0C50800A0D58D8B003D00F4AF3
:1051B800102A13D008C00FF017D008500B6E0C6AD5
:1051C8000F500B5C0C50800A0D6E1050800A0D5861
:1051D800D8B008D00F06D8A010060FC00FF010C026
:1051E80010F00BD009C00FF0106A07D00E502B0A30
:1051F800D8B4D0D7060AD8B4E0D70A50D8B405D066
:105208000FC004F00A506DEC2CF006C0D9FF07C09F
:10521800DAFF0FC0DFFF1200000162AF16D060C0D6
:1052280066F061C067F062C068F0661F671F681F9C
:10523800662B000E67236823000E6625606F000E3C
:105248006721616F800E6821626F65AF16D063C0F9
:1052580066F064C067F065C068F0661F671F681F66
:10526800662B000E67236823000E6625636F000E09
:105278006721646F800E6821656F000E601B000E49
:10528800611B800E621B000E631B000E641B800EE8
:10529800651B6351605D6451615965516259D8B0AD
:1052A80002D0D8901200D88012000001676F3C50DD
:1052B80000016719D8B407D0000E346E000E336EA3
:1052C80067C03CF012006751D8B406D0010E606F79
:1052D800040ECBEC2DF006D0000E0001606F040E1A
:1052E800CBEC2DF033503410D8A407D00001645112
:1052F8006225336E65516321346E33500001645D5D
:1053080034506559D8B015D06751D8A403D0666B0E
:10531800662B02D00001666B663B664789506619AA
:10532800DF0B6619896E67B102D08B9401D08B842C
:105338001200899A8B941200959E959C959A95983F
:1053480095969594000EEBEC2CF0340E0001636FEB
:10535800F10EE82EFED7632FFCD700D0030E95EC94
:105368002DF00D0E0001636FFB0EE82EFED7632FA4
:10537800FCD700D0030E95EC2DF01D0E0001636FD5
:10538800910EE82EFED7632FFCD7030E95EC2DF077
:10539800020E95EC2DF0020E95EC2DF0080E95EC12
:1053A8002DF0000E95EC2DF00C0E95EC2DF0000E66
:1053B80095EC2DF0060E95EC2DF01200000E000174
:1053C800686F000E696F000E6A6F000E6B6F645194
:1053D800651166116711D8B42AD0010E6C6F06D01A
:1053E800D89064376537663767376C2B67AFF8D75F
:1053F800D890683769376A376B376451605D655193
:1054080061596651625967516359D8A009D06451EE
:10541800605F6551615B6651625B6751635B688180
:10542800D89067336633653364336C2FE1D768C02F
:1054380060F069C061F06AC062F06BC063F012008E
:1054480060C0F6FF61C0F7FFF86A070EF76403D083
:105458000800F55005D0F6CFE9FFF7CFEAFFEF5087
:1054680000016219D8A405D060C060F061C061F085
:1054780012006051646F6151656F604B612B64C0AD
:10548800F6FF65C0F7FFF86A070EF76403D0080057
:10549800F55005D0F6CFE9FFF7CFEAFFEF50000946
:1054A800D8A4CED7000E0001606F000E616F120005
:1054B80093809382280EC66E000EC56E000E000102
:1054C800606F120E616F7A0E626F000E636F6DC0AF
:1054D80071F06EC072F06FC073F070C074F0020E9D
:1054E800D8907137723773377437E82EF9D771C08F
:1054F80064F072C065F073C066F074C067F0E2ECE7
:1055080029F000016005C86E000EC76E820E00010A
:10551800716FDD0EE82EFED7712FFCD700D0120078
:10552800000E416E000E406E000E3F6E690E0001C7
:10553800606F020E616F000E636F000E626F000EE7
:10554800656F640E646FD3EC2CF0D80E0001816F88
:10555800010E826F0F0E836F7F0E846F91C085F0EE
:1055680092C086F0CDEC2BF0E20E00016F6F7F0E3B
:10557800706F91C071F092C072F073EC26F0000168
:105588006F517011D8B41200010E416E1200096EED
:105598004150D8B411D03F50010D690EF324D96E93
:1055A800020EF420DA6E09C0DFFF3F2A630E3F6463
:1055B8001200000E3F6E12004050010DD80EF32469
:1055C800D96E010EF420DA6E0950DE18D8A413D073
:1055D800402AD80E016E010E026E80EC2BF040506E
:1055E800076E086A0150075C02500858D8A01200DC
:1055F800010E416E1200000E406E120060C064F091
:1056080061C065F003D00001644B652B64C0F6FFF0
:1056180065C0F7FFF86A070EF76403D00800F55075
:1056280005D0F6CFE9FFF7CFEAFFEF500009D8A47D
:10563800EAD760C062F061C063F00001621F631FB7
:10564800624B632B64516225606F65516321616F02
:105658001200000E0001656F000E646F6251631145
:10566800D8B41CD0010E666F04D0D8906237633767
:10567800662B63AFFAD7D890643765376251605D9F
:1056880063516159D8A005D06251605F6351615B75
:105698006481D89063336233662FEDD764C060F0BD
:1056A80065C061F012000001656F2FEC2EF0000E4E
:1056B8000001626FA00E616F1DEC2EF065C061F0F5
:1056C8000001626B1DEC2EF027EC2EF0000E00019D
:1056D800626FA10E616F1DEC2EF0000E0001626F6B
:1056E800000E616F89EC2CF000016151666F2BECA4
:1056F8002EF000016651120001C005F002C006F04C
:1057080002D0054A062A05C0F6FF06C0F7FFF86A68
:10571800070EF76403D00800F55005D0F6CFE9FF6F
:10572800F7CFEAFFEF500009D8A4EBD701C003F088
:1057380002C004F0031E041E034A042A0550032471
:10574800016E06500420026E12000001626F15D02F
:10575800BA0E0001606F7F0E616F1200910E606FCC
:105768007F0E616F1200D50E606F7F0E616F1200A1
:10577800EC0E606F7F0E616F120000016251010A2A
:10578800D8B4E6D7030AD8B4E9D7010AD8B4EBD716
:10579800EFD781C08DF082C08EF0000E00018F6FB0
:1057A800000E906F850E8B6F000E8C6F8D0E6C6FD8
:1057B800000E6D6F83C06EF084C06FF08B0E706F3B
:1057C800000E716FFBEC12F08DC0D9FF8EC0DAFFAE
:1057D800000EDF6E1200000169516A11D8B418D0AA
:1057E800010E6B6F04D0D89069376A376B2B6AAF9C
:1057F800FAD76951675D6A516859D8A004D06951D0
:10580800675F6A51685BD8906A3369336B2FF1D749
:1058180067C067F068C068F012000001646F2FEC81
:105828002EF0000E0001626FA00E616F1DEC2EF0CD
:1058380064C061F00001626B1DEC2EF063C061F082
:105848000001626B1DEC2EF02BEC2EF0000E000117
:10585800616F690E606F31EC2DF012000001636F0B
:10586800000163510F0B616F6351F00B626F83840A
:1058780062390F0BEBEC2CF083861A0EE82EFED75C
:1058880000D0839600016151EBEC2CF083861A0E50
:10589800E82EFED700D083961200000E0001BF6FDD
:1058A800000EC06F120EC16F5C0EC26F830EBD6F0B
:1058B800000EBE6FBF0E6C6F000E6D6F81C06EF074
:1058C80082C06FF0BD0E706F000E716FFBEC12F0AE
:1058D8001200056E37EC2EF0000E036EA00E026E5D
:1058E80022EC2EF005C002F0036A22EC2EF004C070
:1058F80002F0036A22EC2EF033EC2EF0000E026E5A
:10590800690E016EA8EC2DF01200F6EC2DF0C5869C
:10591800F6EC2DF0C9CF63F00001646BF6EC2DF0C6
:10592800000161516211D8A402D0C58A01D0C59A7C
:10593800C58863C061F064C062F012005BA4120005
:10594800000E0001646F620762C064F00BD06451FE
:10595800010DF3506025D96EF4506121DA6E200EE6
:10596800DF6E642B6351645DD8B01200F0D74350EA
:105978005C18D8B412002FEC2EF0000E0001626FF4
:10598800460E616F1DEC2EF043C061F00001626BA2
:105998001DEC2EF02BEC2EF043C05CF0120060C022
:1059A80066F061C067F009D066C0D9FF67C0DAFF4A
:1059B80062C0DFFF0001664B672B00016407D8A0B7
:1059C80065076429F1E16529D8B41200EDD7000113
:1059D800606F000160A102D0838801D0839860A322
:1059E80002D0838A01D0839A60A502D0838C01D02B
:1059F800839C60A702D0838E1200839E1200000E43
:105A08000001666F000E666F130E666501D0120006
:105A18006651010DF3506425D96EF4506521DA6E94
:105A2800DF5032EC2CF00001662BEED700EC2EF0A4
:105A3800C58600EC2EF0C9CF04F0056A00EC2EF004
:105A480002500310D8A402D0C58A01D0C59AC588CF
:105A580004C002F005C003F012000AD0030E0001D2
:105A6800626F970EE82EFED7622FFCD700D0040095
:105A780000016007D8A061076029F0E16129D8B466
:105A88001200ECD7000160516203F3CF64F0F4CF49
:105A980065F060516303F350652761516203F35069
:105AA800652764C060F065C061F01200690E0001EE
:105AB8006F6F020E706F74C071F075C072F073EC86
:105AC80026F000016F517011D8B402D0010E1200F7
:105AD800000E120037EC2EF0000E036E4F0E026E11
