:0400000007EF00F016
:100008005F8295ED25F0AAEF27F0929A9494969046
:100018009590949295929480809A829484908390FB
:100028008292839292988998939A8A9A9384F19863
:10003800F190F0889280809092828092928480944D
:10004800810ED56EE40EF26E010EC26E0C0EC16EFC
:10005800B50EC06E6AEC2DF0400E0001816F7F0E68
:10006800826FD3EC2BF0000E0001616FC80E606F39
:10007800B3EC2CF022EC29F092EC2DF005EC27F0F3
:10008800400E00016D6F420E6E6F0F0E6F6F000E07
:10009800706FDEEC29F0000E0001616F960E606F44
:1000A800B3EC2CF0A50E0001816F010E826FB90E22
:1000B800836F7C0E846F4FEC2BF07B0E0001816FF9
:1000C800010E826F900E836F7E0E846F4FEC2BF0C3
:1000D8006F0E0001816F010E826F1F0E836F7F0EFE
:1000E800846F9E0E856F7E0E866F4FEC2BF0A50EEB
:1000F8000001686F010E696F900E6A6F010E6B6FD9
:100108007B0E6C6F010E6D6F660E6E6F010E6F6F5A
:1001180032EC25F0010E0001616F2C0E606FB3EC1C
:100128002CF08A8A090E0001616F920E606FB3ECA1
:100138002CF0010ED9EC2AF00001F46F020ED9EC74
:100148002AF00001F36F030ED9EC2AF00001FB6FCF
:10015800040ED9EC2AF00001F66F050ED9EC2AF04E
:100168000001F56F060ED9EC2AF0596E070ED9EC8E
:100178002AF00001FA6F080ED9EC2AF0586E090E21
:10018800D9EC2AF0576E0A0ED9EC2AF0566E0B0EEF
:10019800D9EC2AF0536E0C0ED9EC2AF0526E0D0EE3
:1001A800D9EC2AF0516E0E0ED9EC2AF00001FC6F42
:1001B8000F0ED9EC2AF05A6E100ED9EC2AF0000175
:1001C800F76F110ED9EC2AF0506E120ED9EC2AF006
:1001D800556E140ED9EC2AF0546E150ED9EC2AF08F
:1001E8000001FF6F160ED9EC2AF00001F96F170E07
:1001F800D9EC2AF04E6E190ED9EC2AF00001E16F05
:10020800E1514B6E4C6A1B0ED9EC2AF04F6E1C0E56
:10021800D9EC2AF00001F86F000EF26F000EF26FB1
:100228000E0EF26501D010D0F251010DC90EF32463
:10023800D96E010EF420DA6EF251280FD9EC2AF0AB
:10024800DF6E0001F22BECD7000EF26F0E0EF26596
:1002580001D010D0F251010DBA0EF324D96E010E5F
:10026800F420DA6EF2513C0FD9EC2AF0DF6E00016F
:10027800F22BECD71E0ED9EC2AF00001F26FBB0E60
:10028800F219D8B42CD0BB0E636F1E0E93EC2BF072
:100298000400660E0001816F010E826FAA0E836F43
:1002A8007E0E846F4FEC2BF0A50E0001686F010ED7
:1002B800696F900E6A6F010E6B6F7B0E6C6F010E8B
:1002C8006D6F660E6E6F010E6F6F32EC25F00B0EC0
:1002D8000001616FB80E606FB3EC2CF0D9D7ABA2F8
:1002E80002D0AB98AB880400B7EC15F098EC1CF082
:1002F8005904D8A410D0F30E0001686F000E696F7E
:10030800F40E6A6F000E6B6FF50E6C6F000E6D6F5A
:10031800410E5BEC22F0F60E0001606F000E616F7B
:10032800F40E626F000E636F460EBCEC21F00A0EED
:100338000001FD19D8A443EC18F0040E5CEC2DF074
:100348000009D8B451D35A0E0001656F000E666FCC
:10035800000E676F010E686F0F0E696F2B0E5BEC56
:1003680027F042D3AB0E0001816F010E826F2D0E74
:10037800836F7E0E846F4FEC2BF0020E0101A56F88
:100388000001FC51D8A40AD0A50E606F010E616F60
:10039800010E626F020E636F24EC2CF0460E010111
:1003A800A76F5A50D8A40BD0A50E0001606F010E9C
:1003B800616F020E626F030E636F24EC2CF04950DC
:1003C800D8A405D0000E0001E56F200E04D0000E61
:1003D8000001E56F050EE46FE4C0A9F1FB51D8A454
:1003E80004D0000EE76F200E03D0000EE76F010E59
:1003F800E66FE6C0AAF1900E816F010E826F2C0E97
:10040800836F7C0E846FFEC085F0866BF4C087F026
:10041800886B4FEC2BF0040E0101956F0001FA5127
:10042800D8A404D0000EE96F460E03D0000EE96F81
:10043800250EE86F7B0E816F010E826FD70E836FDA
:100448007B0E846F5DC085F0866BF3C087F0886B88
:10045800E8C089F0E9C08AF04FEC2BF0030E0101E7
:10046800806F660E0001816F010E826F2C0E836F04
:100478007F0E846FF60E606F000E616FF40E626F70
:10048800000E636F3F0EBCEC21F060C085F061C0C8
:1004980086F04FEC2BF05E50D8A40BD0660E00010E
:1004A800816F010E826F550E836F7C0E846F4FEC47
:1004B8002BF0080E5CEC2DF00009D8B405D0010E25
:1004C8000001FD6F010E456E020E5CEC2DF0000977
:1004D800D8A4442A010E5CEC2DF00009D8B40ED043
:1004E800FC0E0001656F000E666F010E676F010E4E
:1004F800686F0E0E696F2B0E5BEC27F0100E5CEC2C
:100508002DF00009D8B481D0FC0E0001656F000EF3
:10051800666F000E676F000E686F0E0E696F2B0E08
:100528005BEC27F072D0900E0001606F010E616FD6
:100538000F0E626F140E636F24EC2CF0400E5CEC0F
:100548002DF00009D8B40ED0F40E0001656F000E2E
:10055800666F550E676FA00E686F010E696F2B0EE0
:100568005BEC27F0200E5CEC2DF00009D8B45DD2CE
:10057800F40E0001656F000E666F550E676FA00ED2
:10058800686F010E696F2D0E5BEC27F04ED2595043
:10059800D8A438D07B0E0001606F010E616F0F0E7A
:1005A800626F140E636F24EC2CF0400E5CEC2DF09F
:1005B8000009D8B410D0F30E0001686F000E696FFF
:1005C800F40E6A6F000E6B6FF50E6C6F000E6D6F98
:1005D8002B0E5BEC22F0200E5CEC2DF00009D8B459
:1005E80024D2F30E0001686F000E696FF40E6A6F73
:1005F800000E6B6FF50E6C6F000E6D6F2D0E5BECC1
:1006080022F013D2000E446E10D24450010AD8B41E
:100618008AD7030AD8B4BBD7F5D7A60E0001816FD5
:10062800010E826F3F0E836F7D0E846FF4C085F0DC
:10063800866B4FEC2BF00001FA51D8A404D0000EC1
:10064800EB6F460E03D0000EEB6F250EEA6F910E8E
:10065800816F010E826F1E0E836F7E0E846FF3C052
:1006680085F0866BEAC087F0EBC088F04FEC2BF082
:100678007C0E0001816F010E826F520E836F7F0E18
:10068800846FF60E606F000E616FF40E626F000EDD
:10069800636F3F0EBCEC21F060C085F061C086F04E
:1006A8004FEC2BF0670E0001816F010E826F180E60
:1006B800836F7F0E846FF5512BEC2BF060C085F0B3
:1006C80061C086F04FEC2BF0B0D15950D8B405D0AA
:1006D800E30E0001EC6F7E0E04D0990E0001EC6F62
:1006E8007F0EED6FA60E816F010E826F5B0E836F1A
:1006F8007F0E846FECC085F0EDC086F04FEC2BF0D8
:100708000001FB51D8A404D0EE0EEE6F7E0E03D08C
:100718006D0EEE6F7F0EEF6F910E816F010E826F7F
:10072800220E836F7F0E846FEEC085F0EFC086F0D7
:100738004FEC2BF00001FC51D8A404D0040EF06F4C
:100748007F0E03D0A00EF06F7F0EF16F7C0E816FCD
:10075800010E826FF90E836F7E0E846FF0C085F0F4
:10076800F1C086F04FEC2BF0670E0001816F010E8F
:10077800826F910E836F7C0E846F4FEC2BF055D1F6
:10078800A60E0001816F010E826F7D0E836F7C0EB5
:10079800846F4FEC2BF0910E0001816F010E826F78
:1007A800A50E836F7C0E846F4FEC2BF03ED1A60E06
:1007B8000001816F010E826FBB0E836F7D0E846F07
:1007C8004DC085F0866B53C087F0886B4FEC2BF0DB
:1007D800910E0001816F010E826FCC0E836F7D0E2A
:1007E800846FFAC085F0866BF7C087F0886B4FEC92
:1007F8002BF07C0E0001816F010E826FDD0E836F7E
:100808007D0E846F52C085F0866B50C087F0886B70
:100818004FEC2BF0670E0001816F010E826FEE0E18
:10082800836F7D0E846F51C085F0866B55C087F04D
:10083800886B4FEC2BF0F9D0A60E0001816F010EEA
:10084800826F510E836F7D0E846F54C085F0866B66
:100858004BC087F04CC088F04FEC2BF0910E000194
:10086800816F010E826F630E836F7D0E846FFFC0F0
:1008780085F0866B4FC087F0886B4FEC2BF07C0EB1
:100888000001816F010E826F750E836F7D0E846F7C
:10089800F9C085F0866BF8C087F0886B4FEC2BF0B9
:1008A800670E0001816F010E826F360E836F7F0E17
:1008B800846F4EC085F0866B4FEC2BF0B6D0A50E3A
:1008C8000001816F010E826F750E836F7F0E846F3A
:1008D800C90E856F010E866F4FEC2BF0900E00014C
:1008E800816F010E826F640E836F7F0E846FBA0E64
:1008F800856F010E866F4FEC2BF07B0E0001816F28
:10090800010E826FA70E836F7F0E846FE20E856FD4
:10091800010E866F4FEC2BF04BC060F04CC061F0BD
:10092800000E0001636F270E626FC8EC2CF060C0E8
:10093800E2F061C0E3F0660E0001816F010E826F84
:10094800AA0E836F7D0E846FE2C085F0E3C086F047
:100958004FEC2BF06AD0A60E0001816F010E826F5A
:10096800690E836F7C0E846F4FEC2BF05ED073ECB6
:100978001AF05BD0A60E0001816F010E826F070E80
:10098800836F7D0E846F58C085F0866B4FEC2BF01B
:10099800910E0001816F010E826F1A0E836F7D0E1A
:1009A800846F57C085F0866B4FEC2BF07C0E0001EE
:1009B800816F010E826FF40E836F7C0E846F56C0B8
:1009C80085F0866B4FEC2BF0660E0001816F010EEF
:1009D800826F870E836F7D0E846F4FEC2BF025D0CE
:1009E800000E0001FD6F21D00001FD51000AD8B4AE
:1009F800B9D4010AD8B411D6030AD8B466D6010A04
:100A0800D8B4BED6060AD8B4D2D6030AD8B414D7F6
:100A18000E0AD8B454D7010AD8B49DD7030AD8B45B
:100A2800A6D7010AD8B4A6D7DBD70001FD05D8B4EC
:100A380008D0020EFD19D8B404D0030EFD19D8A4AD
:100A4800C0D1000E446E86D10A0E80D1010E00017D
:100A5800FD6F3E0E0101A56F400E5CEC2DF0000904
:100A6800D8B40ED0F40E0001656F000E666F3C0E10
:100A7800676FA00E686F010E696F2B0E5BEC27F095
:100A8800200E5CEC2DF00009D8B487D1F40E0001DB
:100A9800656F000E666F3C0E676FA00E686F010EE3
:100AA800696F2D0E5BEC27F078D13E0E0101906F37
:100AB8005950D8A472D1400E5CEC2DF00009D8B47E
:100AC80010D0F30E0001686F000E696FF40E6A6FA4
:100AD800000E6B6FF50E6C6F000E6D6F2B0E5BECDE
:100AE80022F0200E5CEC2DF00009D8B456D1F30E9C
:100AF8000001686F000E696FF40E6A6F000E6B6F6D
:100B0800F50E6C6F000E6D6F2D0E5BEC22F045D16B
:100B18003E0E01017B6F400E5CEC2DF00009D8B44D
:100B28002AD0F60E0001656F000E666F010E676F22
:100B3800040E686F040E696F2B0E5BEC27F0F60E3F
:100B48000001606F000E616FF40E626F000E636F3C
:100B5800410EBCEC21F0F30E0001686F000E696FC6
:100B6800F40E6A6F000E6B6FF50E6C6F000E6D6FF2
:100B7800410E5BEC22F0200E5CEC2DF00009D8B49D
:100B88000CD1F60E0001656F000E666F010E676FDF
:100B9800040E686F040E696F2D0E5BEC27F0F60EDD
:100BA8000001606F000E616FF40E626F000E636FDC
:100BB800410EBCEC21F0F30E0001686F000E696F66
:100BC800F40E6A6F000E6B6FF50E6C6F000E6D6F92
:100BD800410E5BEC22F0E1D0010E0001FD6F3E0EEC
:100BE8000101666F400E5CEC2DF00009D8B40ED000
:100BF800F50E0001656F000E666F010E676F030E3C
:100C0800686F050E696F2B0E5BEC27F0200E5CEC0D
:100C18002DF00009D8B4C1D0F50E0001656F000EA3
:100C2800666F010E676F030E686F050E696F2D0EF4
:100C38005BEC27F0B2D0020E0001FD6F3E0E010101
:100C4800A56F400E5CEC2DF00009D8A406D0200E4C
:100C58005CEC2DF00009D8B4A0D0590E0001656FE6
:100C6800000E666F000E676F010E686F060E696FE3
:100C78002B0E5BEC27F091D03E0E0101906F400ED9
:100C88005CEC2DF00009D8A406D0200E5CEC2DF009
:100C98000009D8B482D0FB0E0001656F000E666FA4
:100CA800000E676F010E686F030E696F2B0E5BEC09
:100CB80027F073D03E0E01017B6F400E5CEC2DF0E7
:100CC8000009D8A406D0200E5CEC2DF00009D8B499
:100CD80064D0FC0E0001656F000E666F000E676F32
:100CE800010E686F0E0E696F2B0E5BEC27F055D066
:100CF800020E0001FD6F3E0E0101666F020E5CECF4
:100D08002DF00009D8B449D00B0E0DD0030E000108
:100D1800FD6F3E0E0101A56F020E5CEC2DF000097F
:100D2800D8B43BD0080E0001FD6F37D0030E000188
:100D3800FD6F3E0E0101906F020E5CEC2DF0000974
:100D4800D8B42BD0050E0001FD6F02D0456E25D01A
:100D5800010EFCD74550000AD8B476D6010AD8B49B
:100D680075D6030AD8B4A1D6010AD8B4D1D6070AD1
:100D7800D8B432D7010AD8B45ED7030AD8B47CD71E
:100D8800010AD8B497D70F0AD8B4B2D7010AD8B491
:100D9800BDD7030AD8B4CAD7DBD7100E5CEC2DF048
:100DA8000009D8A4452A010E5CEC2DF00009D8A44E
:100DB8004506080E5CEC2DF00009D8B4F4D3000EFB
:100DC800F0D3050EFD19D8B404D0060EFD19D8A429
:100DD800EED2300E4D18D8B4A3D2010E456EA0D273
:100DE800050E0001FD6F3E0E0101A56F400E5CEC83
:100DF8002DF00009D8B40ED04D0E0001656F000E1D
:100E0800666F000E676F320E686F000E696F2B0EEB
:100E18005BEC27F0200E5CEC2DF00009D8B4AFD2C3
:100E28004D0E0001656F000E666F000E676F320E83
:100E3800686F000E696F2D0E5BEC27F0A0D23E0E96
:100E48000101906F400E5CEC2DF00009D8B40ED073
:100E5800FA0E0001656F000E666F000E676F010ED7
:100E6800686F070E696F2B0E5BEC27F0200E5CECA9
:100E78002DF00009D8B483D2FA0E0001656F000E78
:100E8800666F000E676F010E686F070E696F2D0E93
:100E98005BEC27F074D23E0E01017B6F400E5CECD8
:100EA8002DF00009D8B40ED0520E0001656F000E67
:100EB800666F010E676F0A0E686F0C0E696F2B0E56
:100EC8005BEC27F0200E5CEC2DF00009D8B457D26B
:100ED800520E0001656F000E666F010E676F0A0EF5
:100EE800686F0C0E696F2D0E5BEC27F048D23E0E32
:100EF8000101666F400E5CEC2DF00009D8B40ED0ED
:100F0800510E0001656F000E666F010E676F0A0EC5
:100F1800686F0D0E696F2B0E5BEC27F0200E5CECF2
:100F28002DF00009D8B42BD2510E0001656F000EC8
:100F3800666F010E676F0A0E686F0D0E696F2D0ED2
:100F48005BEC27F01CD23E0E0101B06F400E5CEC4A
:100F58002DF00009D8B40ED0530E0001656F000EB5
:100F6800666F010E676F0A0E686F0B0E696F2B0EA6
:100F78005BEC27F0200E5CEC2DF00009D8B4FFD113
:100F8800530E0001656F000E666F010E676F0A0E43
:100F9800686F0B0E696F2D0E5BEC27F0F0D13E0EDB
:100FA80001019B6F400E5CEC2DF00009D8B40ED007
:100FB800F70E0001656F000E666F000E676F0F0E6B
:100FC800686F100E696F2B0E5BEC27F0200E5CEC3F
:100FD8002DF00009D8B4D3D1F70E0001656F000ECB
:100FE800666F000E676F0F0E686F100E696F2D0E1B
:100FF8005BEC27F0C4D13E0E0101866F400E5CEC1D
:101008002DF00009D8B40ED0500E0001656F000E07
:10101800666F010E676F0F0E686F110E696F2B0EEA
:101028005BEC27F0200E5CEC2DF00009D8B4A7D1BA
:10103800500E0001656F000E666F010E676F0F0E90
:10104800686F110E696F2D0E5BEC27F098D1050EB5
:101058000001FD6F3E0E0101716F400E5CEC2DF03A
:101068000009D8B40ED0550E0001656F000E666FEA
:10107800010E676FFA0E686F120E696F2B0E5BEC2C
:1010880027F0200E5CEC2DF00009D8B478D1550E6D
:101098000001656F000E666F010E676FFA0E686FCC
:1010A800120E696F2D0E5BEC27F069D1060E000158
:1010B800FD6F3E0E0101A56F400E5CEC2DF000099E
:1010C800D8B40ED0540E0001656F000E666F000E86
:1010D800676FFA0E686F140E696F2B0E5BEC27F0C2
:1010E800200E5CEC2DF00009D8B449D1540E000153
:1010F800656F000E666F000E676FFA0E686F140E4C
:10110800696F2D0E5BEC27F03AD13E0E0101906F0E
:10111800400E5CEC2DF00009D8B40ED0FF0E000193
:10112800656F000E666F000E676F1E0E686F150EF6
:10113800696F2B0E5BEC27F0200E5CEC2DF000099C
:10114800D8B41DD1FF0E0001656F000E666F000E4A
:10115800676F1E0E686F150E696F2D0E5BEC27F01A
:101168000ED13E0E01017B6F400E5CEC2DF00009A4
:10117800D8B40ED0F90E0001656F000E666F000E30
:10118800676FFA0E686F160E696F2B0E5BEC27F00F
:10119800200E5CEC2DF00009D8B4F1D0F90E000156
:1011A800656F000E666F000E676FFA0E686F160E99
:1011B800696F2D0E5BEC27F0E2D03E0E0101666FE1
:1011C800400E5CEC2DF00009D8B40ED04E0E000194
:1011D800656F000E666F000E676F010E686F170E61
:1011E800696F2B0E5BEC27F0200E5CEC2DF00009EC
:1011F800D8B4C5D04E0E0001656F000E666F000EA4
:10120800676F010E686F170E696F2D0E5BEC27F084
:10121800B6D03E0E0101B06F400E5CEC2DF0000917
:10122800D8B40ED04B0E0001656F000E666F010E2C
:10123800676FFA0E686F190E696F2B0E5BEC27F05B
:10124800200E5CEC2DF00009D8B499D04B0E0001AB
:10125800656F000E666F010E676FFA0E686F190EE4
:10126800696F2D0E5BEC27F08AD03E0E01019B6F53
:10127800400E5CEC2DF00009D8B40ED04F0E0001E2
:10128800656F000E666F000E676F0F0E686F1B0E9E
:10129800696F2B0E5BEC27F0200E5CEC2DF000093B
:1012A800D8B46DD04F0E0001656F000E666F000E4A
:1012B800676F0F0E686F1B0E696F2D0E5BEC27F0C2
:1012C8005ED03E0E0101866F400E5CEC2DF00009E9
:1012D800D8B40ED0F80E0001656F000E666F000ED0
:1012E800676F3C0E686F1C0E696F2B0E5BEC27F066
:1012F800200E5CEC2DF00009D8B441D0F80E0001A6
:10130800656F000E666F000E676F3C0E686F1C0EEF
:10131800696F2D0E5BEC27F032D0010E456E2FD091
:101328004550010AD8B45CD5030AD8B488D5010A57
:10133800D8B4B1D5070AD8B4DAD5010AD8B403D6D7
:10134800030AD8B42CD6010AD8B455D60F0AD8B493
:101358007ED6010AD8B4AAD6030AD8B4D6D6010ACA
:10136800D8B4FFD6070AD8B428D7010AD8B451D7B9
:10137800030AD8B47AD7010AD8B4A3D7CED7100EA7
:101388005CEC2DF00009D8A4452A010E5CEC2DF088
:101398000009D8A44506080E5CEC2DF00009D8B465
:1013A80002D1000E0001FD6F000E4D6EFCD0080E3C
:1013B800FD19D8B430D0090EFD19D8B42CD047D0B7
:1013C800080E0001FD6F2FD0090E0001FD6F3E0EC3
:1013D8000101A56F020E5CEC2DF00009D8B423D0F2
:1013E8008988000E0001616F640E606FB3EC2CF009
:1013F8008998030E0001616F200E606FB3EC2CF02A
:101408000A0E0001FD6F000E3D6E0F0E3E6E0BD0F2
:10141800010E456E08D04550010AD8B4D1D7030A49
:10142800D8B4D2D7F5D7100E5CEC2DF00009D8A4AB
:10143800452A010E5CEC2DF00009D8A44506080EDB
:101448005CEC2DF00009D8B4AED0030EAAD00B0E78
:10145800FD19D8B488D0A7D03E0E0101A56F400E63
:101468005CEC2DF00009D8B40ED0580E0001656F61
:10147800000E666F000E676F1E0E686F080E696FAC
:101488002B0E5BEC27F0200E5CEC2DF00009D8B495
:1014980075D0580E0001656F000E666F000E676FFD
:1014A8001E0E686F080E696F2D0E5BEC27F066D074
:1014B8003E0E0101906F400E5CEC2DF00009D8B48F
:1014C8000ED0570E0001656F000E666F000E676F35
:1014D8001E0E686F090E696F2B0E5BEC27F0200E4D
:1014E8005CEC2DF00009D8B449D0570E0001656FA7
:1014F800000E666F000E676F1E0E686F090E696F2B
:101508002D0E5BEC27F03AD03E0E01017B6F400EAA
:101518005CEC2DF00009D8B40ED0560E0001656FB2
:10152800000E666F000E676F1E0E686F0A0E696FF9
:101538002B0E5BEC27F0200E5CEC2DF00009D8B4E4
:101548001DD0560E0001656F000E666F000E676FA6
:101558001E0E686F0A0E696F2D0E5BEC27F00ED019
:10156800010E456E0BD04550010AD8B475D7030A51
:10157800D8B49ED7010AD8B4C7D7F2D7100E5CECFE
:101588002DF00009D8A4452A010E5CEC2DF00009C5
:10159800D8A44506080E5CEC2DF00009D8B403D099
:1015A800020E0001FD6F3DEC2CF0A50E0001686FE6
:1015B800010E696F900E6A6F010E6B6F7B0E6C6F78
:1015C800010E6D6F660E6E6F010E6F6F32EC25F0B7
:1015D80073EF01F0000E0001676F6451D8B406D3B1
:1015E8001AD361BF06D0615106E15B0E605DD8B0C9
:1015F80002D0550E4BD05B0E60196111D8A402D0F1
:10160800560E44D05C0E60196111D8A402D0570E52
:101618003DD05D0E60196111D8A402D0580E36D0A5
:101628005E0E60196111D8A402D0590E2FD05F0E3A
:1016380060196111D8A402D05A0E28D0600E601922
:101648006111D8A402D05B0E21D0610E601961111E
:10165800D8A402D05C0E1AD0620E60196111D8A409
:1016680002D05D0E13D0630E60196111D8A402D0A8
:101678005E0E0CD0640E60196111D8B482EF0FF0C1
:10168800650E60196111D8A404D0F2D7676FD3EF43
:1016980012F061BF0ED0615104E1660E605DD8A002
:1016A80008D061BFE5D7615104E16C0E605DD8A038
:1016B800DFD761BF10D0615104E16C0E605DD8A026
:1016C8000AD061BF82EF0FF0615105E1770E605DCE
:1016D800D8A082EF0FF0770E60196111D8B475EFBA
:1016E8000FF0780E60196111D8B4FBD3790E601928
:1016F8006111D8B4EED37A0E60196111D8B4E9D368
:101708007B0E60196111D8B40EEF11F07C0E6019D0
:101718006111D8B40EEF11F07D0E60196111D8B4C3
:10172800FBEF10F07E0E60196111D8B4FBEF10F0DA
:101738007F0E60196111D8B4F3EF10F0800E6019B4
:101748006111D8B4F3EF10F0810E60196111D8B4AB
:10175800BBD1820E60196111D8B4B6D1830E60195D
:101768006111D8B4BDD1840E60196111D8B4B8D153
:10177800850E60196111D8B4BFD1860E6019611148
:10178800D8B4BAD161BF0ED0615104E1870E605D53
:10179800D8A008D061BFEDD0615104E1930E605D1F
:1017A800D8A0E7D061BF0ED0615104E1930E605D0F
:1017B800D8A008D061BFB2D1615104E1970E605D35
:1017C800D8A0ACD1970E60196111D8B4B3D1980ED6
:1017D80060196111D8B4AED1990E60196111D8B4ED
:1017E800B5D19A0E60196111D8B4C2D19B0E601997
:1017F8006111D8B4BDD19C0E60196111D8B4C4D19F
:101808009D0E60196111D8B4BFD19E0E6019611187
:10181800D8B4E4D09F0E60196111D8B4DFD061BF8D
:10182800D3EF12F0615101E1E0D0C6D161BFF6D625
:10183800615104E15B0E605DD8A0F0D65B0E6019C3
:101848006111D8B4F2D65C0E60196111D8B4F4D61F
:101858005D0E60196111D8B4F6D65E0E601961117B
:10186800D8B4F8D65F0E60196111D8B4FAD6600EF4
:1018780060196111D8B4FCD6610E60196111D8B431
:101888003DD361BF0ED0615104E1620E605DD8A006
:1018980008D061BF26D3615104E1650E605DD8A010
:1018A80020D361BF0ED0615104E1650E605DD8A000
:1018B80008D061BF0ED3615104E1780E605DD8A0F5
:1018C80008D361BF10D0615104E1780E605DD8A0E3
:1018D8000AD061BF0EEF11F0615105E17B0E605D2A
:1018E800D8A00EEF11F07B0E60196111D8B4FBEF90
:1018F80010F07C0E60196111D8B4FBEF10F07D0E6A
:1019080060196111D8B4F3EF10F07E0E60196111FF
:10191800D8B4F3EF10F07F0E60196111D8B4D4D0A9
:10192800800E60196111D8B4CFD0810E6019611191
:10193800D8B4D6D0820E60196111D8B4D1D0830E34
:1019480060196111D8B4D8D0840E60196111D8B467
:10195800D3D061BF10D0615104E1850E605DD8A07D
:101968000AD061BF06D0615106E1950E605DD8B01E
:1019780002D0680E8BD661BF0ED0615104E1950E7E
:10198800605DD8A008D061BFC9D0615104E1990E4B
:10199800605DD8A0C3D0990E60196111D8B4CAD0BF
:1019A8009A0E60196111D8B4D1D09B0E60196111DB
:1019B800D8B4DED09C0E60196111D8B4D9D09D0E70
:1019C80060196111D8B4E0D09E0E60196111D8B4C5
:1019D800DBD09F0E60196111D8A402D06E0E56D6C6
:1019E80061BFD3EF12F0615105E1A00E605DD8A090
:1019F800D3EF12F0E1D061BF1FD6615104E15B0E55
:101A0800605DD8A019D65B0E60196111D8B41BD6D9
:101A18005C0E60196111D8B41DD65D0E6019611194
:101A2800D8B41FD65E0E60196111D8B421D65F0EE6
:101A380060196111D8B462D2600E60196111D8B40E
:101A48005DD2610E60196111D8B44BD2620E601973
:101A58006111D8B446D2630E60196111D8B439D275
:101A680061BF0ED0615104E1640E605DD8A008D05A
:101A780061BFD0D3615104E1680E605DD8A0CAD3BC
:101A8800680E60196111D8B4B2D3690E601961117A
:101A9800D8B4ADD361BF0ED0615104E16A0E605D68
:101AA800D8A008D061BF9BD3615104E17B0E605D73
:101AB800D8A095D37B0E60196111D8B405D07C0EDF
:101AC80060196111D8A402D0650EE0D57D0E6019A9
:101AD8006111D8B405D07E0E60196111D8A402D066
:101AE800660ED4D57F0E60196111D8B405D0800E6A
:101AF80060196111D8A402D0670EC8D561BF10D093
:101B0800615104E1810E605DD8A00AD061BF06D0A2
:101B1800615106E18B0E605DD8B002D0690EB6D572
:101B28008B0E60196111D8B405D08C0E6019611143
:101B3800D8A402D06A0EAAD58D0E60196111D8B446
:101B480005D0920E60196111D8A402D06B0E9ED5F3
:101B580061BF10D0615104E1930E605DD8A00AD036
:101B680061BF06D0615106E1980E605DD8B002D021
:101B78006C0E8CD5990E60196111D8B405D0980EE9
:101B880060196111D8A402D06D0E80D59B0E601922
:101B98006111D8B405D09A0E60196111D8A402D089
:101BA8006F0E74D59D0E60196111D8B405D09C0EC6
:101BB80060196111D8A402D0700E68D59F0E601903
:101BC8006111D8B405D09E0E60196111D8A402D055
:101BD800710E5CD561BFD3EF12F0615105E1A00E23
:101BE800605DD8A0D3EF12F0730E50D562C065F0D7
:101BF80063C066F06651000AD8A4D3EF12F06551AD
:101C0800010AD8B4EED4030AD8B410D6010AD8B45D
:101C1800F2D6D3EF12F06405D8B4C8EF12F0D3EFC0
:101C280012F061BF17D5615104E15B0E605DD8A069
:101C380011D55B0E60196111D8B40CD55C0E601912
:101C48006111D8B4F9D45D0E60196111D8B4EDD41E
:101C580061BF0ED0615104E15E0E605DD8A008D06E
:101C680061BFDCD4615104E1650E605DD8A0D6D4B3
:101C780061BF0ED0615104E1650E605DD8A008D047
:101C880061BFFED2615104E1670E605DD8A0F8D251
:101C9800670E60196111D8B403D3680E6019611119
:101CA800D8B406D3690E60196111D8B479D16A0E17
:101CB80060196111D8B40FD36B0E60196111D8B4D3
:101CC80012D36C0E60196111D8A402D0430EDED471
:101CD8006D0E60196111D8B40ED36E0E60196111C2
:101CE800D8B47ED161BF0ED0615104E16F0E605D42
:101CF800D8A008D061BF17D3615104E1730E605DAD
:101D0800D8A011D3730E60196111D8B414D3740E0E
:101D180060196111D8B417D3750E60196111D8A470
:101D280002D0360EB3D4760E60196111D8B423D31D
:101D3800770E60196111D8B426D3780E6019611135
:101D4800D8B48DD1790E60196111D8B42CD37A0E1C
:101D580060196111D8A402D02E0E98D47B0E601998
:101D68006111D8B428D37C0E60196111D8B489D117
:101D78007D0E60196111D8B426D37E0E60196111E9
:101D8800D8B487D17F0E60196111D8B42CD3800ED6
:101D980060196111D8B427D3810E60196111D8B4C4
:101DA8002AD3820E60196111D8A402D0260E6ED4EF
:101DB800830E60196111D8B426D3840E601961119D
:101DC800D8B429D3850E60196111D8B424D3860EEE
:101DD80060196111D8B41FD3870E60196111D8B486
:101DE80022D3880E60196111D8B425D3890E6019E1
:101DF8006111D8B428D38A0E60196111D8B42BD3D5
:101E08008B0E60196111D8B42ED38C0E6019611134
:101E1800D8B431D38D0E60196111D8B434D38E0E75
:101E280060196111D8B437D38F0E60196111D8B415
:101E38003AD3900E60196111D8B43DD3910E601950
:101E48006111D8B440D3920E60196111D8B443D34C
:101E5800930E60196111D8B446D3940E60196111BC
:101E6800D8B449D3950E60196111D8B44CD3960EE5
:101E780060196111D8B44FD3970E60196111D8B4A5
:101E880052D3980E60196111D8B455D361BF0ED0E2
:101E9800615104E1990E605DD8A008D061BF5ED39E
:101EA800615104E19D0E605DD8A058D39D0E601964
:101EB8006111D8B45BD361BF72D3615101E182D1A2
:101EC80060D361BF06D0615107E15B0E605DD8B099
:101ED80003D0610E4AEF0BF05B0E60196111D8A4B4
:101EE80003D0600E4AEF0BF05C0E60196111D8B494
:101EF80005D05C0E60196111D8A403D05F0E4AEFBB
:101F08000BF05D0E60196111D8B43CEF0BF061BFA6
:101F180010D0615104E15E0E605DD8A00AD061BFA7
:101F280035EF0BF0615105E1650E605DD8A035EF26
:101F38000BF061BF11D0615104E1650E605DD8A05E
:101F48000BD061BF06D0615107E1670E605DD8B064
:101F580003D0530E4AEF0BF0670E60196111D8A435
:101F680003D0510E4AEF0BF0680E60196111D8B416
:101F78007FD1690E60196111D8B48AD16A0E6019CF
:101F88006111D8B495D16B0E60196111D8A403D032
:101F9800490E4AEF0BF06C0E60196111D8A403D0FA
:101FA800480E4AEF0BF06D0E60196111D8A403D0EA
:101FB800470E4AEF0BF06E0E60196111D8B48BD141
:101FC80061BF11D0615104E16F0E605DD8A00BD0E4
:101FD80061BF06D0615107E1730E605DD8B003D0D0
:101FE800410E4AEF0BF0730E60196111D8A403D0AB
:101FF8003F0E4AEF0BF0740E60196111D8A403D09C
:102008003D0E4AEF0BF0750E60196111D8A403D08C
:102018003B0E4AEF0BF0760E60196111D8A403D07D
:10202800390E4AEF0BF0770E60196111D8B493D1CD
:10203800780E60196111D8B496D1790E60196111C2
:10204800D8A403D0330E4AEF0BF07A0E6019611151
:10205800D8B499D17B0E60196111D8A403D0300E81
:102068004AEF0BF07C0E60196111D8B49CD17D0E3B
:1020780060196111D8B49FD17E0E60196111D8A47E
:1020880003D02C0E4AEF0BF07F0E60196111D8A413
:1020980003D02A0E4AEF0BF0800E60196111D8B4F4
:1020A8009AD1810E60196111D8B495D1820E601948
:1020B8006111D8B498D1830E60196111D8B493D145
:1020C800840E60196111D8B496D1850E601961111A
:1020D800D8B491D1860E60196111D8B49CD1870EFD
:1020E80060196111D8B49FD1880E60196111D8B4F4
:1020F800A2D1890E60196111D8B4A5D18A0E6019D0
:102108006111D8B4A8D18B0E60196111D8B4ABD1C4
:102118008C0E60196111D8B4AED18D0E60196111A1
:10212800D8B4B1D18E0E60196111D8B4B4D18F0E64
:1021380060196111D8B4B7D1900E60196111D8B483
:10214800BAD1910E60196111D8B4BDD1920E60193F
:102158006111D8B4C0D1930E60196111D8B4C3D13C
:10216800940E60196111D8B4C6D1950E6019611129
:10217800D8B4C9D1960E60196111D8B4CCD1970ED4
:1021880060196111D8B4CFD1980E60196111D8B413
:10219800D2D161BF0ED0615104E1990E605DD8A023
:1021A80008D061BFDBD1615104E19D0E605DD8A00C
:1021B800D5D19D0E60196111D8B4D8D161BFEFD1C6
:1021C800615104E19E0E605DD8A0E9D1DAD161BF0A
:1021D80006D0615107E15D0E605DD8B003D0640E92
:1021E8004AEF0BF05D0E60196111D8A403D0630E9D
:1021F8004AEF0BF061BF11D0615104E15E0E605DE2
:10220800D8A00BD061BF06D0615107E1650E605DB3
:10221800D8B003D0620E4AEF0BF061BF10D0615105
:1022280004E1650E605DD8A00AD061BF12EF0BF023
:10223800615105E1670E605DD8A012EF0BF0670EE3
:1022480060196111D8B404EF0BF0680E60196111C0
:10225800D8B4FDEF0AF0690E60196111D8A403D053
:10226800520E4AEF0BF06A0E60196111D8A403D020
:10227800500E4AEF0BF06B0E60196111D8A403D011
:102288004E0E4AEF0BF06C0E60196111D8A403D002
:102298004D0E4AEF0BF06D0E60196111D8A403D0F2
:1022A8004C0E4AEF0BF06E0E60196111D8A403D0E2
:1022B8004B0E4AEF0BF061BF11D0615104E16F0E74
:1022C800605DD8A00BD061BF06D0615107E1730EE5
:1022D800605DD8B003D0460E4AEF0BF0730E60195C
:1022E8006111D8A403D0440E4AEF0BF0740E6019A4
:1022F8006111D8A403D0420E4AEF0BF0750E601995
:102308006111D8A403D0400E4AEF0BF0760E601985
:102318006111D8A403D03E0E4AEF0BF0770E601976
:102328006111D8A403D03C0E4AEF0BF0780E601967
:102338006111D8A403D03A0E4AEF0BF0790E601958
:102348006111D8A403D0380E4AEF0BF07A0E601949
:102358006111D8A403D0370E4AEF0BF07B0E601939
:102368006111D8A403D0350E4AEF0BF07C0E60192A
:102378006111D8A403D0340E4AEF0BF07D0E60191A
:102388006111D8A403D0320E4AEF0BF07E0E60190B
:102398006111D8A403D0310E4AEF0BF07F0E6019FB
:1023A8006111D8A403D02F0E4AEF0BF0800E6019EC
:1023B8006111D8A403D02D0E4AEF0BF0810E6019DD
:1023C8006111D8A403D02B0E4AEF0BF0820E6019CE
:1023D8006111D8A403D0290E4AEF0BF0830E6019BF
:1023E8006111D8A403D0280E4AEF0BF0840E6019AF
:1023F8006111D8A403D0270E4AEF0BF0850E60199F
:102408006111D8A403D0250E4AEF0BF0860E60198F
:102418006111D8A403D0240E4AEF0BF0870E60197F
:102428006111D8A403D0230E4AEF0BF0880E60196F
:102438006111D8A403D0220E4AEF0BF0890E60195F
:102448006111D8A403D0210E4AEF0BF08A0E60194F
:102458006111D8A403D0200E4AEF0BF08B0E60193F
:102468006111D8A403D01F0E4AEF0BF08C0E60192F
:102478006111D8A403D01E0E4AEF0BF08D0E60191F
:102488006111D8A403D01D0E4AEF0BF08E0E60190F
:102498006111D8A403D01C0E4AEF0BF08F0E6019FF
:1024A8006111D8A403D01B0E4AEF0BF0900E6019EF
:1024B8006111D8A403D01A0E4AEF0BF0910E6019DF
:1024C8006111D8A403D0190E4AEF0BF0920E6019CF
:1024D8006111D8A403D0180E4AEF0BF0930E6019BF
:1024E8006111D8A403D0170E4AEF0BF0940E6019AF
:1024F8006111D8A403D0160E4AEF0BF0950E60199F
:102508006111D8A403D0150E4AEF0BF0960E60198E
:102518006111D8A403D0140E4AEF0BF0970E60197E
:102528006111D8A403D0130E4AEF0BF0980E60196E
:102538006111D8A403D0120E4AEF0BF061BF11D07D
:10254800615104E1990E605DD8A00BD061BF06D03F
:10255800615107E19D0E605DD8B003D0110E4AEFBE
:102568000BF09D0E60196111D8A403D0100E4AEF2C
:102578000BF061BF14D0615104E19E0E605DD8A0DC
:102588000ED00F0E4AEF0BF0F551010AD8B415EF33
:102598000EF0030AD8B495D4010AD8B418D667C087
:1025A80060F0616B1200CCD2250E00018019D8B4FE
:1025B80033D020EE02F06C51D9266D51DA22DE506C
:1025C800DE10D8B413D020EE02F06C51D9266D512C
:1025D800DA2201D8B5D20500FA6EDE50FD6EDE5063
:1025E800FE6EF850FF6EFA50805112006CC0D9FF91
:1025F8006DC0DAFFDECF72F0DDCF73F072C0D9FFA5
:1026080073C0DAFF80C0DFFF6CC0D9FF6DC0DAFF8E
:10261800DE2A000EDD2294D2000E00017F6F000E2C
:102628007E6F000E776F6EC0F6FF6FC0F7FF080071
:10263800F5503CEC2DF0D8A03CD1000E00017F6F86
:10264800000E7E6F7EC060F07FC061F0000E00015A
:10265800636F0A0E626FC8EC2CF060C07EF061C038
:102668007FF0D00E0001726FFF0E736F6EC0F6FF21
:102678006FC0F7FF0800F550746F756B72517427BF
:102688007351752374517E2775517F236E4B6F2BC1
:102698006EC0F6FF6FC0F7FF0800F5503CEC2DF058
:1026A800D8A007D1CFD770C0D9FF71C0DAFFDFCF6C
:1026B80072F0020EDE26DFCF73F0000EDD2272C04C
:1026C800D9FF73C0DAFFDECF7CF0DDCF7DF00001EB
:1026D8007C517D11D8A404D07D0E7C6F7F0E7D6F58
:1026E800000E7B6F000E7A6F03D000017A4B7B2BB4
:1026F8007A517C25726F7B517D21736F72C0F6FF12
:1027080073C0F7FFF86A070EF76403D00800F550A6
:1027180005D0F6CFE9FFF7CFEAFFEF500009D8A4BC
:10272800E4D700017E517A5D7F517B59D8B005D03E
:102738007A517E5F7B517F5B37D0000E7F6F000E32
:102748007E6F32D020EE02F06C51D9266D51DA221C
:10275800DE50DE10D8B413D020EE02F06C51D9262A
:102768006D51DA2201D820D00500FA6EDE50FD6ED8
:10277800DE50FE6EF850FF6EFA50200E12006CC04C
:10278800D9FF6DC0DAFFDECF72F0DDCF73F072C013
:10279800D9FF73C0DAFF200EDF6E6CC0D9FF6DC0A1
:1027A800DAFFDE2A000EDD2200017E07D8A07F07AF
:1027B8007E29C8E17F29D8B458D0C4D720EE02F0CA
:1027C8006C51D9266D51DA22DE50DE10D8B426D0ED
:1027D80020EE02F06C51D9266D51DA2201D81AD0B8
:1027E8000500FA6EDE50FD6EDE50FE6EF850FF6E8C
:1027F800FA507CC0F6FF7DC0F7FFF86A070EF76451
:1028080003D00800F55005D0F6CFE9FFF7CFEAFF6F
:10281800EF50120000017C4B7D2B27D07CC0F6FFC7
:102828007DC0F7FFF86A6CC0D9FF6DC0DAFFDECF54
:1028380072F0DDCF73F072C0D9FF73C0DAFF070EF4
:10284800F76403D00800F55005D0F6CFE9FFF7CFBD
:10285800EAFFEF50DF6E00017C4B7D2B6CC0D9FF87
:102868006DC0DAFFDE2A000EDD227A07D8A07B07CA
:102878007A29A4E17B29D8B463D1A0D770C0D9FF45
:1028880071C0DAFFDFCF72F0020EDE26DFCF73F001
:10289800000EDD2272C0D9FF73C0DAFFDF50806FEF
:1028A800800E7C6F000E7D6F000E7B6F010E7A6FBD
:1028B80038D76EC0F6FF6FC0F7FF00016E4B6F2B65
:1028C8000800F5CF80F08051000AD8B446D1630AD9
:1028D800D8B4D4D7070AD8B407D00D0AD8B404D0CE
:1028E8001A0AD8B4E0D6DCD770C0D9FF71C0DAFFB5
:1028F800DFCF72F0020EDE26DFCF73F0000EDD228E
:1029080072C0D9FF73C0DAFFDECF78F0DDCF79F07F
:10291800000179AF06D0030E7713786D791FD8B010
:10292800792B010E806F050E8019D8B412D0805112
:10293800020DB70EF324F66E780EF420F76E090038
:10294800F550785D0900F5507959D8A002D0802B50
:10295800EAD77E517F11D8B409D077C072F0030E40
:102968007217D8B403D07E07D8A07F07800E80BF27
:102978007F0E726F7E51805D7F51800A7259D8B088
:1029880007D080517E5F000E80BFFF0E7F5B04D0B2
:10299800000E7F6F000E7E6F7E517F11D8B43AD043
:1029A80020EE02F06C51D9266D51DA22DE50DE108D
:1029B800D8B413D020EE02F06C51D9266D51DA222A
:1029C80001D820D00500FA6EDE50FD6EDE50FE6E96
:1029D800F850FF6EFA50200E12006CC0D9FF6DC07F
:1029E800DAFFDECF72F0DDCF73F072C0D9FF73C0AB
:1029F800DAFF200EDF6E6CC0D9FF6DC0DAFFDE2A69
:102A0800000EDD2200017E07D8A07F077E517F11CE
:102A1800D8A4C6D777C072F0030E7217D8B432D0D4
:102A280020EE02F06C51D9266D51DA22DE50DE100C
:102A3800D8B413D020EE02F06C51D9266D51DA22A9
:102A480001D820D00500FA6EDE50FD6EDE50FE6E15
:102A5800F850FF6EFA502D0E12006CC0D9FF6DC0F1
:102A6800DAFFDECF72F0DDCF73F072C0D9FF73C02A
:102A7800DAFF2D0EDF6E6CC0D9FF6DC0DAFFDE2ADB
:102A8800000EDD2280C076F056D000017651020D8E
:102A9800B70EF324F66E780EF420F76E0900F5CF22
:102AA80062F00A00F5CF63F078C060F079C061F099
:102AB800AFEC2AF060C067F061C068F0000E00015A
:102AC8006A6F0A0E696F71EC2BF000016751300FC5
:102AD800806F20EE02F06C51D9266D51DA22DE505B
:102AE800DE10D8B413D020EE02F06C51D9266D5107
:102AF800DA2201D820D00500FA6EDE50FD6EDE50D5
:102B0800FE6EF850FF6EFA50805112006CC0D9FF6B
:102B18006DC0DAFFDECF72F0DDCF73F072C0D9FF7F
:102B280073C0DAFF80C0DFFF6CC0D9FF6DC0DAFF69
:102B3800DE2A000EDD22000176077629D8A4A5D763
:102B48006EC0F6FF6FC0F7FF00016E4B6F2B0800D9
:102B5800F5CF80F08051D8A427D5000E00016D6F05
:102B6800000E6C6F1200000E0001B36F000EB46F00
:102B7800000EB56F000EB66F3650D8A4F3D10A0E0A
:102B8800366E0A0E356005D0352A35C0ABF0AC6B11
:102B980004D0000EAC6F000EAB6FABC035F0000E6A
:102BA800B46F000EB56F000EB66F000EB36F0B0E4C
:102BB800B36501D042D0000E7E6F000E7F6F420ECB
:102BC800806F000E6F6F610E706F3F0E716F000E99
:102BD800F8EC27F060C069F061C06AF004EC2DF0F1
:102BE80069C06CF06AC06DF06BC06EF0D6EC23F073
:102BF8006CC07BF06DC07CF06EC07DF0E5EC20F021
:102C08007BC0B0F07CC0B1F07DC0B2F0B4C07BF046
:102C1800B5C07CF0B6C07DF0B0C07EF0B1C07FF02A
:102C2800B2C080F0E5EC20F07BC0B4F07CC0B5F019
:102C38007DC0B6F00001B32BBAD7B4C087F0B5C0D9
:102C480088F0B6C089F0000E8A6F400E8B6F410E77
:102C58008C6F51EC24F087C0B4F088C0B5F089C0FF
:102C6800B6F0000E0001606F140E616F420E626FC5
:102C7800B4C063F0B5C064F0B6C065F092EC28F05B
:102C88000001D8B015D0B4C07BF0B5C07CF0B6C098
:102C98007DF0000E7E6F800E7F6F3F0E806FE5EC3B
:102CA80020F07BC0A5F07CC0A6F07DC0A7F007D0BF
:102CB800000E0001A56F000EA66F000EA76F35501D
:102CC800030D210EF324D96E010EF420DA6EA5C08F
:102CD800DEFFA6C0DEFFA7C0DEFF000E0001B46F56
:102CE800000EB56F000EB66FFA05D8A47ED0000EA0
:102CF800AD6F000EAE6F000EAF6F000EB36F0B0E10
:102D0800B36501D0BAD0750E7E6F530E7F6FBF0EBC
:102D1800806F000E6F6FA00E706F3B0E716F010E0B
:102D2800F8EC27F060C069F061C06AF004EC2DF09F
:102D380069C06CF06AC06DF06BC06EF0D6EC23F021
:102D48006CC07BF06DC07CF06EC07DF0E5EC20F0CF
:102D58007BC087F07CC088F07DC089F0060E00013A
:102D68008A6F010E8B6F3D0E8C6F51EC24F087C07B
:102D7800ADF088C0AEF089C0AFF0ADC060F0AEC0B5
:102D880061F0AFC062F0000E0001636F200E646F47
:102D9800410E656F92EC28F00001D8B00FD0B4C096
:102DA8007BF0B5C07CF0B6C07DF0000E7E6F000EE3
:102DB8007F6F000E806FE5EC20F00ED0B4C07BF082
:102DC800B5C07CF0B6C07DF0ADC07EF0AEC07FF07F
:102DD800AFC080F0E5EC20F07BC0B4F07CC0B5F06B
:102DE8007DC0B6F00001B32B8AD7000EB36F0B0E6F
:102DF800B36501D042D0000E7E6F000E7F6F420E89
:102E0800806F000E6F6F610E706F3F0E716F020E54
:102E1800F8EC27F060C069F061C06AF004EC2DF0AE
:102E280069C06CF06AC06DF06BC06EF0D6EC23F030
:102E38006CC07BF06DC07CF06EC07DF0E5EC20F0DE
:102E48007BC0B0F07CC0B1F07DC0B2F0B4C07BF004
:102E5800B5C07CF0B6C07DF0B0C07EF0B1C07FF0E8
:102E6800B2C080F0E5EC20F07BC0B4F07CC0B5F0D7
:102E78007DC0B6F00001B32BBAD7B4C087F0B5C097
:102E880088F0B6C089F0000E8A6F400E8B6F410E35
:102E98008C6F51EC24F087C0B4F088C0B5F089C0BD
:102EA800B6F00001FA05D8A42ED0000E606FC80E47
:102EB800616F420E626FB4C063F0B5C064F0B6C013
:102EC80065F092EC28F00001D8B006D0000EB46F7F
:102ED800C80EB56F420EB66FB4C060F0B5C061F0F1
:102EE800B6C062F0000E636F200E646F410E656F0E
:102EF80092EC28F00001D8B006D0000EB46F000E96
:102F0800B56F000EB66FB4C060F0B5C061F0B6C062
:102F180062F0000E636F200E646F420E656F92ECD4
:102F280028F00001D8B003D0FA51D8B407D0B4C003
:102F3800A8F0B5C0A9F0B6C0AAF006D0000EA86FD8
:102F4800000EA96F000EAA6F3550030D000EF32472
:102F5800D96E010EF420DA6EA8C0DEFFA9C0DEFF2C
:102F6800AAC0DEFF000EB36F000EB46F000EB56F7F
:102F7800000EB66F000EB36F090EB36501D01FD0F7
:102F8800B4C07BF0B5C07CF0B6C07DF0B351030D82
:102F9800210EF324D96E010EF420DA6EDECF7EF016
:102FA800DECF7FF0DDCF80F0E5EC20F07BC0B4F021
:102FB8007CC0B5F07DC0B6F00001B32BDDD7000EA4
:102FC8008A6F200E8B6F410E8C6FB4C087F0B5C02E
:102FD80088F0B6C089F051EC24F087C096F088C01C
:102FE80097F089C098F0DEEC22F000019651FE6F50
:102FF800000EB36F000EB46F000EB56F000EB66F03
:10300800000EB36F090EB36501D01FD0B4C07BF0BA
:10301800B5C07CF0B6C07DF0B351030D000EF324AB
:10302800D96E010EF420DA6EDECF7EF0DECF7FF0AF
:10303800DDCF80F0E5EC20F07BC0B4F07CC0B5F0CB
:103048007DC0B6F00001B32BDDD7000E8A6F200ECD
:103058008B6F410E8C6FB4C087F0B5C088F0B6C0D6
:1030680089F051EC24F087C096F088C097F089C0A9
:1030780098F0DEEC22F0000196515D6E12003E5091
:10308800D8A405D0000E3D6E0A0E3E6E1200E20E68
:103098000001606F010E616F84EC2AF00C0E0001D4
:1030A80060196111D8B4B8D112D2DD0E0001916F48
:1030B8007F0E926F16EC2AF04A0E0001816F7E0E89
:1030C800826FD3EC2BF0000E496E3D2A1200F10EF0
:1030D8000001746F7F0E756FDCEC2CF00009D8B41A
:1030E80012003D2A1200DD0E0001916F7F0E926FD3
:1030F80016EC2AF03C0E0001816F7E0E826FD3EC35
:103108002BF03D2A1200F10E0001746F7F0E756FCF
:10311800DCEC2CF00009D8A40AD0CB0E0001746FA7
:103128007F0E756FDCEC2CF00009D8B412003D2A34
:103138001200DD0E0001916F7F0E926F16EC2AF0DF
:10314800000E0001616F0A0E606FB3EC2CF0ED0EFB
:103158000001816F7B0E826FC90E836F010E846F31
:10316800BA0E856F010E866FD3EC2BF03D2A230E25
:103178003E6E12003D2A1200DD0E0001916F7F0E97
:10318800926F16EC2AF0100E3E6012000F0E00012E
:10319800816F7E0E826FD3EC2BF03D2A1200FA0E5F
:1031A8000001746F7F0E756FDCEC2CF00009D8A459
:1031B8000AD0FC0E0001746F7F0E756FDCEC2CF0EA
:1031C8000009D8B41200010E496E3D2A1200DD0E26
:1031D8000001916F7F0E926F16EC2AF0760E0001B7
:1031E800816F7B0E826FD3EC2BF03D2A1200F10E1B
:1031F8000001746F7F0E756FDCEC2CF00009D8B4F9
:1032080012003D2A1200DD0E0001916F7F0E926FB1
:1032180016EC2AF0E10E0001816F7C0E826FD3EC70
:103228002BF03D2A12007B0E0001746F7C0E756F27
:10323800DCEC2CF00009D8B412003D2A1200D90E9B
:103248000001916F7F0E926F16EC2AF0000E0001BC
:10325800D66FC50E816F000E826F1F0E836F7F0EB3
:10326800846F9E0E856F7E0E866F4FEC2BF0000EDE
:103278000001D66F17D0D651010DC50EF324D96EB3
:10328800000EF420DA6E200EDE18D8A40AD0D6512B
:10329800010DC50EF324D96E000EF420DA6E2D0E42
:1032A800DF6ED62BC50E606F000E616F84EC2AF0BE
:1032B8000001D651C36FC46B6051C35D6151C459DD
:1032C800D8A0D9D74BC060F04CC061F0000E636F36
:1032D800270E626FC8EC2CF060C0D4F061C0D5F046
:1032E800A10E0001816F7A0E826FFEC083F0846B9D
:1032F800F4C085F0866B5DC087F0886BF3C089F0F9
:103308008A6B5AC08BF08C6BFCC08DF08E6B59C0E9
:103318008FF0906BFBC091F0926BF6C093F0946BBA
:10332800F5C095F0966BFAC097F0986BE20E996F1E
:10333800010E9A6FD4C09BF0D5C09CF0C50E9D6F4E
:10334800000E9E6F5EC09FF0A06BFAC0A1F0A26B4A
:1033580052C0A3F0A46B51C0A5F0A66B53C0A7F050
:10336800A86BF7C0A9F0AA6B50C0ABF0AC6B55C006
:10337800ADF0AE6B54C0AFF0B06BFFC0B1F0B26B44
:10338800F9C0B3F0B46B4EC0B5F0B66B4BC0B7F034
:103398004CC0B8F04FC0B9F0BA6BF8C0BBF0BC6B0A
:1033A800D3EC2BF03D2A1200C60E0001746F7F0E7D
:1033B800756FDCEC2CF00009D8B412003D2A12001D
:1033C800DD0E0001916F7F0E926F16EC2AF0740EDD
:1033D8000001816F7E0E826FD3EC2BF03D2A120024
:1033E800F10E0001746F7F0E756FDCEC2CF0000994
:1033F800D8A40AD08B0E0001746F7F0E756FDCECB9
:103408002CF00009D8B41200060E3D6E190E3E6E5F
:103418001200000E3D6E12003D50000AD8B445D689
:10342800010AD8B454D6030AD8B45DD6010AD8B470
:103438006AD6070AD8B47DD6010AD8B49BD6030A3F
:10344800D8B49AD6010AD8B4AAD60F0AD8B4BFD627
:10345800010AD8B4CCD6030AD8B4D5D6010AD8B450
:10346800E2D6070AD8B4EBD6010AD8B49DD7030A26
:10347800D8B4A6D7010AD8B4B3D7CBD7E10E000188
:10348800916F7F0E926F16EC2AF0C20E0001816FC9
:103498007E0E826FD3EC2BF03D2A1200EB0E00015A
:1034A800746F7F0E756FDCEC2CF00009D8B4120035
:1034B800550E0001666F020E676FE20E686F010E0F
:1034C800696FC5EC24F01200000E3D6E12003D50ED
:1034D800000AD8B4D3D7010AD8B4E0D7F5D73E50FC
:1034E800D8A406D0080E0001FD6F010E456E12002B
:1034F800000E0001616F0A0E606FB3EC2CF0E5D18D
:10350800DD0E0001916F7F0E926F16EC2AF0660EA9
:103518000001816F7E0E826FD3EC2BF0000E496E96
:103528003D2A1200F10E0001746F7F0E756FDCECFE
:103538002CF00009D8B412003D2A1200DD0E00015B
:10354800916F7F0E926F16EC2AF0580E0001816F72
:103558007E0E826FD3EC2BF03D2A1200F10E000193
:10356800746F7F0E756FDCEC2CF00009D8B4120074
:103578003D2A1200DD0E0001916F7F0E926F16EC4E
:103588002AF09E0E0001816F7B0E826FD3EC2BF028
:103598003D2A1200F10E0001746F7F0E756FDCEC8E
:1035A8002CF00009D8B412003D2A1200DD0E0001EB
:1035B800916F7F0E926F16EC2AF0C10E0001816F99
:1035C8007B0E826FD3EC2BF03D2A1200F10E000126
:1035D800746F7F0E756FDCEC2CF00009D8B4120004
:1035E8003D2A1200DD0E0001916F7F0E926F16ECDE
:1035F8002AF0410E0001816F7C0E826FD3EC2BF014
:103608003D2A1200F10E0001746F7F0E756FDCEC1D
:103618002CF00009D8B41200AE0E0001916F7F0E95
:10362800926F16EC2AF03D2AB40E3E6E1200A50EDB
:103638000001816F010E826FCD0E836F7C0E846F47
:103648004FEC2BF0900E0001816F010E826F990EE6
:10365800836F7D0E846F4FEC2BF07B0E0001816F22
:10366800010E826F170E836F7C0E846F4FEC2BF068
:10367800660E0001816F010E826F490E836F7F0E07
:10368800846F4FEC2BF0AE0E0001746F7F0E756FD8
:10369800DCEC2CF00009D8B41200010E0001616FB7
:1036A800900E606FB3EC2CF03D2A1200DD0E000185
:1036B800916F7F0E926F16EC2AF0020E0001816F57
:1036C8007C0E826FD3EC2BF03D2A1200550E0001C0
:1036D8006F6F020E706F7B0E716F7C0E726FF5EC60
:1036E80025F000016F517011D8B412003D2A120064
:1036F800DD0E0001916F7F0E926F16EC2AF0490ED5
:103708000001816F7B0E826FD3EC2BF0000E00015D
:10371800616F640E606FB3EC2CF0C10E0001816F15
:10372800780E826FD3EC2BF0030E0001616F200E30
:10373800606FB3EC2CF0FF0E0001816F7D0E826F7D
:10374800D3EC2BF0010E0001616F2C0E606FB3EC0F
:103758002CF0B40E3E6EE50E0001916F7F0E926F55
:1037680016EC2AF03D2A1200660E0001816F010E48
:10377800826F820E836F7E0E846F4FEC2BF0E80E03
:103788000001746F7F0E756FDCEC2CF00009D8B463
:103798001200550E0001916F020E926FF40E936F96
:1037A8007F0E946FC90E956F010E966F0CEC20F08A
:1037B800550E0001916F020E926FF70E936F7F0EF8
:1037C800946FBA0E956F010E966F0CEC20F0A50E53
:1037D8000001816F010E826F1F0E836F7F0E846F51
:1037E800C90E856F010E866F4FEC2BF0900E00010D
:1037F800816F010E826F1F0E836F7F0E846FBA0E6A
:10380800856F010E866F4FEC2BF0660E0001816FFD
:10381800010E826F2D0E836F7D0E846F4FEC2BF09F
:10382800A50E0001686F010E696F900E6A6F010E98
:103838006B6F7B0E6C6F010E6D6F660E6E6F010EF7
:103848006F6F32EC25F0C90E0001606F010E616FD9
:1038580084EC2AF00001615104E1040E605DD8A0F7
:1038680030D0000EE06F000EE06F0E0EE06501D064
:1038780011D0E051010DC90EF324D96E010EF420C8
:10388800DA6EDF50636FE051280F93EC2BF00001E4
:10389800E02BEBD7000EE06F0E0EE06501D011D0E3
:1038A800E051010DBA0EF324D96E010EF420DA6E40
:1038B800DF50636FE0513C0F93EC2BF00001E02BDD
:1038C800EBD7FFD7000E3D6E12003D50000AD8B46A
:1038D80017D6010AD8B426D6030AD8B42FD6010AB7
:1038E800D8B43CD6070AD8B445D6010AD8B452D6BB
:1038F800030AD8B45BD6010AD8B468D60F0AD8B47C
:1039080071D6010AD8B47ED6030AD8B490D6010A73
:10391800D8B4CCD6070AD8B4D9D6010AD8B4E8D6D0
:10392800030AD8B421D7CED75E50D8A42BD05BA435
:1039380002D08A8A01D08A9A8D908C808C92000E4F
:103948000001636F0A0E626F000E656F000E646FF0
:10395800010EDBEC28F03B04D8A408D00001FC5190
:10396800D8A404D0010EFC6F000E3B6E0001FC5180
:10397800D8B406D05BA402D08B8201D08B921200FF
:103988008B921200010E3B6E8A8A0001F751FEC02D
:1039980068F0696B6827000E6923F4516A6F6B6BD6
:1039A80068516A5D6B51800A6C6F6951800A6C5965
:1039B800D8B01BD0F451686F696BF7516A6F6B6BA5
:1039C8006A1F6B1F6A4B6B2BFE516C6F6D6B6A51D4
:1039D8006C276B516D2368516C5D6D51800A6E6F59
:1039E8006951800A6E59D8A025D0F751D8B422D091
:1039F800010E606F080E4DEC2DF0000E0001636F94
:103A08000A0E626F000E656F000E646F000E5BB2E7
:103A1800010EDBEC28F0010160516111D8A442D0FD
:103A2800070E616F080E606F5BB202D05B823AD0FE
:103A38005B9238D0000E0001606F080E4DEC2DF03F
:103A48005150F3C068F00001696B6827000E6923C4
:103A58005D506A6F6B6B68516A5D6B51800A6C6F61
:103A68006951800A6C59D8A00DD055C062F0636BBB
:103A780054500A0DF3CF64F0F4CF65F0010EDBEC7F
:103A880028F010D05D500001F35DD8A00BD0000ED7
:103A9800636FC80E626F020E656F580E646F000E7A
:103AA800DBEC28F00001FE51D8B43DD05250FEC0E6
:103AB80068F0696B6827000E6923F4516A6F6B6BB5
:103AC80068516A5D6B51800A6C6F6951800A6C5944
:103AD800D8A002D08D8008D0F451FE5DD8A003D0C4
:103AE8008D908C8002D08D908C905A04D8A41DD0D3
:103AF8005350FEC068F0696B6827000E6923F451C3
:103B08006A6F6B6B68516A5D6B51800A6C6F6951A3
:103B1800800A6C59D8A002D08C8208D0F451FE5D7E
:103B2800D8A004D002D08D908C808C925A04D8A44E
:103B380008D0F851D8B405D0F8C062F10101636B20
:103B48000BD0010162516311D8A406D00001F851CD
:103B5800D8B402D0010E5A6E0001FC05D8A443D097
:103B68003950D8A440D05050FEC068F0696B68271F
:103B7800000E6923F4516A6F6B6B68516A5D6B5173
:103B8800800A6C6F6951800A6C59D8B01BD0F45107
:103B9800686F696B50506A6F6B6B6A1F6B1F6A4B5B
:103BA8006B2BFE516C6F6D6B6A516C276B516D23DB
:103BB80068516C5D6D51800A6E6F6951800A6E594B
:103BC800D8A010D00A0E396E8BA202D0010E01D0F7
:103BD800000EFF0A686F68478B506819FD0B68195B
:103BE8008B6E01D08B92FC05D8A407D0FF51D8B4B6
:103BF80004D0FFC031F0326A09D031503210D8A455
:103C080005D0FF51D8B402D0010EFC6FFC51D8B4D6
:103C18008B92F451686F696BFE516A6F6B6B030E80
:103C28006A27000E6B2368516A5D6B51800A6C6FBE
:103C38006951800A6C59D8B00CD0010E606F100E13
:103C48004DEC2DF0000E0001606F200E4DEC2DF0B4
:103C580031D0FD0E0001686FFF0E696FFE516A6F6B
:103C68006B6B68516A2769516B23F4516C6F6D6BEC
:103C78006A516C5D6D51800A6E6F6B51800A6E5986
:103C8800D8B00CD0010E606F200E4DEC2DF0000E58
:103C98000001606F100E4DEC2DF00CD0000E0001ED
:103CA800606F200E4DEC2DF0000E0001606F100EBD
:103CB8004DEC2DF00001F351686F696B5D506A6F30
:103CC8006B6B030E6A27000E6B2368516A5D6B519C
:103CD800800A6C6F6951800A6C59D8B00CD0000EFC
:103CE800606F010E4DEC2DF0010E0001606F020EA9
:103CF8004DEC2DF01200FD0E0001686FFF0E696F8C
:103D08005D506A6F6B6B68516A2769516B23F35179
:103D18006C6F6D6B6A516C5D6D51800A6E6F6B5183
:103D2800800A6E59D8B00CD0010E606F010E4DECB0
:103D38002DF0000E0001606F020E4DEC2DF0120008
:103D4800000E0001606F010E4DEC2DF0000E000119
:103D5800606F020E4DEC2DF01200345009E1020E96
:103D6800335CD8B005D0000E346E000E336E07D029
:103D78003306D8A0340633C033F034C034F0020E12
:103D8800396005D0000E196E000E186E04D0390681
:103D980039C018F0196A18C039F00101615109E1F8
:103DA800020E605DD8B005D0000E616F000E606F26
:103DB80007D06007D8A0610760C160F161C161F1F7
:103DC800020E366005D0000E1B6E000E1A6E04D06F
:103DD800360636C01AF01B6A1AC036F0010E38646F
:103DE80002D0380607D05BB402D05B8401D05B9464
:103DF800050E386E4A2A090E4A641200000E4A6EF1
:103E0800482A020E3E6005D0000E1D6E000E1C6E84
:103E180004D03E063EC01CF01D6A1CC03EF03B0E9E
:103E280048641200325009E1020E315CD8B005D066
:103E3800000E326E000E316E07D03106D8A0320661
:103E480031C031F032C032F00101635109E1020E94
:103E5800625DD8B005D0000E636F000E626F07D0A8
:103E68006207D8A0630762C162F163C163F1640E9F
:103E78000001F419D8B457D06E0EF419D8B453D041
:103E8800850EF419D8B44FD05E04D8A44CD0F451A0
:103E9800116E126A4F50FEC013F0146A1326000EFA
:103EA80014221150135C1450800A156E1250800AA7
:103EB8001558D8A038D04F50116E126A111E121E14
:103EC800114A122AFE51136E146A11501326125009
:103ED8001422F451156E166A1350155C1650800A98
:103EE800176E1450800A1758D8A01DD0960EF4618A
:103EF8001AD0F951D8B417D0FB51D8A414D0372A06
:103F0800F951375CD8A00FD0F40E066E000E076E7C
:103F1800550E086E970E096E010E0A6E2B0E45ECB3
:103F280028F0000E376E000E486E472A3B0E476495
:103F38001200000E476E462A0001FB51D8A462D039
:103F4800F951D8B45FD05E04D8A45CD0640EF419DB
:103F5800D8A419D0F605D8A416D03A2A58503A5CF5
:103F6800D8A050D05850D8B44DD0F40E066E000EDC
:103F7800076E550E086E970E096E010E0A6E2B0E0F
:103F880045EC28F03DD06E0E0001F419D8A41AD0E3
:103F9800020EF619D8A416D03A2A57503A5CD8A07F
:103FA80031D05750D8B42ED0F40E066E000E076EDE
:103FB800550E086E970E096E010E0A6E2B0E45EC13
:103FC80028F01ED0850E0001F419D8A419D0030ECC
:103FD800F619D8A415D03A2A56503A5CD8A012D06F
:103FE8005650D8B40FD0F40E066E000E076E550E5C
:103FF800086E970E096E010E0A6E2B0E45EC28F01E
:10400800000E3A6E170E46641200000E466E12003D
:10401800000E0001DC6F000EDB6F22EE00F010EEE8
:1040280099F0180EDBCFE3FFE806FCE222EE2DF054
:1040380010EEC6F0130EDBCFE3FFE806FCE222EE3B
:1040480019F010EEB2F0130EDBCFE3FFE806FCE246
:10405800000EDD6F000EDA6FB20E816F000E826FF8
:10406800840E836F7F0E846F93C085F094C086F0B2
:104078004FEC2BF0000E0001DF6F000EDE6F90D0CA
:10408800B20EDB25D96E000EDC21DA6EDE519125E9
:10409800E16EDF519221E26EDE50E618D8A435D0E9
:1040A800DD51D8A432D0C60E816F000E826FC10ECA
:1040B800836F7F0E846FC60E856F000E866FDE518C
:1040C8009125D96EDF519221DA6EDF50976F9751A3
:1040D800876F886B4FEC2BF00001DB4BDC2BC60E97
:1040E8006F6F000E706FB20E716F000E726FF5EC8D
:1040F80025F000016F517011D8B44FD0000EDC6F5D
:10410800000EDB6F010EDD6F48D0DD51D8A40FD053
:10411800000EDC6F000EDB6FC60E816F000E826F23
:10412800750E836F7B0E846F4FEC2BF036D0000139
:10413800DE519125D96EDF519221DA6E220EDE18FA
:10414800D8A411D0010EDA6F95C081F096C082F024
:104158001F0E836F7F0E846F990E856F000E866F1A
:104168004FEC2BF01AD0990E0001816F000E826F70
:10417800C10E836F7F0E846F990E856F000E866F58
:10418800DE519125D96EDF519221DA6EDF50976F9B
:104198009751876F886B4FEC2BF00001DE4BDF2BBC
:1041A80091C060F092C061F084EC2AF00001605187
:1041B800DE5D6151DF59D8B01200DA51D8A412007F
:1041C8005FD77DC081F00001826B836B7C358137BE
:1041D80001E382818151866F80C081F0826B836B9D
:1041E8007F35813701E382818151856F8651D8B44B
:1041F8000BD08551865DD8B00ED086510008852534
:10420800816F180E816507D07EC07BF07FC07CF07F
:1042180080C07DF012008551D8B40BD08651855DE1
:10422800D8B00ED0855100088625816F180E81659B
:1042380007D07BC07BF07CC07CF07DC07DF0120095
:10424800060E846F7DBF848F80BF848D7C8FFF0EA8
:104258007B17FF0E7C17000E7D177F8FFF0E7E17D2
:10426800FF0E7F17000E80178551865DD8B01BD0D2
:10427800D8907E377F378037850786518519D8B41F
:104288000DD0840784C081F0070E8117D8B406D0FA
:10429800EFD7D8907D337C337B33862B85518619B5
:1042A800D8B41FD0F6D78651855DD8B01AD0D8902B
:1042B8007B377C377D37860786518519D8B40DD072
:1042C800840784C081F0070E8117D8B406D0EFD7D1
:1042D800D89080337F337E33852B85518619D8A4B7
:1042E800F7D784AF0CD0FF0E7B1BFF0E7C1BFF0E95
:1042F8007D1B010E7B27000E7C23000E7D2384ADE1
:104308000CD0FF0E7E1BFF0E7F1BFF0E801B010EC5
:104318007E27000E7F23000E8023000E846F7B51C2
:104328007E277C517F237D51802380AF0ED0FF0EE6
:104338007E1BFF0E7F1BFF0E801B010E7E27000ECB
:104348007F23000E8023010E846F7EC060F07FC043
:1043580061F080C062F086C063F084C064F0ADECA8
:1043680026F060C07BF061C07CF062C07DF0120076
:104378000001656F60C0D9FF61C0DAFFDF5000013E
:10438800646F62C0D9FF63C0DAFFDF50666F3F0E0B
:104398006519D8B41AD027D0D80E606F7E0E616F19
:1043A8001200B60E606F7E0E616F1200CD0E606F48
:1043B8007E0E616F12000E0E606F7F0E616F12002D
:1043C800D50E606F7F0E616F12006451010AD8B478
:1043D800E3D7030AD8B4E5D7010AD8B4E7D7070A60
:1043E800D8B4E9D7EDD7460E6519D8A431D0650EF3
:1043F800666107D060C0D9FF61C0DAFF010EDF6EC9
:104408001200640E66650AD06F0E666107D060C040
:10441800D9FF61C0DAFF020EDF6E12006E0E66650C
:104428000AD0860E666107D060C0D9FF61C0DAFF86
:10443800030EDF6E1200850E66651200A10E66611E
:10444800120060C0D9FF61C0DAFF040EDF6E1200EF
:10445800410E6519D8A41200F605D8A407D062C089
:10446800D9FF63C0DAFF550EDF6E1200020EF6198F
:10447800D8A407D062C0D9FF63C0DAFF650EDF6E2B
:104488001200030EF619D8A407D062C0D9FF63C082
:10449800DAFF6F0EDF6E1200040EF619D8A41200B0
:1044A80062C0D9FF63C0DAFF860EDF6E120000011A
:1044B8006E6F68C0D9FF69C0DAFFDF500001796FFD
:1044C8006AC0D9FF6BC0DAFFDF50776F6CC0D9FFC5
:1044D8006DC0DAFFDF50786F5CD0FA05D8A40FD032
:1044E800640E796105D0792B79C06FF0706B04D0B8
:1044F800000E706F0A0E6F6F6FC079F00ED0780ED5
:10450800796105D0792B79C071F0726B04D0000EF7
:10451800726F3C0E716F71C079F079C063F0020E52
:1045280093EC2BF040D00001FA05D8A40FD00A0E66
:10453800796505D0790779C073F0746B04D0000EE3
:10454800746F640E736F73C079F00ED03C0E79658A
:1045580005D0790779C075F0766B04D0000E766FB8
:10456800780E756F75C079F079C063F0020E93EC20
:104578002BF019D077C060F00001616B78C062F051
:10458800636BFAC064F0EEEC0AF000016051796FD9
:104598000AD06E512B0AD8B4A0D7060AD8B4C3D70C
:1045A8006C0AD8B4E7D768C0D9FF69C0DAFF79C008
:1045B800DFFF120098C09AF000019B6B9C6B973547
:1045C8009A3701E39B819A51A46FA451D8A409D0CA
:1045D800000E966F000E976F000E986F000E996F81
:1045E8001200170E9A6F96C09BF097C09CF098C067
:1045F8009DF09A299E6F04D0D8909D339C339B33AD
:104608009E2FFAD700019B519F6F978FFF0E961729
:10461800FF0E9717000E98179651A06F9751A16F2C
:104628009851A26FA36B8E0EA45FA4AF16D0A451AD
:10463800800A8F0FD8B009D0000E966F000E976FC2
:10464800000E986F000E996F1200D890A333A23312
:10465800A133A033A43FF9D715D0170EA4650FD006
:10466800000E966F000E976F000E986F000E996FF0
:104678001200D890A037A137A237A337A407A451B6
:10468800D8A4F7D79F51D8B408D0A31FA21FA11F41
:10469800A06D000EA123A223A323A0C096F0A1C061
:1046A80097F0A2C098F0A3C099F012006DD066C030
:1046B800F6FF67C0F7FFF86A070EF76403D0080033
:1046C800F55005D0F6CFE9FFF7CFEAFFEF50000924
:1046D800D8B425D068C0F6FF69C0F7FFF86A070E9E
:1046E800F76403D00800F55005D0F6CFE9FFF7CFFF
:1046F800EAFFEF5000016C6F66C0F6FF67C0F7FF76
:10470800F86A070EF76403D00800F55005D0F6CF15
:10471800E9FFF7CFEAFFEF506C19D8B430D068C082
:10472800F6FF69C0F7FFF86A070EF76403D00800C0
:10473800F55005D0F6CFE9FFF7CFEAFFEF500001BB
:104748006C6F6D6B6C1F6D1F6C4B6D2B66C0F6FF2D
:1047580067C0F7FFF86A070EF76403D00800F55042
:1047680005D0F6CFE9FFF7CFEAFFEF5000016E6FF3
:104778006E516C25666F000E6D21676F1200000187
:10478800664B672B684B692B00016A07D8A06B073B
:104798006A298DE16B29D8A48AD7000E676F000EAD
:1047A800666F12006EC072F00001736B746B6D352A
:1047B800723701E373817251756F7551D8A407D0B0
:1047C800000E6C6F000E6D6F000E6E6F120071C0E0
:1047D80072F0736B746B7035723701E373817251C9
:1047E8007A6F7A51D8A407D0000E6C6F000E6D6FE7
:1047F800000E6E6F12007A517B0F75276EC07AF02B
:1048080071517A1B800E7A176D8F708FFF0E6F179C
:10481800FF0E7017000E7117000E766F000E776F7F
:10482800000E786F070E796F6CA106D06F5176274E
:104838007051772371517823D8906E336D336C3370
:10484800D8906F3770377137792FEED7090E796F97
:104858006CA106D06F517627705177237151782358
:10486800D8906E336D336C33D89078337733763392
:10487800792FEED776C060F077C061F078C062F02B
:1048880075C063F07AC064F0ADEC26F060C06CF0DF
:1048980061C06DF062C06EF0120089C08DF0000139
:1048A8008E6B8F6B88358D3701E38E818D51946FB8
:1048B8009451D8A407D0000E876F000E886F000EA1
:1048C800896F12008CC08DF08E6B8F6B8B358D3796
:1048D80001E38E818D51956F9551D8A407D0000EB4
:1048E800876F000E886F000E896F1200000E916F9F
:1048F800000E926F000E936F9551890F945F89C0D7
:1049080095F08C51951B800E9517888FFF0E871791
:10491800FF0E8817000E89178B8FFF0E8A17FF0E60
:104928008B17000E8C17180E906FD890913792370E
:1049380093378A51875D8B5188598C518959D8A0F2
:1049480007D08A51875F8B51885B8C51895B918135
:10495800D890873788378937902FE7D791C060F08C
:1049680092C061F093C062F094C063F095C064F0A7
:10497800ADEC26F060C087F061C088F062C089F0B5
:104988001200000E00016E6F000E6C6F000E6D6F4E
:10499800000E6E6F52D06E51010DF3506625D96E20
:1049A800F4506721DA6E220EDE18D8A406D06D51B5
:1049B800D8A403D0010E6D6F3FD06E51010DF35096
:1049C8006625D96EF4506721DA6E220EDE18D8A457
:1049D8000ED06D05D8A40BD06C51010DF35068258D
:1049E800D96EF4506921DA6E000EDF6E12006D5137
:1049F800D8B422D06E51010DF3506625D96EF4500B
:104A08006721DA6E3A0EDE18D8B416D00C0E6C6137
:104A180013D06E51010DF3506625D96EF4506721FD
:104A2800DA6E6C51010DF3506825E16EF45069217E
:104A3800E26EDFCFE7FF6C2B6E2B66C060F067C0BD
:104A480061F084EC2AF000016E516A6F6B6B605163
:104A58006A5D61516B59D8B012009DD7010E0001F3
:104A6800636F010E53EC26F068C064F069C065F00E
:104A780085EC2CF0010E0001636F020E53EC26F05A
:104A88006AC064F06BC065F085EC2CF0000E000184
:104A9800636F030E53EC26F06CC064F06DC065F0D4
:104AA80085EC2CF0000E0001636F040E53EC26F029
:104AB8006EC064F06FC065F085EC2CF0000E00014C
:104AC800706F000E706F130E706501D01200705178
:104AD800010DF3506825D96EF4506921DA6E200E65
:104AE800DF6E7051010DF3506A25D96EF4506B21B9
:104AF800DA6E200EDF6E7051010DF3506C25D96E01
:104B0800F4506D21DA6E200EDF6E7051010DF350F6
:104B18006E25D96EF4506F21DA6E200EDF6E702B81
:104B2800D2D70600FACF1EF0FBCF1FF0E9CF20F056
:104B3800EACF21F0E1CF22F0E2CF23F0D9CF24F061
:104B4800DACF25F0F3CF26F0F4CF27F0F6CF28F010
:104B5800F7CF29F0F8CF2AF0F5CF2BF05FC02CF073
:104B680060C02DF061C02EF062C02FF0F2A407D013
:104B7800F2943C0ED76EB00ED66EB1EC1EF09EAA23
:104B880005D0AECF30F030504DEC2AF0F0A203D073
:104B9800F092F0EC2CF02FC062F02EC061F02DC026
:104BA80060F02CC05FF02BC0F5FF2AC0F8FF29C0C9
:104BB800F7FF28C0F6FF27C0F4FF26C0F3FF25C083
:104BC800DAFF24C0D9FF23C0E2FF22C0E1FF21C0E1
:104BD800EAFF20C0E9FF1FC0FBFF1EC0FAFF5F927B
:104BE80011003FD06FC066F070C067F071C068F008
:104BF80072C069F071C060F072C061F084EC2AF094
:104C080060C06AF061C06BF05AEC23F00001665195
:104C18006711D8A405D06FC06FF070C070F0120093
:104C2800010E6F25606F000E7021616F71C0F6FF75
:104C380072C0F7FFF86A070EF76403D00800F55052
:104C480005D0F6CFE9FFF7CFEAFFEF500001736F09
:104C58007351626F636BA6EC29F060C06FF061C09E
:104C680070F000016F517011D8B413D06FC0F6FF07
:104C780070C0F7FFF86A070EF76403D00800F55014
:104C880005D0F6CFE9FFF7CFEAFFEF500009D8A427
:104C9800A9D7000E00016F6F000E706F120000019F
:104CA800646F48D0000163517F0F676F67390F0B3E
:104CB800656F67510F0B666F655117EC2DF000019A
:104CC800665117EC2DF0120000016351BF0F676F9A
:104CD80067390F0B656F67510F0B666F655117ECDE
:104CE8002DF00001665117EC2DF012000001635100
:104CF800940F676F67390F0B656F67510F0B666FFE
:104D0800655117EC2DF00001665117EC2DF01200DB
:104D180000016351D40F676F67390F0B656F6751D7
:104D28000F0B666F655117EC2DF00001665117ECFB
:104D38002DF0120000016451010AD8B4B3D7030A58
:104D4800D8B4C2D7010AD8B4D1D7070AD8A4120058
:104D5800DFD700016351D8B405D0605161116211E9
:104D6800D8A40CD0000E606F000E616F000E626F49
:104D78001200632BD890623361336033000E6015E4
:104D8800656F000E6115666FFE0E6215676F6551DF
:104D980066116711D8B40CD0ECD7632B010E6027CD
:104DA800000E6123000E6223D890623361336033B2
:104DB800000E6015656F000E6115666FFF0E6215B7
:104DC800676F655166116711D8B406D0E6D76307D7
:104DD800D89060376137623761BF03D0020E6361D4
:104DE800F6D763A1619FD89063336351621364510E
:104DF800D8A4628F60C060F061C061F062C062F0E8
:104E080012007F0EF66E780EF76E20EE67F0370E02
:104E18000900F5CFDEFFE806FBE2040E17EC2DF0E3
:104E2800000E17EC2DF0210EE82EFED700F0000E34
:104E38000001A36F000EA26F000EA16F000EA36FFA
:104E4800040EA36501D01200A105D8A402D0000E5B
:104E5800A36F000EA26F070EA26501D025D0A15145
:104E6800D8A405D0000EA06F000E9F6F17D0A351D5
:104E7800080D670E646F000E656FF3506427F450D9
:104E88006523A251010DF3506425D96EF4506521B4
:104E9800DA6EDF50666F66519F6FA06B9F51B4EC5E
:104EA8002BF00001A22BD7D7A12BA32BC9D7000128
:104EB8006D6F65C0D9FF66C0DAFFDF5000016A6F09
:104EC8006A516E6F6F6B2CD068516A6F6B6B6A5149
:104ED8006E5D6F51800A6C6F6B51800A6C59D8B047
:104EE80003D06E4B6F2B13D067C06EF017D067518D
:104EF8006A6F6B6B6E516A5D6B51800A6C6F6F5194
:104F0800800A6C59D8B008D06E07D8A06F076EC059
:104F18006EF06FC06FF00BD068C06EF06F6B07D08B
:104F28006D512B0AD8B4D0D7060AD8B4E0D7695146
:104F3800D8B405D06EC063F0695193EC2BF065C00E
:104F4800D9FF66C0DAFF6EC0DFFF1200320EF66EC0
:104F58005B0EF76E000EF86E01EEE2F010EE0CF04C
:104F68000900F5CFEEFFE550E150FAE17D0EF66E4F
:104F78005B0EF76E000EF86E0900F5CFFDF0090024
:104F8800F5CFFEF00900F5CFFFF07A0EF66E5B0E56
:104F9800F76E000EF86E0900F5CF5CF00900F5CF4A
:104FA8005DF00900F5CF5EF002EE00F0B90EEE6A92
:104FB800E806FDE101EE00F0E20EEE6AE806FDE12A
:104FC80000EEF3F00A0EEE6AE806FDE15B6A00EE19
:104FD80031F02A0EEE6AE806FDE15F905F92000E5E
:104FE800F86E000109EF00F00001686F000EC46E52
:104FF800000EC36E68C062F00001D8906237D89086
:1050080062373C0E6217C250C30B6211C26E140E97
:10501800E82EFED7C2A204D00001626B622B02D038
:105028000001626B010E636F622B02D0D890633768
:10503800622FFCD7C2A004D00001646B642B02D09D
:105048000001646B010E656F642B02D0D890653740
:10505800642FFCD7000165516311C212C2B2FED79A
:10506800C350C4CF62F00001636B62C063F0626B2F
:105078006211666F6351676F66C060F067C061F068
:1050880012000E6E06C0D9FF07C0DAFFDF500B6EA4
:105098000B500F6E106A2CD009500B6E0C6A0B5017
:1050A8000F5C1050800A0D6E0C50800A0D58D8B055
:1050B80003D00F4A102A13D008C00FF017D0085099
:1050C8000B6E0C6A0F500B5C0C50800A0D6E105062
:1050D800800A0D58D8B008D00F06D8A010060FC007
:1050E8000FF010C010F00BD009C00FF0106A07D0F5
:1050F8000E502B0AD8B4D0D7060AD8B4E0D70A5035
:10510800D8B405D00FC004F00A50EFEC2BF006C05D
:10511800D9FF07C0DAFF0FC0DFFF1200000162AF3E
:1051280016D060C066F061C067F062C068F0661FA4
:10513800671F681F662B000E67236823000E66250D
:10514800606F000E6721616F800E6821626F65AF26
:1051580016D063C066F064C067F065C068F0661F6B
:10516800671F681F662B000E67236823000E6625DD
:10517800636F000E6721646F800E6821656F000EF3
:10518800601B000E611B800E621B000E631B000E6D
:10519800641B800E651B6351605D645161596551E4
:1051A8006259D8B002D0D8901200D88012000001FD
:1051B800676F3C5000016719D8B407D0000E346EF1
:1051C800000E336E67C03CF012006751D8B406D0A9
:1051D800010E606F040E4DEC2DF006D0000E00019C
:1051E800606F040E4DEC2DF033503410D8A407D066
:1051F800000164516225336E65516321346E33506A
:105208000001645D34506559D8B015D06751D8A4F1
:1052180003D0666B662B02D00001666B663B66475F
:1052280089506619DF0B6619896E67B102D08B94B5
:1052380001D08B841200899A8B941200959E959CBC
:10524800959A959895969594000E6DEC2CF0340EE1
:105258000001636FF10EE82EFED7632FFCD700D054
:10526800030E17EC2DF00D0E0001636FFB0EE82EF8
:10527800FED7632FFCD700D0030E17EC2DF01D0EC0
:105288000001636F910EE82EFED7632FFCD7030E43
:1052980017EC2DF0020E17EC2DF0020E17EC2DF086
:1052A800080E17EC2DF0000E17EC2DF00C0E17EC75
:1052B8002DF0000E17EC2DF0060E17EC2DF0120055
:1052C800000E0001686F000E696F000E6A6F000E15
:1052D8006B6F6451651166116711D8B42AD0010E3D
:1052E8006C6F06D0D89064376537663767376C2B94
:1052F80067AFF8D7D890683769376A376B37645122
:10530800605D655161596651625967516359D8A00A
:1053180009D06451605F6551615B6651625B67519A
:10532800635B6881D89067336633653364336C2F69
:10533800E1D768C060F069C061F06AC062F06BC014
:1053480063F0120060C0F6FF61C0F7FFF86A070E4D
:10535800F76403D00800F55005D0F6CFE9FFF7CF82
:10536800EAFFEF5000016219D8A405D060C060F0D0
:1053780061C061F012006051646F6151656F604BEC
:10538800612B64C0F6FF65C0F7FFF86A070EF76483
:1053980003D00800F55005D0F6CFE9FFF7CFEAFFB4
:1053A800EF500009D8A4CED7000E0001606F000EA0
:1053B800616F120093809382280EC66E000EC56E30
:1053C800000E0001606F120E616F7A0E626F000EA0
:1053D800636F6DC071F06EC072F06FC073F070C013
:1053E80074F0020ED8907137723773377437E82E1D
:1053F800F9D771C064F072C065F073C066F074C00C
:1054080067F064EC29F000016005C86E000EC76EF5
:10541800820E0001716FDD0EE82EFED7712FFCD7CA
:1054280000D01200000E416E000E406E000E3F6E5E
:10543800550E0001606F020E616F000E636F000E63
:10544800626F000E656F640E646F55EC2CF0D80E19
:105458000001816F010E826F1F0E836F7F0E846FB4
:1054680091C085F092C086F04FEC2BF0DD0E000164
:105478006F6F7F0E706F91C071F092C072F0F5EC93
:1054880025F000016F517011D8B41200010E416E61
:105498001200096E4150D8B411D03F50010D550E7D
:1054A800F324D96E020EF420DA6E09C0DFFF3F2A1A
:1054B800630E3F641200000E3F6E12004050010D53
:1054C800D80EF324D96E010EF420DA6E0950DE18D6
:1054D800D8A413D0402AD80E016E010E026E02EC39
:1054E8002BF04050076E086A0150075C02500858BC
:1054F800D8A01200010E416E1200000E406E12007C
:1055080060C064F061C065F003D00001644B652B96
:1055180064C0F6FF65C0F7FFF86A070EF76403D0AA
:105528000800F55005D0F6CFE9FFF7CFEAFFEF50B6
:105538000009D8A4EAD760C062F061C063F0000136
:10554800621F631F624B632B64516225606F655154
:105558006321616F1200000E0001656F000E646F19
:1055680062516311D8B41CD0010E666F04D0D89074
:1055780062376337662B63AFFAD7D89064376537DD
:105588006251605D63516159D8A005D06251605F76
:105598006351615B6481D89063336233662FEDD7C2
:1055A80064C060F065C061F012000001656FB1EC85
:1055B8002DF0000E0001626FA00E616F9FEC2DF0C0
:1055C80065C061F00001626B9FEC2DF0A9EC2DF035
:1055D800000E0001626FA10E616F9FEC2DF0000EAE
:1055E8000001626F000E616F0BEC2CF0000161513D
:1055F800666FADEC2DF000016651120001C005F098
:1056080002C006F002D0054A062A05C0F6FF06C009
:10561800F7FFF86A070EF76403D00800F55005D0C5
:10562800F6CFE9FFF7CFEAFFEF500009D8A4EBD790
:1056380001C003F002C004F0031E041E034A042A3A
:1056480005500324016E06500420026E120000016A
:10565800626F15D0BB0E0001606F7F0E616F120084
:10566800920E606F7F0E616F1200D00E606F7F0E1A
:10567800616F1200EE0E606F7F0E616F1200000105
:105688006251010AD8B4E6D7030AD8B4E9D7010AA7
:10569800D8B4EBD7EFD781C08DF082C08EF0000E62
:1056A80000018F6F000E906F850E8B6F000E8C6F50
:1056B8008D0E6C6F000E6D6F83C06EF084C06FF03E
:1056C8008B0E706F000E716FD7EC12F08DC0D9FF82
:1056D8008EC0DAFF000EDF6E1200000169516A11F8
:1056E800D8B418D0010E6B6F04D0D89069376A37D8
:1056F8006B2B6AAFFAD76951675D6A516859D8A0B0
:1057080004D06951675F6A51685BD8906A3369331E
:105718006B2FF1D767C067F068C068F0120000010E
:10572800646FB1EC2DF0000E0001626FA00E616F86
:105738009FEC2DF064C061F00001626B9FEC2DF0CE
:1057480063C061F00001626B9FEC2DF0ADEC2DF0B1
:10575800000E0001616F690E606FB3EC2CF012004F
:105768000001636F000163510F0B616F6351F00B10
:10577800626F838462390F0B6DEC2CF083861A0EEE
:10578800E82EFED700D08396000161516DEC2CF015
:1057980083861A0EE82EFED700D083961200000EDC
:1057A8000001BF6F000EC06F160EC16F5B0EC26F97
:1057B800830EBD6F000EBE6FBF0E6C6F000E6D6F57
:1057C80081C06EF082C06FF0BD0E706F000E716FF9
:1057D800D7EC12F01200056EB9EC2DF0000E036E36
:1057E800A00E026EA4EC2DF005C002F0036AA4EC32
:1057F8002DF004C002F0036AA4EC2DF0B5EC2DF0F6
:10580800000E026E690E016E2AEC2DF0120078EC83
:105818002DF0C58678EC2DF0C9CF63F00001646BDC
:1058280078EC2DF0000161516211D8A402D0C58A2C
:1058380001D0C59AC58863C061F064C062F01200E7
:105848005BA41200000E0001646F620762C064F07E
:105858000BD06451010DF3506025D96EF4506121CD
:10586800DA6E200EDF6E642B6351645DD8B01200CF
:10587800F0D743505C18D8B41200B1EC2DF0000EEC
:105888000001626F460E616F9FEC2DF043C061F01E
:105898000001626B9FEC2DF0ADEC2DF043C05CF085
:1058A800120060C066F061C067F009D066C0D9FF19
:1058B80067C0DAFF62C0DFFF0001664B672B00019B
:1058C8006407D8A065076429F1E16529D8B41200F6
:1058D800EDD70001606F000160A102D0838801D07C
:1058E800839860A302D0838A01D0839A60A502D0EE
:1058F800838C01D0839C60A702D0838E1200839E84
:105908001200000E0001666F000E666F130E6665CA
:1059180001D012006651010DF3506425D96EF45080
:105928006521DA6EDF50B4EC2BF00001662BEED760
:1059380082EC2DF0C58682EC2DF0C9CF04F0056A03
:1059480082EC2DF002500310D8A402D0C58A01D0F1
:10595800C59AC58804C002F005C003F012000AD039
:10596800030E0001626F970EE82EFED7622FFCD758
:1059780000D0040000016007D8A061076029F0E1A9
:105988006129D8B41200ECD7000160516203F3CF4B
:1059980064F0F4CF65F060516303F35065276151FB
:1059A8006203F350652764C060F065C061F01200BF
:1059B800550E00016F6F020E706F74C071F075C0E4
:1059C80072F0F5EC25F000016F517011D8B402D0D7
:1059D800010E1200000E1200B9EC2DF0000E036E3D
:1059E8004F0E026EA4EC2DF0000E036E000E026E38
:1059F8009CEC2CF00250FF0A426EB5EC2DF0120020
:105A080069C060F06AC061F00001626B8E0E636F5E
:105A1800000E646FADEC26F060C069F061C06AF0FA
:105A280062C06BF012000001626F83940001625142
:105A38006DEC2CF083860B0E0001616F620EE82E70
:105A4800FED7612FFCD700F08396120008D0030E12
:105A5800036E980EE82EFED7032EFCD7040001062D
:105A6800D8A002060128F3E10228D8B41200EFD723
:105A78000001626F000E0001616F3A0E626105D08D
:105A88002F0E626502D0010E616F61C060F0603157
:105A980012000001616F00016051D8B404D0435076
:105AA8006111436E12006151FF0A4314436E1200E4
:105AB8000001606F000160514218D8B481A404D07D
:105AC800000E426E010E1200000E1200949C948E7D
:105AD800AC8AAC84AC98AB8EAB88190EAF6EF28EE4
