:0400000007EF00F016
:100008005182C6ED25F0BCEF29F0929A949496900F
:100018009590949295929480809A829484908390FB
:100028008292839292988998939A8A9A9384F19863
:10003800F190F0889280809092828092928480944D
:10004800810ED56EE40EF26E010EC26E0C0EC16EFC
:10005800B50EC06E3AEC2FF0470E0001816F7F0E8F
:10006800826FB7EC2DF0000E0001616FC80E606F53
:1000780097EC2EF019EC2BF06EEC2FF02CEC28F00E
:10008800400E00016D6F420E6E6F0F0E6F6F000E07
:10009800706FD5EC2BF0000E0001616F960E606F4B
:1000A80097EC2EF0DA0E0001816F010E826FB60E0A
:1000B800836F7C0E846F13EC2DF0B00E0001816FFE
:1000C800010E826F970E836F7E0E846F13EC2DF0F6
:1000D800A40E0001816F010E826F260E836F7F0EC2
:1000E800846FA50E856F7E0E866F13EC2DF0DA0EE9
:1000F8000001686F010E696FC50E6A6F010E6B6FA4
:10010800B00E6C6F010E6D6F9B0E6E6F010E6F6FF0
:1001180017EC27F0010E0001616F2C0E606F97EC51
:100128002EF08A8A090E0001616F920E606F97ECBB
:100138002EF0010EC6EC2CF00001EC6F020EC6EC9E
:100148002CF00001EB6F030EC6EC2CF00001F86FE9
:10015800040EC6EC2CF00001EE6F050EC6EC2CF078
:100168000001ED6F060EC6EC2CF00001F66F070ECD
:10017800C6EC2CF00001F76F080EC6EC2CF04E6EA2
:10018800090EC6EC2CF04D6E0A0EC6EC2CF04C6E27
:100198000B0EC6EC2CF00101F66F0C0EC6EC2CF021
:1001A8000101F56F0D0EC6EC2CF00101F46F0E0E77
:1001B800C6EC2CF00001FA6F0F0EC6EC2CF0000113
:1001C800F96F100EC6EC2CF00001F16F110EC6ECA1
:1001D8002CF00001F06F120EC6EC2CF00001F56F48
:1001E800140EC6EC2CF00001F46F150EC6EC2CF0C2
:1001F8000001FF6F160EC6EC2CF00001F36F170E0E
:10020800C6EC2CF00001D96FD9510101F16FF26BE6
:10021800190EC6EC2CF00001D96FD9510101EF6F0E
:10022800F06B1B0EC6EC2CF00001EF6F1C0EC6EC39
:100238002CF00001F26F000EEA6F000EEA6F0E0E4E
:10024800EA6501D010D0EA51010DA10EF324D96E50
:10025800020EF420DA6EEA51280FC6EC2CF0DF6E9D
:100268000001EA2BECD7000EEA6F0E0EEA6501D00A
:1002780010D0EA51010D920EF324D96E020EF4202B
:10028800DA6EEA513C0FC6EC2CF0DF6E0001EA2B67
:10029800ECD71E0EC6EC2CF00001EA6FBB0EEA1973
:1002A800D8B42CD0BB0E636F1E0E57EC2DF0040093
:1002B8009B0E0001816F010E826FB10E836F7E0E5F
:1002C800846F13EC2DF0DA0E0001686F010E696F70
:1002D800C50E6A6F010E6B6FB00E6C6F010E6D6FFD
:1002E8009B0E6E6F010E6F6F17EC27F00B0E00015F
:1002F800616FB80E606F97EC2EF0D9D7040083ECCD
:1003080018F075EC1DF00001F605D8A40FD0EB0E1F
:10031800686F000E696FEC0E6A6F000E6B6FED0E62
:100328006C6F000E6D6F410ECDEC23F0EE0E0001E8
:10033800606F000E616FEC0E626F000E636F460E09
:100348002EEC23F00A0E0001FB19D8A4E7EC15F0F7
:10035800040E2CEC2FF00009D8B459D3F90E000183
:10036800656F000E666F000E676F010E686F0F0EE7
:10037800696F2B0ED3EC28F04AD3E00E0001816F91
:10038800010E826F180E836F7E0E846F13EC2DF0B2
:10039800020E0101DA6F0001FA51D8A40AD0DA0E70
:1003A800606F010E616F010E626F020E636F08ECE1
:1003B8002EF0460E0101DC6F0001F951D8A40AD0D5
:1003C800DA0E606F010E616F020E626F030E636FCB
:1003D80008EC2EF001019A51D8A405D0000E0001B6
:1003E800DD6F200E04D0000E0001DD6F050EDC6FFE
:1003F800DCC0DEF1F851D8A404D0000EDF6F200E67
:1004080003D0000EDF6F010EDE6FDEC0DFF1C50E18
:10041800816F010E826F3D0E836F7C0E846FFDC06D
:1004280085F0866BECC087F0886B13EC2DF0040E1A
:100438000101CA6F0001F751D8A404D0000EE16F82
:10044800460E03D0000EE16F250EE06FB00E816FEF
:10045800010E826FE80E836F7B0E846FFCC085F0FF
:10046800866BEBC087F0886BE0C089F0E1C08AF04A
:1004780013EC2DF0030E0101B56F9B0E0001816F87
:10048800010E826F330E836F7F0E846FEE0E606FE6
:10049800000E616FEC0E626F000E636F3F0E2EEC64
:1004A80023F060C085F061C086F013EC2DF00001E8
:1004B800FE51D8A40AD09B0E816F010E826F520E96
:1004C800836F7C0E846F13EC2DF0080E2CEC2FF04C
:1004D8000009D8B406D0010E0001FB6F010E01011E
:1004E800996F020E2CEC2FF00009D8B402D001014C
:1004F800982B010E2CEC2FF00009D8B40ED0FA0E70
:100508000001656F000E666F010E676F010E686F60
:100518000E0E696F2B0ED3EC28F0100E2CEC2FF07A
:100528000009D8B484D0FA0E0001656F000E666F1A
:10053800000E676F000E686F0E0E696F2B0ED3ECFE
:1005480028F075D0C50E0001606F010E616F0F0EA7
:10055800626F140E636F08EC2EF0400E2CEC2FF037
:100568000009D8B40ED0EC0E0001656F000E666F5E
:10057800550E676FA00E686F010E696F2B0ED3ECD6
:1005880028F0200E2CEC2FF00009D8B461D2EC0E24
:100598000001656F000E666F550E676FA00E686FDD
:1005A800010E696F2D0ED3EC28F052D20001F651DE
:1005B800D8A437D0B00E606F010E616F0F0E626F56
:1005C800140E636F08EC2EF0400E2CEC2FF000098F
:1005D800D8B410D0EB0E0001686F000E696FEC0EF6
:1005E8006A6F000E6B6FED0E6C6F000E6D6F2B0E49
:1005F800CDEC23F0200E2CEC2FF00009D8B428D233
:10060800EB0E0001686F000E696FEC0E6A6F000E4A
:100618006B6FED0E6C6F000E6D6F2D0ECDEC23F031
:1006280017D2000E010101D0000E986F11D20101FE
:100638009851010AD8B486D7030AD8B4B7D7F4D7E3
:10064800DB0E0001816F010E826F2A0E836F7D0E13
:10065800846FECC085F0866B13EC2DF00001F75128
:10066800D8A404D0000EE36F460E03D0000EE36F4B
:10067800250EE26FC60E816F010E826F090E836F21
:100688007E0E846FEBC085F0866BE2C087F0E3C016
:1006980088F013EC2DF0B10E0001816F010E826F0E
:1006A800500E836F7F0E846FEE0E606F000E616FC9
:1006B800EC0E626F000E636F3F0E2EEC23F060C0ED
:1006C80085F061C086F013EC2DF09C0E0001816F5F
:1006D800010E826F1F0E836F7F0E846FED51EFEC5A
:1006E8002CF060C085F061C086F013EC2DF0B0D11D
:1006F8000001F651D8B404D0EA0EE46F7E0E03D0A0
:100708009F0EE46F7F0EE56FDB0E816F010E826F27
:10071800590E836F7F0E846FE4C085F0E5C086F0C4
:1007280013EC2DF00001F851D8A404D0F50EE66FB3
:100738007E0E03D0730EE66F7F0EE76FC60E816FD5
:10074800010E826F290E836F7F0E846FE6C085F0DD
:10075800E7C086F013EC2DF00001FA51D8A404D0BC
:100768000B0EE86F7F0E03D0A60EE86F7F0EE96FC1
:10077800B10E816F010E826F000E836F7F0E846F42
:10078800E8C085F0E9C086F013EC2DF09C0E00015E
:10079800816F010E826F8E0E836F7C0E846F13EC57
:1007A8002DF056D1DB0E0001816F010E826F7A0E9B
:1007B800836F7C0E846F13EC2DF0C60E0001816FE1
:1007C800010E826FA20E836F7C0E846F13EC2DF0E6
:1007D8003FD1DB0E0001816F010E826FA60E836F81
:1007E8007D0E846FF3C185F0866BF6C187F0886B48
:1007F80013EC2DF0C60E0001816F010E826FB70E4B
:10080800836F7D0E846FF7C085F0866BF1C087F02B
:10081800886B13EC2DF0B10E0001816F010E826F11
:10082800C80E836F7D0E846FF5C185F0866BF0C0AE
:1008380087F0886B13EC2DF09C0E0001816F010E80
:10084800826FD90E836F7D0E846FF4C185F0866B3D
:10085800F5C087F0886B13EC2DF0FAD0DB0E0001A1
:10086800816F010E826F3C0E836F7D0E846FF4C022
:1008780085F0866BEFC187F0F0C188F013EC2DF09E
:10088800C60E0001816F010E826F4E0E836F7D0EC2
:10089800846FFFC085F0866BEFC087F0886B13EC20
:1008A8002DF0B10E0001816F010E826F600E836F13
:1008B8007D0E846FF3C085F0866BF2C087F0886B7D
:1008C80013EC2DF09C0E0001816F010E826F3D0E1E
:1008D800836F7F0E846FF1C185F0F2C186F013EC4F
:1008E8002DF0B6D0DA0E0001816F010E826F7B0EFB
:1008F800836F7F0E846FA10E856F020E866F13ECD7
:100908002DF0C50E0001816F010E826F620E836F9C
:100918007F0E846F920E856F020E866F13EC2DF09A
:10092800B00E0001816F010E826FB40E836F7F0ECF
:10093800846FB00E856F020E866F13EC2DF0EFC139
:1009480060F0F0C161F0000E0001636F270E626F66
:10095800ACEC2EF060C0DAF061C0DBF09B0E000159
:10096800816F010E826F950E836F7D0E846FDAC0E2
:1009780085F0DBC086F013EC2DF06AD0DB0E0001A9
:10098800816F010E826F660E836F7C0E846F13EC8D
:100998002DF05ED00FEC1BF05BD0DB0E0001816FF9
:1009A800010E826F040E836F7D0E846F4EC085F03A
:1009B800866B13EC2DF0C60E0001816F010E826F5D
:1009C800170E836F7D0E846F4DC085F0866B13EC18
:1009D8002DF0B10E0001816F010E826FF10E836F51
:1009E8007C0E846F4CC085F0866B13EC2DF09B0E4B
:1009F8000001816F010E826F720E836F7D0E846F0E
:100A080013EC2DF025D0000E0001FB6F21D0000162
:100A1800FB51000AD8B4B1D4010AD8B411D6030ADC
:100A2800D8B466D6010AD8B4BDD6060AD8B4D1D689
:100A3800030AD8B413D70E0AD8B454D7010AD8B4C5
:100A48009DD7030AD8B4A6D7010AD8B4A6D7DBD74E
:100A58000001FB05D8B408D0020EFB19D8B404D0A5
:100A6800030EFB19D8A4C9D1000E0101986F88D1D3
:100A78000A0E84D1010E0001FB6F3E0E0101DA6FF0
:100A8800400E2CEC2FF00009D8B40ED0EC0E00016B
:100A9800656F000E666F550E676FA00E686F010ECA
:100AA800696F2B0ED3EC28F0200E2CEC2FF00009E8
:100AB800D8B489D1EC0E0001656F000E666F550E33
:100AC800676FA00E686F010E696F2D0ED3EC28F0CA
:100AD8007AD13E0E0101C56F0001F651D8A473D139
:100AE800400E2CEC2FF00009D8B410D0EB0E00010A
:100AF800686F000E696FEC0E6A6F000E6B6FED0E7B
:100B08006C6F000E6D6F2B0ECDEC23F0200E2CECCD
:100B18002FF00009D8B457D1EB0E0001686F000E12
:100B2800696FEC0E6A6F000E6B6FED0E6C6F000E46
:100B38006D6F2D0ECDEC23F046D13E0E0101B06F46
:100B4800400E2CEC2FF00009D8B42AD0EE0E00018C
:100B5800656F000E666F010E676F040E686F040EF6
:100B6800696F2B0ED3EC28F0EE0E0001606F000EBB
:100B7800616FEC0E626F000E636F410E2EEC23F076
:100B8800EB0E0001686F000E696FEC0E6A6F000EC5
:100B98006B6FED0E6C6F000E6D6F410ECDEC23F098
:100BA800200E2CEC2FF00009D8B40DD1EE0E000168
:100BB800656F000E666F010E676F040E686F040E96
:100BC800696F2D0ED3EC28F0EE0E0001606F000E59
:100BD800616FEC0E626F000E636F410E2EEC23F016
:100BE800EB0E0001686F000E696FEC0E6A6F000E65
:100BF8006B6FED0E6C6F000E6D6F410ECDEC23F038
:100C0800E2D0010E0001FB6F3E0E01019B6F400E0A
:100C18002CEC2FF00009D8B40ED0ED0E0001656F52
:100C2800000E666F010E676F030E686F050E696F21
:100C38002B0ED3EC28F0200E2CEC2FF00009D8B4A2
:100C4800C2D0ED0E0001656F000E666F010E676F72
:100C5800030E686F050E696F2D0ED3EC28F0B3D024
:100C6800020E0001FB6F3E0E0101DA6F400E2CEC04
:100C78002FF00009D8A406D0200E2CEC2FF0000984
:100C8800D8B4A1D0F60E0001656F000E666F000E95
:100C9800676F010E686F060E696F2B0ED3EC28F094
:100CA80092D03E0E0101C56F400E2CEC2FF00009CA
:100CB800D8A406D0200E2CEC2FF00009D8B483D08D
:100CC800F80E0001656F000E666F000E676F010E6B
:100CD800686F030E696F2B0ED3EC28F074D03E0EAC
:100CE8000101B06F400E2CEC2FF00009D8A406D0FB
:100CF800200E2CEC2FF00009D8B465D0FA0E0001B4
:100D0800656F000E666F000E676F010E686F0E0E3E
:100D1800696F2B0ED3EC28F056D0020E0001FB6F42
:100D28003E0E01019B6F020E2CEC2FF00009D8B487
:100D38004AD00B0E0DD0030E0001FB6F3E0E0101D1
:100D4800DA6F020E2CEC2FF00009D8B43CD0080E54
:100D58000001FB6F38D0030E0001FB6F3E0E01014E
:100D6800C56F020E2CEC2FF00009D8B42CD0050E5C
:100D78000001FB6F010E010101D0010E996F23D014
:100D88009951000AD8B474D6010AD8B473D6030AA4
:100D9800D8B49FD6010AD8B4D0D6070AD8B431D768
:100DA800010AD8B45DD7030AD8B47BD7010AD8B4EE
:100DB80096D70F0AD8B4B1D7010AD8B4BCD7030A5A
:100DC800D8B4C9D7DAD7100E2CEC2FF00009D8B454
:100DD80002D00101992B010E2CEC2FF00009D8B498
:100DE80002D001019907080E2CEC2FF00009D8B4A5
:100DF80007EF0BF0000E05EF0BF0050EFB19D8B44A
:100E080004D0060EFB19D8A4F5D2300E0101F3194F
:100E1800D8B4A4D2010E996FA1D2050E0001FB6FC0
:100E28003E0E0101DA6F400E2CEC2FF00009D8B409
:100E38000ED0F30E0001656F010E666F000E676F2E
:100E4800320E686F000E696F2B0ED3EC28F0200E5F
:100E58002CEC2FF00009D8B4B0D2F30E0001656F66
:100E6800010E666F000E676F320E686F000E696FB5
:100E78002D0ED3EC28F0A1D23E0E0101C56F400E15
:100E88002CEC2FF00009D8B40ED0F70E0001656FD6
:100E9800000E666F000E676F010E686F070E696FB0
:100EA8002B0ED3EC28F0200E2CEC2FF00009D8B430
:100EB80084D2F70E0001656F000E666F000E676F33
:100EC800010E686F070E696F2D0ED3EC28F075D2EE
:100ED8003E0E0101B06F400E2CEC2FF00009D8B483
:100EE8000ED0F50E0001656F010E666F010E676F7B
:100EF8000A0E686F0C0E696F2B0ED3EC28F0200ECB
:100F08002CEC2FF00009D8B458D2F50E0001656F0B
:100F1800010E666F010E676F0A0E686F0C0E696F1F
:100F28002D0ED3EC28F049D23E0E01019B6F400EE6
:100F38002CEC2FF00009D8B40ED0F40E0001656F28
:100F4800010E666F010E676F0A0E686F0D0E696FEE
:100F58002B0ED3EC28F0200E2CEC2FF00009D8B47F
:100F68002CD2F40E0001656F010E666F010E676FDB
:100F78000A0E686F0D0E696F2D0ED3EC28F01DD286
:100F88003E0E0101E56F400E2CEC2FF00009D8B49D
:100F98000ED0F60E0001656F010E666F010E676FC9
:100FA8000A0E686F0B0E696F2B0ED3EC28F0200E1B
:100FB8002CEC2FF00009D8B400D2F60E0001656FB2
:100FC800010E666F010E676F0A0E686F0B0E696F70
:100FD8002D0ED3EC28F0F1D13E0E0101D06F400E5A
:100FE8002CEC2FF00009D8B40ED0F10E0001656F7B
:100FF800000E666F000E676F0F0E686F100E696F38
:101008002B0ED3EC28F0200E2CEC2FF00009D8B4CE
:10101800D4D1F10E0001656F000E666F000E676F88
:101028000F0E686F100E696F2D0ED3EC28F0C5D126
:101038003E0E0101BB6F400E2CEC2FF00009D8B416
:101048000ED0F00E0001656F000E666F010E676F1F
:101058000F0E686F110E696F2B0ED3EC28F0200E5F
:101068002CEC2FF00009D8B4A8D1F00E0001656F60
:10107800000E666F010E676F0F0E686F110E696FB5
:101088002D0ED3EC28F099D1050E0001FB6F3E0E12
:101098000101A66F400E2CEC2FF00009D8B40ED039
:1010A800F50E0001656F000E666F010E676FFA0E90
:1010B800686F120E696F2B0ED3EC28F0200E2CEC03
:1010C8002FF00009D8B479D1F50E0001656F000E34
:1010D800666F010E676FFA0E686F120E696F2D0E3C
:1010E800D3EC28F06AD1060E0001FB6F3E0E010119
:1010F800DA6F400E2CEC2FF00009D8B40ED0F40EA5
:101108000001656F000E666F000E676FFA0E686F5C
:10111800140E696F2B0ED3EC28F0200E2CEC2FF058
:101128000009D8B44AD1F40E0001656F000E666F4D
:10113800000E676FFA0E686F140E696F2D0ED3ECF0
:1011480028F03BD13E0E0101C56F400E2CEC2FF06C
:101158000009D8B40ED0FF0E0001656F000E666F4F
:10116800000E676F1E0E686F150E696F2B0ED3EC9D
:1011780028F0200E2CEC2FF00009D8B41ED1FF0E59
:101188000001656F000E666F000E676F1E0E686FB8
:10119800150E696F2D0ED3EC28F00FD13E0E01010C
:1011A800B06F400E2CEC2FF00009D8B40ED0F30E1F
:1011B8000001656F000E666F000E676FFA0E686FAC
:1011C800160E696F2B0ED3EC28F0200E2CEC2FF0A6
:1011D8000009D8B4F2D0F30E0001656F000E666FF7
:1011E800000E676FFA0E686F160E696F2D0ED3EC3E
:1011F80028F0E3D03E0E01019B6F400E2CEC2FF03F
:101208000009D8B40ED0F10E0001656F010E666FAB
:10121800000E676F010E686F170E696F2B0ED3EC07
:1012280028F0200E2CEC2FF00009D8B4C6D0F10E0F
:101238000001656F010E666F000E676F010E686F23
:10124800170E696F2D0ED3EC28F0B7D03E0E0101B2
:10125800E56F400E2CEC2FF00009D8B40ED0EF0E3D
:101268000001656F010E666F010E676FFA0E686FF9
:10127800190E696F2B0ED3EC28F0200E2CEC2FF0F2
:101288000009D8B49AD0EF0E0001656F010E666FA1
:10129800010E676FFA0E686F190E696F2D0ED3EC89
:1012A80028F08BD03E0E0101D06F400E2CEC2FF0B1
:1012B8000009D8B40ED0EF0E0001656F000E666FFE
:1012C800000E676F0F0E686F1B0E696F2B0ED3EC45
:1012D80028F0200E2CEC2FF00009D8B46ED0EF0EB9
:1012E8000001656F000E666F000E676F0F0E686F66
:1012F8001B0E696F2D0ED3EC28F05FD03E0E010156
:10130800BB6F400E2CEC2FF00009D8B40ED0F20EB3
:101318000001656F000E666F000E676F3C0E686F08
:101328001C0E696F2B0ED3EC28F0200E2CEC2FF03E
:101338000009D8B442D0F20E0001656F000E666F46
:10134800000E676F3C0E686F1C0E696F2D0ED3EC94
:1013580028F033D0010E0101996F2FD09951010A5D
:10136800D8B45BD5030AD8B487D5010AD8B4B0D5A8
:10137800070AD8B4D9D5010AD8B402D6030AD8B412
:101388002BD6010AD8B454D60F0AD8B47DD6010A90
:10139800D8B4A9D6030AD8B4D5D6010AD8B4FED68B
:1013A800070AD8B427D7010AD8B450D7030AD8B443
:1013B80079D7010AD8B4A2D7CDD7100E2CEC2FF0CC
:1013C8000009D8B402D00101992B010E2CEC2FF0A2
:1013D8000009D8B402D001019907080E2CEC2FF0AF
:1013E8000009D8B410D1000E0001FB6F000E0101F6
:1013F800F36F09D1080E0001FB19D8B431D0090EDA
:10140800FB19D8B42DD04DD0080E0001FB6F31D098
:10141800090E0001FB6F3E0E0101DA6F020E2CEC83
:101428002FF00009D8B425D08988000E0001616F1B
:10143800640E606F97EC2EF08998030E0001616FBF
:10144800200E606F97EC2EF00A0E0001FB6F000E65
:101458000101966F0F0E976F0CD0010E996F09D08E
:1014680001019951010AD8B4CFD7030AD8B4D0D70B
:10147800F4D7100E2CEC2FF00009D8B402D00101DB
:10148800992B010E2CEC2FF00009D8B402D00101E1
:101498009907080E2CEC2FF00009D8B4B4D0030E2D
:1014A800B0D00B0EFB19D8B489D0ADD03E0E0101D7
:1014B800DA6F400E2CEC2FF00009D8B40ED04E0E87
:1014C8000001656F000E666F000E676F1E0E686F75
:1014D800080E696F2B0ED3EC28F0200E2CEC2FF0A1
:1014E8000009D8B477D04E0E0001656F000E666F04
:1014F800000E676F1E0E686F080E696F2D0ED3EC15
:1015080028F068D03E0E0101C56F400E2CEC2FF07C
:101518000009D8B40ED04D0E0001656F000E666F3D
:10152800000E676F1E0E686F090E696F2B0ED3ECE5
:1015380028F0200E2CEC2FF00009D8B44BD04D0E1B
:101548000001656F000E666F000E676F1E0E686FF4
:10155800090E696F2D0ED3EC28F03CD03E0E010128
:10156800B06F400E2CEC2FF00009D8B40ED04C0E02
:101578000001656F000E666F000E676F1E0E686FC4
:101588000A0E696F2B0ED3EC28F0200E2CEC2FF0EE
:101598000009D8B41FD04C0E0001656F000E666FAD
:1015A800000E676F1E0E686F0A0E696F2D0ED3EC62
:1015B80028F010D0010E0101996F0CD0010199514A
:1015C800010AD8B473D7030AD8B49CD7010AD8B48F
:1015D800C5D7F0D7100E2CEC2FF00009D8B402D0E4
:1015E8000101992B010E2CEC2FF00009D8B402D080
:1015F80001019907080E2CEC2FF00009D8B403D08C
:10160800020E0001FB6F21EC2EF0DA0E0001686F6C
:10161800010E696FC50E6A6F010E6B6FB00E6C6FAD
:10162800010E6D6F9B0E6E6F010E6F6F17EC27F03A
:1016380082EF01F0000E0001676F6451D8B406D341
:101648001AD361BF06D0615106E15B0E605DD8B068
:1016580002D0550E4BD05B0E60196111D8A402D090
:10166800560E44D05C0E60196111D8A402D0570EF2
:101678003DD05D0E60196111D8A402D0580E36D045
:101688005E0E60196111D8A402D0590E2FD05F0EDA
:1016980060196111D8A402D05A0E28D0600E6019C2
:1016A8006111D8A402D05B0E21D0610E60196111BE
:1016B800D8A402D05C0E1AD0620E60196111D8A4A9
:1016C80002D05D0E13D0630E60196111D8A402D048
:1016D8005E0E0CD0640E60196111D8B4B2EF0FF031
:1016E800650E60196111D8A404D0F2D7676F03EFB3
:1016F80013F061BF0ED0615104E1660E605DD8A0A1
:1017080008D061BFE5D7615104E16C0E605DD8A0D7
:10171800DFD761BF10D0615104E16C0E605DD8A0C5
:101728000AD061BFB2EF0FF0615105E1770E605D3D
:10173800D8A0B2EF0FF0770E60196111D8B4A5EFF9
:101748000FF0780E60196111D8B4FBD3790E6019C7
:101758006111D8B4EED37A0E60196111D8B4E9D307
:101768007B0E60196111D8B43EEF11F07C0E601940
:101778006111D8B43EEF11F07D0E60196111D8B433
:101788002BEF11F07E0E60196111D8B42BEF11F018
:101798007F0E60196111D8B423EF11F0800E601923
:1017A8006111D8B423EF11F0810E60196111D8B41A
:1017B800BBD1820E60196111D8B4B6D1830E6019FD
:1017C8006111D8B4BDD1840E60196111D8B4B8D1F3
:1017D800850E60196111D8B4BFD1860E60196111E8
:1017E800D8B4BAD161BF0ED0615104E1870E605DF3
:1017F800D8A008D061BFEDD0615104E1930E605DBF
:10180800D8A0E7D061BF0ED0615104E1930E605DAE
:10181800D8A008D061BFB2D1615104E1970E605DD4
:10182800D8A0ACD1970E60196111D8B4B3D1980E75
:1018380060196111D8B4AED1990E60196111D8B48C
:10184800B5D19A0E60196111D8B4C2D19B0E601936
:101858006111D8B4BDD19C0E60196111D8B4C4D13E
:101868009D0E60196111D8B4BFD19E0E6019611127
:10187800D8B4E4D09F0E60196111D8B4DFD061BF2D
:1018880003EF13F0615101E1E0D0C6D161BFF6D694
:10189800615104E15B0E605DD8A0F0D65B0E601963
:1018A8006111D8B4F2D65C0E60196111D8B4F4D6BF
:1018B8005D0E60196111D8B4F6D65E0E601961111B
:1018C800D8B4F8D65F0E60196111D8B4FAD6600E94
:1018D80060196111D8B4FCD6610E60196111D8B4D1
:1018E8003DD361BF0ED0615104E1620E605DD8A0A6
:1018F80008D061BF26D3615104E1650E605DD8A0B0
:1019080020D361BF0ED0615104E1650E605DD8A09F
:1019180008D061BF0ED3615104E1780E605DD8A094
:1019280008D361BF10D0615104E1780E605DD8A082
:101938000AD061BF3EEF11F0615105E17B0E605D99
:10194800D8A03EEF11F07B0E60196111D8B42BEFCF
:1019580011F07C0E60196111D8B42BEF11F07D0ED7
:1019680060196111D8B423EF11F07E0E601961116E
:10197800D8B423EF11F07F0E60196111D8B4D4D018
:10198800800E60196111D8B4CFD0810E6019611131
:10199800D8B4D6D0820E60196111D8B4D1D0830ED4
:1019A80060196111D8B4D8D0840E60196111D8B407
:1019B800D3D061BF10D0615104E1850E605DD8A01D
:1019C8000AD061BF06D0615106E1950E605DD8B0BE
:1019D80002D0680E8BD661BF0ED0615104E1950E1E
:1019E800605DD8A008D061BFC9D0615104E1990EEB
:1019F800605DD8A0C3D0990E60196111D8B4CAD05F
:101A08009A0E60196111D8B4D1D09B0E601961117A
:101A1800D8B4DED09C0E60196111D8B4D9D09D0E0F
:101A280060196111D8B4E0D09E0E60196111D8B464
:101A3800DBD09F0E60196111D8A402D06E0E56D665
:101A480061BF03EF13F0615105E1A00E605DD8A0FE
:101A580003EF13F0E1D061BF1FD6615104E15B0EC3
:101A6800605DD8A019D65B0E60196111D8B41BD679
:101A78005C0E60196111D8B41DD65D0E6019611134
:101A8800D8B41FD65E0E60196111D8B421D65F0E86
:101A980060196111D8B462D2600E60196111D8B4AE
:101AA8005DD2610E60196111D8B44BD2620E601913
:101AB8006111D8B446D2630E60196111D8B439D215
:101AC80061BF0ED0615104E1640E605DD8A008D0FA
:101AD80061BFD0D3615104E1680E605DD8A0CAD35C
:101AE800680E60196111D8B4B2D3690E601961111A
:101AF800D8B4ADD361BF0ED0615104E16A0E605D08
:101B0800D8A008D061BF9BD3615104E17B0E605D12
:101B1800D8A095D37B0E60196111D8B405D07C0E7E
:101B280060196111D8A402D0650EE0D57D0E601948
:101B38006111D8B405D07E0E60196111D8A402D005
:101B4800660ED4D57F0E60196111D8B405D0800E09
:101B580060196111D8A402D0670EC8D561BF10D032
:101B6800615104E1810E605DD8A00AD061BF06D042
:101B7800615106E18B0E605DD8B002D0690EB6D512
:101B88008B0E60196111D8B405D08C0E60196111E3
:101B9800D8A402D06A0EAAD58D0E60196111D8B4E6
:101BA80005D0920E60196111D8A402D06B0E9ED593
:101BB80061BF10D0615104E1930E605DD8A00AD0D6
:101BC80061BF06D0615106E1980E605DD8B002D0C1
:101BD8006C0E8CD5990E60196111D8B405D0980E89
:101BE80060196111D8A402D06D0E80D59B0E6019C2
:101BF8006111D8B405D09A0E60196111D8A402D029
:101C08006F0E74D59D0E60196111D8B405D09C0E65
:101C180060196111D8A402D0700E68D59F0E6019A2
:101C28006111D8B405D09E0E60196111D8A402D0F4
:101C3800710E5CD561BF03EF13F0615105E1A00E91
:101C4800605DD8A003EF13F0730E50D562C065F045
:101C580063C066F06651000AD8A403EF13F065511B
:101C6800010AD8B4EED4030AD8B410D6010AD8B4FD
:101C7800F2D603EF13F06405D8B4F8EF12F003EFCF
:101C880013F061BF17D5615104E15B0E605DD8A008
:101C980011D55B0E60196111D8B40CD55C0E6019B2
:101CA8006111D8B4F9D45D0E60196111D8B4EDD4BE
:101CB80061BF0ED0615104E15E0E605DD8A008D00E
:101CC80061BFDCD4615104E1650E605DD8A0D6D453
:101CD80061BF0ED0615104E1650E605DD8A008D0E7
:101CE80061BFFED2615104E1670E605DD8A0F8D2F1
:101CF800670E60196111D8B403D3680E60196111B9
:101D0800D8B406D3690E60196111D8B479D16A0EB6
:101D180060196111D8B40FD36B0E60196111D8B472
:101D280012D36C0E60196111D8A402D0430EDED410
:101D38006D0E60196111D8B40ED36E0E6019611161
:101D4800D8B47ED161BF0ED0615104E16F0E605DE1
:101D5800D8A008D061BF17D3615104E1730E605D4C
:101D6800D8A011D3730E60196111D8B414D3740EAE
:101D780060196111D8B417D3750E60196111D8A410
:101D880002D0360EB3D4760E60196111D8B423D3BD
:101D9800770E60196111D8B426D3780E60196111D5
:101DA800D8B48DD1790E60196111D8B42CD37A0EBC
:101DB80060196111D8A402D02E0E98D47B0E601938
:101DC8006111D8B428D37C0E60196111D8B489D1B7
:101DD8007D0E60196111D8B426D37E0E6019611189
:101DE800D8B487D17F0E60196111D8B42CD3800E76
:101DF80060196111D8B427D3810E60196111D8B464
:101E08002AD3820E60196111D8A402D0260E6ED48E
:101E1800830E60196111D8B426D3840E601961113C
:101E2800D8B429D3850E60196111D8B424D3860E8D
:101E380060196111D8B41FD3870E60196111D8B425
:101E480022D3880E60196111D8B425D3890E601980
:101E58006111D8B428D38A0E60196111D8B42BD374
:101E68008B0E60196111D8B42ED38C0E60196111D4
:101E7800D8B431D38D0E60196111D8B434D38E0E15
:101E880060196111D8B437D38F0E60196111D8B4B5
:101E98003AD3900E60196111D8B43DD3910E6019F0
:101EA8006111D8B440D3920E60196111D8B443D3EC
:101EB800930E60196111D8B446D3940E601961115C
:101EC800D8B449D3950E60196111D8B44CD3960E85
:101ED80060196111D8B44FD3970E60196111D8B445
:101EE80052D3980E60196111D8B455D361BF0ED082
:101EF800615104E1990E605DD8A008D061BF5ED33E
:101F0800615104E19D0E605DD8A058D39D0E601903
:101F18006111D8B45BD361BF72D3615101E182D141
:101F280060D361BF06D0615107E15B0E605DD8B038
:101F380003D0610E7AEF0BF05B0E60196111D8A423
:101F480003D0600E7AEF0BF05C0E60196111D8B403
:101F580005D05C0E60196111D8A403D05F0E7AEF2A
:101F68000BF05D0E60196111D8B46CEF0BF061BF16
:101F780010D0615104E15E0E605DD8A00AD061BF47
:101F880065EF0BF0615105E1650E605DD8A065EF66
:101F98000BF061BF11D0615104E1650E605DD8A0FE
:101FA8000BD061BF06D0615107E1670E605DD8B004
:101FB80003D0530E7AEF0BF0670E60196111D8A4A5
:101FC80003D0510E7AEF0BF0680E60196111D8B486
:101FD8007FD1690E60196111D8B48AD16A0E60196F
:101FE8006111D8B495D16B0E60196111D8A403D0D2
:101FF800490E7AEF0BF06C0E60196111D8A403D06A
:10200800480E7AEF0BF06D0E60196111D8A403D059
:10201800470E7AEF0BF06E0E60196111D8B48BD1B0
:1020280061BF11D0615104E16F0E605DD8A00BD083
:1020380061BF06D0615107E1730E605DD8B003D06F
:10204800410E7AEF0BF0730E60196111D8A403D01A
:102058003F0E7AEF0BF0740E60196111D8A403D00B
:102068003D0E7AEF0BF0750E60196111D8A403D0FC
:102078003B0E7AEF0BF0760E60196111D8A403D0ED
:10208800390E7AEF0BF0770E60196111D8B493D13D
:10209800780E60196111D8B496D1790E6019611162
:1020A800D8A403D0330E7AEF0BF07A0E60196111C1
:1020B800D8B499D17B0E60196111D8A403D0300E21
:1020C8007AEF0BF07C0E60196111D8B49CD17D0EAB
:1020D80060196111D8B49FD17E0E60196111D8A41E
:1020E80003D02C0E7AEF0BF07F0E60196111D8A483
:1020F80003D02A0E7AEF0BF0800E60196111D8B464
:102108009AD1810E60196111D8B495D1820E6019E7
:102118006111D8B498D1830E60196111D8B493D1E4
:10212800840E60196111D8B496D1850E60196111B9
:10213800D8B491D1860E60196111D8B49CD1870E9C
:1021480060196111D8B49FD1880E60196111D8B493
:10215800A2D1890E60196111D8B4A5D18A0E60196F
:102168006111D8B4A8D18B0E60196111D8B4ABD164
:102178008C0E60196111D8B4AED18D0E6019611141
:10218800D8B4B1D18E0E60196111D8B4B4D18F0E04
:1021980060196111D8B4B7D1900E60196111D8B423
:1021A800BAD1910E60196111D8B4BDD1920E6019DF
:1021B8006111D8B4C0D1930E60196111D8B4C3D1DC
:1021C800940E60196111D8B4C6D1950E60196111C9
:1021D800D8B4C9D1960E60196111D8B4CCD1970E74
:1021E80060196111D8B4CFD1980E60196111D8B4B3
:1021F800D2D161BF0ED0615104E1990E605DD8A0C3
:1022080008D061BFDBD1615104E19D0E605DD8A0AB
:10221800D5D19D0E60196111D8B4D8D161BFEFD165
:10222800615104E19E0E605DD8A0E9D1DAD161BFA9
:1022380006D0615107E15D0E605DD8B003D0640E31
:102248007AEF0BF05D0E60196111D8A403D0630E0C
:102258007AEF0BF061BF11D0615104E15E0E605D51
:10226800D8A00BD061BF06D0615107E1650E605D53
:10227800D8B003D0620E7AEF0BF061BF10D0615175
:1022880004E1650E605DD8A00AD061BF42EF0BF093
:10229800615105E1670E605DD8A042EF0BF0670E53
:1022A80060196111D8B434EF0BF0680E6019611130
:1022B800D8B42DEF0BF0690E60196111D8A403D0C2
:1022C800520E7AEF0BF06A0E60196111D8A403D090
:1022D800500E7AEF0BF06B0E60196111D8A403D081
:1022E8004E0E7AEF0BF06C0E60196111D8A403D072
:1022F8004D0E7AEF0BF06D0E60196111D8A403D062
:102308004C0E7AEF0BF06E0E60196111D8A403D051
:102318004B0E7AEF0BF061BF11D0615104E16F0EE3
:10232800605DD8A00BD061BF06D0615107E1730E84
:10233800605DD8B003D0460E7AEF0BF0730E6019CB
:102348006111D8A403D0440E7AEF0BF0740E601913
:102358006111D8A403D0420E7AEF0BF0750E601904
:102368006111D8A403D0400E7AEF0BF0760E6019F5
:102378006111D8A403D03E0E7AEF0BF0770E6019E6
:102388006111D8A403D03C0E7AEF0BF0780E6019D7
:102398006111D8A403D03A0E7AEF0BF0790E6019C8
:1023A8006111D8A403D0380E7AEF0BF07A0E6019B9
:1023B8006111D8A403D0370E7AEF0BF07B0E6019A9
:1023C8006111D8A403D0350E7AEF0BF07C0E60199A
:1023D8006111D8A403D0340E7AEF0BF07D0E60198A
:1023E8006111D8A403D0320E7AEF0BF07E0E60197B
:1023F8006111D8A403D0310E7AEF0BF07F0E60196B
:102408006111D8A403D02F0E7AEF0BF0800E60195B
:102418006111D8A403D02D0E7AEF0BF0810E60194C
:102428006111D8A403D02B0E7AEF0BF0820E60193D
:102438006111D8A403D0290E7AEF0BF0830E60192E
:102448006111D8A403D0280E7AEF0BF0840E60191E
:102458006111D8A403D0270E7AEF0BF0850E60190E
:102468006111D8A403D0250E7AEF0BF0860E6019FF
:102478006111D8A403D0240E7AEF0BF0870E6019EF
:102488006111D8A403D0230E7AEF0BF0880E6019DF
:102498006111D8A403D0220E7AEF0BF0890E6019CF
:1024A8006111D8A403D0210E7AEF0BF08A0E6019BF
:1024B8006111D8A403D0200E7AEF0BF08B0E6019AF
:1024C8006111D8A403D01F0E7AEF0BF08C0E60199F
:1024D8006111D8A403D01E0E7AEF0BF08D0E60198F
:1024E8006111D8A403D01D0E7AEF0BF08E0E60197F
:1024F8006111D8A403D01C0E7AEF0BF08F0E60196F
:102508006111D8A403D01B0E7AEF0BF0900E60195E
:102518006111D8A403D01A0E7AEF0BF0910E60194E
:102528006111D8A403D0190E7AEF0BF0920E60193E
:102538006111D8A403D0180E7AEF0BF0930E60192E
:102548006111D8A403D0170E7AEF0BF0940E60191E
:102558006111D8A403D0160E7AEF0BF0950E60190E
:102568006111D8A403D0150E7AEF0BF0960E6019FE
:102578006111D8A403D0140E7AEF0BF0970E6019EE
:102588006111D8A403D0130E7AEF0BF0980E6019DE
:102598006111D8A403D0120E7AEF0BF061BF11D0ED
:1025A800615104E1990E605DD8A00BD061BF06D0DF
:1025B800615107E19D0E605DD8B003D0110E7AEF2E
:1025C8000BF09D0E60196111D8A403D0100E7AEF9C
:1025D8000BF061BF14D0615104E19E0E605DD8A07C
:1025E8000ED00F0E7AEF0BF0ED51010AD8B445EF7B
:1025F8000EF0030AD8B495D4010AD8B418D667C027
:1026080060F0616B1200CCD2250E00018019D8B49D
:1026180033D020EE02F06C51D9266D51DA22DE500B
:10262800DE10D8B413D020EE02F06C51D9266D51CB
:10263800DA2201D8B5D20500FA6EDE50FD6EDE5002
:10264800FE6EF850FF6EFA50805112006CC0D9FF30
:102658006DC0DAFFDECF72F0DDCF73F072C0D9FF44
:1026680073C0DAFF80C0DFFF6CC0D9FF6DC0DAFF2E
:10267800DE2A000EDD2294D2000E00017F6F000ECC
:102688007E6F000E776F6EC0F6FF6FC0F7FF080011
:10269800F5500CEC2FF0D8A03CD1000E00017F6F54
:1026A800000E7E6F7EC060F07FC061F0000E0001FA
:1026B800636F0A0E626FACEC2EF060C07EF061C0F2
:1026C8007FF0D00E0001726FFF0E736F6EC0F6FFC1
:1026D8006FC0F7FF0800F550746F756B725174275F
:1026E8007351752374517E2775517F236E4B6F2B61
:1026F8006EC0F6FF6FC0F7FF0800F5500CEC2FF026
:10270800D8A007D1CFD770C0D9FF71C0DAFFDFCF0B
:1027180072F0020EDE26DFCF73F0000EDD2272C0EB
:10272800D9FF73C0DAFFDECF7CF0DDCF7DF000018A
:102738007C517D11D8A404D0830E7C6F7F0E7D6FF1
:10274800000E7B6F000E7A6F03D000017A4B7B2B53
:102758007A517C25726F7B517D21736F72C0F6FFB1
:1027680073C0F7FFF86A070EF76403D00800F55046
:1027780005D0F6CFE9FFF7CFEAFFEF500009D8A45C
:10278800E4D700017E517A5D7F517B59D8B005D0DE
:102798007A517E5F7B517F5B37D0000E7F6F000ED2
:1027A8007E6F32D020EE02F06C51D9266D51DA22BC
:1027B800DE50DE10D8B413D020EE02F06C51D926CA
:1027C8006D51DA2201D820D00500FA6EDE50FD6E78
:1027D800DE50FE6EF850FF6EFA50200E12006CC0EC
:1027E800D9FF6DC0DAFFDECF72F0DDCF73F072C0B3
:1027F800D9FF73C0DAFF200EDF6E6CC0D9FF6DC041
:10280800DAFFDE2A000EDD2200017E07D8A07F074E
:102818007E29C8E17F29D8B458D0C4D720EE02F069
:102828006C51D9266D51DA22DE50DE10D8B426D08C
:1028380020EE02F06C51D9266D51DA2201D81AD057
:102848000500FA6EDE50FD6EDE50FE6EF850FF6E2B
:10285800FA507CC0F6FF7DC0F7FFF86A070EF764F0
:1028680003D00800F55005D0F6CFE9FFF7CFEAFF0F
:10287800EF50120000017C4B7D2B27D07CC0F6FF67
:102888007DC0F7FFF86A6CC0D9FF6DC0DAFFDECFF4
:1028980072F0DDCF73F072C0D9FF73C0DAFF070E94
:1028A800F76403D00800F55005D0F6CFE9FFF7CF5D
:1028B800EAFFEF50DF6E00017C4B7D2B6CC0D9FF27
:1028C8006DC0DAFFDE2A000EDD227A07D8A07B076A
:1028D8007A29A4E17B29D8B463D1A0D770C0D9FFE5
:1028E80071C0DAFFDFCF72F0020EDE26DFCF73F0A1
:1028F800000EDD2272C0D9FF73C0DAFFDF50806F8F
:10290800800E7C6F000E7D6F000E7B6F010E7A6F5C
:1029180038D76EC0F6FF6FC0F7FF00016E4B6F2B04
:102928000800F5CF80F08051000AD8B446D1630A78
:10293800D8B4D4D7070AD8B407D00D0AD8B404D06D
:102948001A0AD8B4E0D6DCD770C0D9FF71C0DAFF54
:10295800DFCF72F0020EDE26DFCF73F0000EDD222D
:1029680072C0D9FF73C0DAFFDECF78F0DDCF79F01F
:10297800000179AF06D0030E7713786D791FD8B0B0
:10298800792B010E806F050E8019D8B412D08051B2
:10299800020DCD0EF324F66E770EF420F76E0900C3
:1029A800F550785D0900F5507959D8A002D0802BF0
:1029B800EAD77E517F11D8B409D077C072F0030EE0
:1029C8007217D8B403D07E07D8A07F07800E80BFC7
:1029D8007F0E726F7E51805D7F51800A7259D8B028
:1029E80007D080517E5F000E80BFFF0E7F5B04D052
:1029F800000E7F6F000E7E6F7E517F11D8B43AD0E3
:102A080020EE02F06C51D9266D51DA22DE50DE102C
:102A1800D8B413D020EE02F06C51D9266D51DA22C9
:102A280001D820D00500FA6EDE50FD6EDE50FE6E35
:102A3800F850FF6EFA50200E12006CC0D9FF6DC01E
:102A4800DAFFDECF72F0DDCF73F072C0D9FF73C04A
:102A5800DAFF200EDF6E6CC0D9FF6DC0DAFFDE2A08
:102A6800000EDD2200017E07D8A07F077E517F116E
:102A7800D8A4C6D777C072F0030E7217D8B432D074
:102A880020EE02F06C51D9266D51DA22DE50DE10AC
:102A9800D8B413D020EE02F06C51D9266D51DA2249
:102AA80001D820D00500FA6EDE50FD6EDE50FE6EB5
:102AB800F850FF6EFA502D0E12006CC0D9FF6DC091
:102AC800DAFFDECF72F0DDCF73F072C0D9FF73C0CA
:102AD800DAFF2D0EDF6E6CC0D9FF6DC0DAFFDE2A7B
:102AE800000EDD2280C076F056D000017651020D2E
:102AF800CD0EF324F66E770EF420F76E0900F5CFAD
:102B080062F00A00F5CF63F078C060F079C061F038
:102B18009CEC2CF060C067F061C068F0000E00010A
:102B28006A6F0A0E696F35EC2DF000016751300F9E
:102B3800806F20EE02F06C51D9266D51DA22DE50FA
:102B4800DE10D8B413D020EE02F06C51D9266D51A6
:102B5800DA2201D820D00500FA6EDE50FD6EDE5074
:102B6800FE6EF850FF6EFA50805112006CC0D9FF0B
:102B78006DC0DAFFDECF72F0DDCF73F072C0D9FF1F
:102B880073C0DAFF80C0DFFF6CC0D9FF6DC0DAFF09
:102B9800DE2A000EDD22000176077629D8A4A5D703
:102BA8006EC0F6FF6FC0F7FF00016E4B6F2B080079
:102BB800F5CF80F08051D8A427D5000E00016D6FA5
:102BC800000E6C6F120001019751D8A405D0000EB9
:102BD800966F0A0E976F1200B00E0001606F020E1A
:102BE800616F71EC2CF00C0E000160196111D8B402
:102BF80014D27CD278EC2DF0350E0001816F7E0E58
:102C0800826FB7EC2DF0000E01019A6F962B12001F
:102C1800420E00016F6F020E706FF60E716F7F0E1D
:102C2800726F82EC28F000016F517011D8B4120055
:102C38000101962B120078EC2DF0270E0001816F10
:102C48007E0E826FB7EC2DF00101962B1200420E1A
:102C580000016F6F020E706FDD0E716F7F0E726F65
:102C680082EC28F000016F517011D8B402D0010E27
:102C780001D0000EC56F420E6F6F020E706FF60E18
:102C8800716F7F0E726F82EC28F000016F51701126
:102C9800D8B402D0010E01D0000EC511E8A0120070
:102CA8000101962B120078EC2DF0000E0001616FE7
:102CB8000A0E606F97EC2EF0FE0E0001816F7B0EFE
:102CC800826FA10E836F020E846F920E856F020EC3
:102CD800866FB7EC2DF00101962B230E976F12002B
:102CE800962B120078EC2DF0100E0101976112005E
:102CF800FA0E0001816F7D0E826FB7EC2DF0010195
:102D0800962B1200420E00016F6F020E706FFD0EBF
:102D1800716F7F0E726F82EC28F000016F51701195
:102D2800D8B402D0010E01D0000EC56F420E6F6FED
:102D3800020E706FFB0E716F7F0E726F82EC28F0BF
:102D480000016F517011D8B402D0010E01D0000EED
:102D5800C511E8A01200010E01019A6F962B12000E
:102D680078EC2DF0390E0001816F7B0E826FB7EC85
:102D78002DF00101962B1200420E00016F6F020E1A
:102D8800706FF60E716F7F0E726F82EC28F0000183
:102D98006F517011D8B412000101962B120078EC13
:102DA8002DF0DE0E0001816F7C0E826FB7EC2DF0E6
:102DB8000101962B1200420E00016F6F020E706F18
:102DC800780E716F7C0E726F82EC28F000016F51E3
:102DD8007011D8B412000101962B120078EC2DF076
:102DE800000E0001D86FC70E816F000E826F260E8D
:102DF800836F7F0E846FA50E856F7E0E866F13EC32
:102E08002DF0000E0001D86F17D0D851010DC70E54
:102E1800F324D96E000EF420DA6E200EDE18D8A442
:102E28000AD0D851010DC70EF324D96E000EF42034
:102E3800DA6E2D0EDF6ED82BC70E606F000E616F35
:102E480071EC2CF00001D851C56FC66B6051C55D9F
:102E58006151C659D8A0D9D7EFC160F0F0C161F06F
:102E6800000E636F270E626FACEC2EF060C0D6F0D8
:102E780061C0D7F0970E0001816F7A0E826FFDC096
:102E880083F0846BECC085F0866BFCC087F0886BA0
:102E9800EBC089F08A6BF9C08BF08C6BFAC08DF0AF
:102EA8008E6BF6C08FF0906BF8C091F0926BEEC00D
:102EB80093F0946BEDC095F0966BF7C097F0986B14
:102EC800B00E996F020E9A6FD6C09BF0D7C09CF0D7
:102ED800C70E9D6F000E9E6FFEC09FF0A06BF3C1E2
:102EE800A1F0A26BF7C0A3F0A46BF5C1A5F0A66B87
:102EF800F4C1A7F0A86BF6C1A9F0AA6BF1C0ABF0BA
:102F0800AC6BF0C0ADF0AE6BF5C0AFF0B06BF4C019
:102F1800B1F0B26BFFC0B3F0B46BF3C0B5F0B66BF1
:102F2800F1C1B7F0F2C1B8F0EFC1B9F0F0C1BAF031
:102F3800EFC0BBF0BC6BF2C0BDF0BE6BB7EC2DF0C0
:102F48000101962B1200420E00016F6F020E706F86
:102F5800D80E716F7F0E726F82EC28F000016F51EE
:102F68007011D8B402D0010E01D0000EC56F420E08
:102F78006F6F020E706FEB0E716F7F0E726F82ECC7
:102F880028F000016F517011D8B402D0010E01D0A1
:102F9800000EC511E8A012000101962B120078EC72
:102FA8002DF05F0E0001816F7E0E826FB7EC2DF061
:102FB8000101962B1200420E00016F6F020E706F16
:102FC800910E716F7F0E726F82EC28F000016F51C5
:102FD8007011D8B402D0010E01D0000EC56F420E98
:102FE8006F6F020E706FF60E716F7F0E726F82EC4C
:102FF80028F000016F517011D8B402D0010E01D031
:10300800000EC511E8A01200060E0101966F190EF8
:10301800976F1200000E966F120001019651000A78
:10302800D8B4E8D5010AD8B4F3D5030AD8B403D67E
:10303800010AD8B40CD6070AD8B435D6010AD8B4D0
:103048004FD6030AD8B44ED6010AD8B45BD60F0AB5
:10305800D8B486D6010AD8B48FD6030AD8B49FD676
:10306800010AD8B4A8D6070AD8B4B8D6010AD8B481
:103078006AD7030AD8B493D7010AD8B49CD7CAD759
:1030880078EC2DF0C90E0001816F7E0E826FB7ECCF
:103098002DF00101962B1200420E00016F6F020EF7
:1030A800706FEF0E716F7F0E726F82EC28F0000167
:1030B8006F517011D8B41200420E6F6F020E706F0C
:1030C800EF0E716F7F0E726F82EC28F06FC073F095
:1030D80070C074F0B00E0001756F020E766FBFEC11
:1030E80021F01200000E0101966F120001019651A5
:1030F800000AD8B4C5D7010AD8B4CED7F3D7000E82
:103108000001B36F000EB46F000EB56F000EB66FFE
:103118003C50D8A4F3D10A0E3C6E0A0E3B6005D091
:103128003B2A3BC0ABF0AC6B04D0000EAC6F000E7A
:10313800AB6FABC03BF0000EB46F000EB56F000E66
:10314800B66F000EB36F0B0EB36501D042D0000E00
:103158007E6F000E7F6F420E806F000E6F6F610EE4
:10316800706F3F0E716F000E22EC29F060C069F09D
:1031780061C06AF0D4EC2EF069C06CF06AC06DF0E2
:103188006BC06EF04BEC25F06CC07BF06DC07CF032
:103198006EC07DF0E8EC20F07BC0B0F07CC0B1F0F0
:1031A8007DC0B2F0B4C07BF0B5C07CF0B6C07DF095
:1031B800B0C07EF0B1C07FF0B2C080F0E8EC20F083
:1031C8007BC0B4F07CC0B5F07DC0B6F00001B32B75
:1031D800BAD7B4C087F0B5C088F0B6C089F0000E81
:1031E8008A6F400E8B6F410E8C6F3BEC26F087C0C8
:1031F800B4F088C0B5F089C0B6F0000E0001606F69
:10320800140E616F420E626FB4C063F0B5C064F013
:10321800B6C065F005EC2AF00001D8B015D0B4C0EE
:103228007BF0B5C07CF0B6C07DF0000E7E6F800EDE
:103238007F6F3F0E806FE8EC20F07BC0A5F07CC06C
:10324800A6F07DC0A7F007D0000E0001A56F000E04
:10325800A66F000EA76F3B50030D210EF324D96E05
:10326800020EF420DA6EA5C0DEFFA6C0DEFFA7C0FE
:10327800DEFF000E0001B46F000EB56F000EB66FD2
:10328800F705D8A47ED0000EAD6F000EAE6F000E0D
:10329800AF6F000EB36F0B0EB36501D0BAD0750EC9
:1032A8007E6F530E7F6FBF0E806F000E6F6FA00E84
:1032B800706F3B0E716F010E22EC29F060C069F04F
:1032C80061C06AF0D4EC2EF069C06CF06AC06DF091
:1032D8006BC06EF04BEC25F06CC07BF06DC07CF0E1
:1032E8006EC07DF0E8EC20F07BC087F07CC088F0F1
:1032F8007DC089F0060E00018A6F010E8B6F3D0EAE
:103308008C6F3BEC26F087C0ADF088C0AEF089C06A
:10331800AFF0ADC060F0AEC061F0AFC062F0000EBB
:103328000001636F200E646F410E656F05EC2AF093
:103338000001D8B00FD0B4C07BF0B5C07CF0B6C0E7
:103348007DF0000E7E6F000E7F6F000E806FE8EC40
:1033580020F00ED0B4C07BF0B5C07CF0B6C07DF0D4
:10336800ADC07EF0AEC07FF0AFC080F0E8EC20F0DA
:103378007BC0B4F07CC0B5F07DC0B6F00001B32BC3
:103388008AD7000EB36F0B0EB36501D042D0000E82
:103398007E6F000E7F6F420E806F000E6F6F610EA2
:1033A800706F3F0E716F020E22EC29F060C069F059
:1033B80061C06AF0D4EC2EF069C06CF06AC06DF0A0
:1033C8006BC06EF04BEC25F06CC07BF06DC07CF0F0
:1033D8006EC07DF0E8EC20F07BC0B0F07CC0B1F0AE
:1033E8007DC0B2F0B4C07BF0B5C07CF0B6C07DF053
:1033F800B0C07EF0B1C07FF0B2C080F0E8EC20F041
:103408007BC0B4F07CC0B5F07DC0B6F00001B32B32
:10341800BAD7B4C087F0B5C088F0B6C089F0000E3E
:103428008A6F400E8B6F410E8C6F3BEC26F087C085
:10343800B4F088C0B5F089C0B6F00001F705D8A48B
:103448002ED0000E606FC80E616F420E626FB4C05E
:1034580063F0B5C064F0B6C065F005EC2AF0000171
:10346800D8B006D0000EB46FC80EB56F420EB66F56
:10347800B4C060F0B5C061F0B6C062F0000E636F12
:10348800200E646F410E656F05EC2AF00001D8B07C
:1034980006D0000EB46F000EB56F000EB66FB4C044
:1034A80060F0B5C061F0B6C062F0000E636F200E28
:1034B800646F420E656F05EC2AF00001D8B003D0A6
:1034C800F751D8B407D0B4C0A8F0B5C0A9F0B6C0B9
:1034D800AAF006D0000EA86F000EA96F000EAA6F02
:1034E8003B50030D000EF324D96E020EF420DA6E61
:1034F800A8C0DEFFA9C0DEFFAAC0DEFF000EB36FC2
:10350800000EB46F000EB56F000EB66F000EB36FED
:10351800090EB36501D01FD0B4C07BF0B5C07CF0F4
:10352800B6C07DF0B351030D210EF324D96E020EFF
:10353800F420DA6EDECF7EF0DECF7FF0DDCF80F0D4
:10354800E8EC20F07BC0B4F07CC0B5F07DC0B6F0EC
:103558000001B32BDDD7000E8A6F200E8B6F410E52
:103568008C6FB4C087F0B5C088F0B6C089F03BEC6A
:1035780026F087C096F088C097F089C098F0CFEC05
:1035880024F000019651FD6F000EB36F000EB46F6A
:10359800000EB56F000EB66F000EB36F090EB3655F
:1035A80001D01FD0B4C07BF0B5C07CF0B6C07DF0B0
:1035B800B351030D000EF324D96E020EF420DA6E17
:1035C800DECF7EF0DECF7FF0DDCF80F0E8EC20F0BC
:1035D8007BC0B4F07CC0B5F07DC0B6F00001B32B61
:1035E800DDD7000E8A6F200E8B6F410E8C6FB4C032
:1035F80087F0B5C088F0B6C089F03BEC26F087C0EC
:1036080096F088C097F089C098F0CFEC24F00001BC
:103618009651FC6F120001019751D8A407D0080EEB
:103628000001FB6F010E0101996F1200000E0001ED
:10363800616F0A0E606F97EC2EF023D278EC2DF0B4
:10364800510E0001816F7E0E826FB7EC2DF0000ED7
:1036580001019A6F962B1200420E00016F6F020E45
:10366800706FF60E716F7F0E726F82EC28F000019A
:103678006F517011D8B412000101962B120078EC2A
:103688002DF0430E0001816F7E0E826FB7EC2DF096
:103698000101962B1200420E00016F6F020E706F2F
:1036A800F60E716F7F0E726F82EC28F000016F5179
:1036B8007011D8B412000101962B120078EC2DF08D
:1036C800990E0001816F7B0E826FB7EC2DF001011E
:1036D800962B1200420E00016F6F020E706FF60EED
:1036E800716F7F0E726F82EC28F000016F517011BC
:1036F800D8B412000101962B120078EC2DF0BC0E04
:103708000001816F7B0E826FB7EC2DF00101962BC3
:103718001200420E00016F6F020E706FF60E716F8D
:103728007F0E726F82EC28F000016F517011D8B4CF
:1037380012000101962B120078EC2DF0D20E000138
:10374800816F7B0E826FB7EC2DF00101962B120072
:10375800420E00016F6F020E706FF60E716F7F0ED2
:10376800726F82EC28F000016F517011D8B412000A
:103778000101962BB40E976F1200DA0E0001816FCB
:10378800010E826FCA0E836F7C0E846F13EC2DF0CE
:10379800C50E0001816F010E826F840E836F7D0E4E
:1037A800846F13EC2DF0B00E0001816F010E826F53
:1037B800280E836F7C0E846F13EC2DF09B0E000196
:1037C800816F010E826F890E836F7E0E846F13ECFA
:1037D8002DF0420E00016F6F020E706FCE0E716FEA
:1037E8007F0E726F82EC28F000016F517011D8A41F
:1037F8001ED0420E6F6F020E706FBB0E716F7F0E80
:10380800726F82EC28F000016F517011D8A40FD0AC
:10381800420E6F6F020E706F6B0E716F7F0E726FBC
:1038280082EC28F000016F517011D8B41200010E1B
:10383800616F900E606F97EC2EF00101962B1200CD
:1038480078EC2DF0130E0001816F7C0E826FB7ECBF
:103858002DF00101962B1200420E00016F6F020E2F
:10386800706F780E716F7C0E726F82EC28F0000119
:103878006F517011D8B412000101962B120078EC28
:103888002DF06C0E0001816F7B0E826FB7EC2DF06E
:10389800000E0001616F640E606F97EC2EF0D70E7A
:1038A8000001816F770E826FB7EC2DF0030E0001D7
:1038B800616F200E606F97EC2EF0EA0E0001816FA9
:1038C8007D0E826FB7EC2DF0010E0001616F2C0E9A
:1038D800606F97EC2EF0B40E0101976F78EC2DF025
:1038E8000101962B12009B0E0001816F010E826F61
:1038F8007B0E836F7E0E846F13EC2DF0420E000159
:103908006F6F020E706FD30E716F7F0E726F82EC45
:1039180028F000016F517011D8B41200420E6F6F79
:10392800020E706FAD0E716F7F0E726F82EC28F011
:1039380000016F517011D8B41200C20E916F7F0E42
:10394800926FF90E936F7F0E946F420E956F020E71
:10395800966FA10E976F020E986F77EC22F08A0E81
:103968000001916F7F0E926FF90E936F7F0E946F27
:10397800420E956F020E966F920E976F020E986F19
:1039880077EC22F0DA0E0001816F010E826F260EAD
:10399800836F7F0E846FA10E856F020E866F13EC06
:1039A8002DF0C50E0001816F010E826F260E836F08
:1039B8007F0E846F920E856F020E866F13EC2DF0CA
:1039C8009B0E0001816F010E826F6D0E836F7E0E5C
:1039D800846F13EC2DF0DA0E0001686F010E696F29
:1039E800C50E6A6F010E6B6FB00E6C6F010E6D6FB6
:1039F8009B0E6E6F010E6F6F17EC27F0A10E000182
:103A0800606F020E616F71EC2CF00001615104E1EE
:103A1800040E605DD8A030D0000EC56F000EC56FD3
:103A28000E0EC56501D011D0C551010DA10EF324AC
:103A3800D96E020EF420DA6EDF50636FC551280F7D
:103A480057EC2DF00001C52BEBD7000EC56F0E0EFD
:103A5800C56501D011D0C551010D920EF324D96E60
:103A6800020EF420DA6EDF50636FC5513C0F57EC3D
:103A78002DF00001C52BEBD7FFD7000E0101966F83
:103A8800120001019651000AD8B4D8D5010AD8B459
:103A9800E3D5030AD8B4F3D5010AD8B4FCD5070A8C
:103AA800D8B40CD6010AD8B415D6030AD8B425D68A
:103AB800010AD8B42ED60F0AD8B43ED6010AD8B413
:103AC80047D6030AD8B459D6010AD8B4B9D6070AD2
:103AD800D8B4C2D6010AD8B4D2D6030AD8B403D708
:103AE800CCD70001FE51D8A42BD04FA402D08A8A8B
:103AF80001D08A9A8D908C808C92000E0001636FA1
:103B08000A0E626F000E656F000E646F010E4EECB8
:103B18002AF04104D8A408D00001FA51D8A404D04E
:103B2800010EFA6F000E416E0001FA51D8B406D0AA
:103B38004FA402D08B8201D08B9212008B9212007C
:103B4800010E416E8A8AF151FDC068F0696B6827E1
:103B5800000E6923EC516A6F6B6B68516A5D6B519B
:103B6800800A6C6F6951800A6C59D8B01BD0EC512F
:103B7800686F696BF1516A6F6B6B6A1F6B1F6A4BD9
:103B88006B2BFD516C6F6D6B6A516C276B516D23FC
:103B980068516C5D6D51800A6E6F6951800A6E596B
:103BA800D8A024D0F151D8B421D0010E606F080EEE
:103BB8001DEC2FF0000E0001636F0A0E626F000EFD
:103BC800656F000E646F000E4FB2010E4EEC2AF0C6
:103BD80033503410D8A443D0070E346E080E336E19
:103BE8004FB202D04F823BD04F9239D0000E000125
:103BF800606F080E1DEC2FF00101F451EBC068F066
:103C08000001696B6827000E6923FC516A6F6B6BB2
:103C180068516A5D6B51800A6C6F6951800A6C59F2
:103C2800D8A00DD0F5C062F0636BF4510A0DF3CF44
:103C380064F0F4CF65F0010E4EEC2AF010D00001CC
:103C4800FC51EB5DD8A00BD0000E636FC80E626FFD
:103C5800020E656F580E646F000E4EEC2AF00001DC
:103C6800FD51D8B441D00101F551FDC068F0000103
:103C7800696B6827000E6923EC516A6F6B6B68519A
:103C88006A5D6B51800A6C6F6951800A6C59D8A0C3
:103C980002D08D8008D0EC51FD5DD8A003D08D9066
:103CA8008C8002D08D908C90F905D8A41FD001018A
:103CB800F651FDC068F00001696B6827000E6923A2
:103CC800EC516A6F6B6B68516A5D6B51800A6C6F5F
:103CD8006951800A6C59D8A002D08C8208D0EC5166
:103CE800FD5DD8A004D002D08D908C808C92F9050F
:103CF800D8A407D0F251D8B404D0F2C035F0366A4F
:103D080009D035503610D8A405D0F251D8B402D015
:103D1800010EF96FFA05D8A443D03F50D8A440D07B
:103D2800F051FDC068F0696B6827000E6923EC51FB
:103D38006A6F6B6B68516A5D6B51800A6C6F695171
:103D4800800A6C59D8B01BD0EC51686F696BF05180
:103D58006A6F6B6B6A1F6B1F6A4B6B2BFD516C6F25
:103D68006D6B6A516C276B516D2368516C5D6D5199
:103D7800800A6E6F6951800A6E59D8A010D00A0E59
:103D88003F6E8BA202D0010E01D0000EFF0A686FB1
:103D980068478B506819FD0B68198B6E01D08B92A0
:103DA800FA05D8A407D0FF51D8B404D0FFC037F023
:103DB800386A09D037503810D8A405D0FF51D8B484
:103DC80002D0010EFA6FFA51D8B48B92EC51686F99
:103DD800696BFD516A6F6B6B030E6A27000E6B23CC
:103DE80068516A5D6B51800A6C6F6951800A6C5921
:103DF800D8B00CD0010E606F100E1DEC2FF0000E25
:103E08000001606F200E1DEC2FF031D0FD0E000177
:103E1800686FFF0E696FFD516A6F6B6B68516A2797
:103E280069516B23EC516C6F6D6B6A516C5D6D5110
:103E3800800A6E6F6B51800A6E59D8B00CD0010E93
:103E4800606F200E1DEC2FF0000E0001606F100E49
:103E58001DEC2FF00CD0000E0001606F200E1DEC41
:103E68002FF0000E0001606F100E1DEC2FF0000106
:103E7800EB51686F696BFC516A6F6B6B030E6A27B5
:103E8800000E6B2368516A5D6B51800A6C6F695133
:103E9800800A6C59D8B00CD0000E606F010E1DEC72
:103EA8002FF0010E0001606F020E1DEC2FF01200C2
:103EB800FD0E0001686FFF0E696FFC516A6F6B6B36
:103EC80068516A2769516B23EB516C6F6D6B6A51AE
:103ED8006C5D6D51800A6E6F6B51800A6E59D8B057
:103EE8000CD0010E606F010E1DEC2FF0000E0001CA
:103EF800606F020E1DEC2FF01200000E0001606FC3
:103F0800010E1DEC2FF0000E0001606F020E1DEC7B
:103F18002FF012003A5009E1020E395CD8B005D0F2
:103F2800000E3A6E000E396E07D03906D8A03A0650
:103F380039C039F03AC03AF0020E3F6005D0000EA1
:103F4800196E000E186E04D03F063FC018F0196AAB
:103F580018C03FF0345009E1020E335CD8B005D0E8
:103F6800000E346E000E336E07D03306D8A0340628
:103F780033C033F034C034F0020E3C6005D0000E7C
:103F88001B6E000E1A6E04D03C063CC01AF01B6A69
:103F98001AC03CF0010E3E6402D03E0607D04FB472
:103FA80002D04F8401D04F94050E3E6E4A2A090E66
:103FB8004A641200000E4A6E482A020E01019761F7
:103FC80005D0000E1D6E000E1C6E04D0970797C119
:103FD8001CF01D6A1CC097F13B0E48641200385053
:103FE80009E1020E375CD8B005D0000E386E000E1D
:103FF800376E07D03706D8A0380637C037F038C034
:1040080038F0365009E1020E355CD8B005D0000E04
:10401800366E000E356E07D03506D8A0360635C088
:1040280035F036C036F0640E0001EC19D8B457D01C
:104038006E0EEC19D8B453D0850EEC19D8B44FD005
:10404800FE05D8A44CD0EC51116E126AEF51FDC098
:1040580013F0146A1326000E14221150135C145026
:10406800800A156E1250800A1558D8A038D0EF5122
:10407800116E126A111E121E114A122AFD51136E78
:10408800146A1150132612501422EC51156E166A38
:104098001350155C1650800A176E1450800A175872
:1040A800D8A01DD0960EEC611AD0F351D8B417D011
:1040B800F851D8A414D03D2AF3513D5CD8A00FD0B4
:1040C800EC0E066E000E076E550E086E970E096E02
:1040D800010E0A6E2B0E6FEC29F0000E3D6E000EDD
:1040E800486E472A3B0E47641200000E476E462A68
:1040F8000001F851D8A462D0F351D8B45FD0FE05BE
:10410800D8A45CD0640EEC19D8A419D0EE05D8A4B4
:1041180016D0402A4E50405CD8A050D04E50D8B44B
:104128004DD0EC0E066E000E076E550E086E970EFB
:10413800096E010E0A6E2B0E6FEC29F03DD06E0E43
:104148000001EC19D8A41AD0020EEE19D8A416D082
:10415800402A4D50405CD8A031D04D50D8B42ED014
:10416800EC0E066E000E076E550E086E970E096E61
:10417800010E0A6E2B0E6FEC29F01ED0850E000181
:10418800EC19D8A419D0030EEE19D8A415D0402ADA
:104198004C50405CD8A012D04C50D8B40FD0EC0E84
:1041A800066E000E076E550E086E970E096E010E0C
:1041B8000A6E2B0E6FEC29F0000E406E170E466447
:1041C8001200000E466E12007DC081F00001826B65
:1041D800836B7C35813701E382818151866F80C092
:1041E80081F0826B836B7F35813701E38281815156
:1041F800856F8651D8B40BD08551865DD8B00ED066
:10420800865100088525816F180E816507D07EC00C
:104218007BF07FC07CF080C07DF012008551D8B45F
:104228000BD08651855DD8B00ED085510008862503
:10423800816F180E816507D07BC07BF07CC07CF055
:104248007DC07DF01200060E846F7DBF848F80BF15
:10425800848D7C8FFF0E7B17FF0E7C17000E7D1759
:104268007F8FFF0E7E17FF0E7F17000E8017855178
:10427800865DD8B01BD0D8907E377F3780378507CA
:1042880086518519D8B40DD0840784C081F0070EF3
:104298008117D8B406D0EFD7D8907D337C337B33E1
:1042A800862B85518619D8B41FD0F6D78651855DDF
:1042B800D8B01AD0D8907B377C377D37860786519F
:1042C8008519D8B40DD0840784C081F0070E8117F2
:1042D800D8B406D0EFD7D89080337F337E33852B80
:1042E80085518619D8A4F7D784AF0CD0FF0E7B1B55
:1042F800FF0E7C1BFF0E7D1B010E7B27000E7C230F
:10430800000E7D2384AD0CD0FF0E7E1BFF0E7F1B9D
:10431800FF0E801B010E7E27000E7F23000E8023D8
:10432800000E846F7B517E277C517F237D51802333
:1043380080AF0ED0FF0E7E1BFF0E7F1BFF0E801B73
:10434800010E7E27000E7F23000E8023010E846F4E
:104358007EC060F07FC061F080C062F086C063F00C
:1043680084C064F0D4EC27F060C07BF061C07CF0BE
:1043780062C07DF01200000E00017B6F000E796FA5
:10438800000E7A6F000E7B6F9DD07B51010D73C0BC
:1043980077F074C078F0F3507727F450782377C01B
:1043A800F6FF78C0F7FFF86A070EF76403D0080035
:1043B800F55005D0F6CFE9FFF7CFEAFFEF50220A14
:1043C800D8A407D000017A51D8A403D0010E7A6F7F
:1043D80077D000017B51010D73C077F074C078F07D
:1043E800F3507727F450782377C0F6FF78C0F7FFAB
:1043F800F86A070EF76403D00800F55005D0F6CF29
:10440800E9FFF7CFEAFFEF50220AD8A40FD0000146
:104418007A05D8A40BD07951010DF3507525D96EC2
:10442800F4507621DA6E000EDF6E120000017A5128
:10443800D8B446D07B51010D73C077F074C078F0C2
:10444800F3507727F450782377C0F6FF78C0F7FF4A
:10445800F86A070EF76403D00800F55005D0F6CFC8
:10446800E9FFF7CFEAFFEF503A0AD8B429D00C0E8B
:104478000001796125D07B51010D73C077F074C0BC
:1044880078F0F3507727F450782377C0F6FF78C098
:10449800F7FFF86A7951010DF3507525D96EF4507C
:1044A8007621DA6E070EF76403D00800F55005D0C0
:1044B800F6CFE9FFF7CFEAFFEF50DF6E0001792B67
:1044C80000017B2B73C060F074C061F071EC2CF0BC
:1044D80000017B51776F786B6051775D6151785936
:1044E800D8B0120052D7000E0101956F000E926FDE
:1044F800000E906F000E916F000E0001606F010EAC
:10450800616F95C062F096C063F0000E656F500E43
:10451800646F40EC2CF0000E00016F6F010E706F9D
:1045280091C071F092C072F082EC28F06FC093F1E4
:1045380070C094F193C171F094C172F093C16DF0A1
:1045480094C16EF093C06FF094C070F050EC24F0FA
:104558006DC073F06EC074F00DEC2CF0520E0001BB
:10456800816F010E826F260E836F7F0E846F93C159
:1045780085F094C186F013EC2DF091C060F092C0E4
:1045880061F071EC2CF0000160510101926F520E44
:104598000001606F010E616F71EC2CF00001605139
:1045A8000101906F92C195F12FD001019551010D34
:1045B800520EF324D96E010EF420DA6E2B0EDE189B
:1045C800D8B410D09551010D520EF324D96E010EB6
:1045D800F420DA6EDF500001996F995101018E6F56
:1045E8008F6B04D0000E8F6F200E8E6F9151010DCE
:1045F800F35000019725D96EF4509821DA6E8EC1D8
:10460800DFFF0101912B952B905192C199F0000188
:104618009A6B9927000E9A230101955100019B6F0F
:104628009C6B99519B5D9C51800A9D6F9A51800AA1
:104638009D59D8A0BAD797C081F098C082F0260EAD
:10464800836F7F0E846F97C085F098C086F013EC57
:104658002DF012000001656F60C0D9FF61C0DAFF5C
:10466800DF500001646F62C0D9FF63C0DAFFDF501A
:10467800666F3F0E6519D8B41AD027D0DF0E606F69
:104688007E0E616F1200BD0E606F7E0E616F1200AC
:10469800D40E606F7E0E616F1200150E606F7F0E74
:1046A800616F1200E70E606F7F0E616F1200645138
:1046B800010AD8B4E3D7030AD8B4E5D7010AD8B4B5
:1046C800E7D7070AD8B4E9D7EDD7460E6519D8A4B5
:1046D80031D0650E666107D060C0D9FF61C0DAFFCE
:1046E800010EDF6E1200640E66650AD06F0E6661F9
:1046F80007D060C0D9FF61C0DAFF020EDF6E12007A
:104708006E0E66650AD0860E666107D060C0D9FF56
:1047180061C0DAFF030EDF6E1200850E66651200B7
:10472800A10E6661120060C0D9FF61C0DAFF040EF5
:10473800DF6E1200410E6519D8A41200EE05D8A448
:1047480007D062C0D9FF63C0DAFF550EDF6E1200D2
:10475800020EEE19D8A407D062C0D9FF63C0DAFFF1
:10476800650EDF6E1200030EEE19D8A407D062C0E2
:10477800D9FF63C0DAFF6F0EDF6E1200040EEE1968
:10478800D8A4120062C0D9FF63C0DAFF860EDF6EBC
:10479800120000016E6F68C0D9FF69C0DAFFDF50F0
:1047A8000001796F6AC0D9FF6BC0DAFFDF50776FFD
:1047B8006CC0D9FF6DC0DAFFDF50786F5CD0F705A9
:1047C800D8A40FD0640E796105D0792B79C06FF029
:1047D800706B04D0000E706F0A0E6F6F6FC079F0A7
:1047E8000ED0780E796105D0792B79C071F0726B93
:1047F80004D0000E726F5A0E716F71C079F079C0D3
:1048080063F0020E57EC2DF040D00001F705D8A454
:104818000FD00A0E796505D0790779C073F0746BEB
:1048280004D0000E746F640E736F73C079F00ED0ED
:104838005A0E796505D0790779C075F0766B04D082
:10484800000E766F780E756F75C079F079C063F0D9
:10485800020E57EC2DF019D077C060F00001616BA3
:1048680078C062F0636BF7C064F01EEC0BF00001D7
:104878006051796F0AD06E512B0AD8B4A0D7060AB6
:10488800D8B4C3D76C0AD8B4E7D768C0D9FF69C011
:10489800DAFF79C0DFFF120000016D516E11D8A454
:1048A80004D031C06DF032C06EF06D516E11D8A4D5
:1048B80005D0000E6D6F000E6E6F12006DC066F0B1
:1048C8006EC067F06FC068F070C069F095EC2AF0B0
:1048D800000166516D2767516E236DC0F6FF6EC0EB
:1048E800F7FFF86A070EF76403D00800F55005D003
:1048F800F6CFE9FFF7CFEAFFEF500009D8A409D0B7
:10490800000E316E000E326E31C06DF032C06EF0A6
:1049180012006DC066F06EC067F06FC068F070C0BE
:1049280069F0D7EC2AF0000166516D25316E6751A8
:104938006E21326E31C0F6FF32C0F7FFF86A070EFB
:10494800F76403D00800F55005D0F6CFE9FFF7CF9C
:10495800EAFFEF500009D8B415D031C0F6FF32C0D5
:10496800F7FFF86A070EF76404D0000EF56E0C0026
:1049780006D0F6CFE9FFF7CFEAFF000EEF6E314A17
:10498800322A04D0000E316E000E326E6DC06DF00A
:104998006EC06EF0120098C09AF000019B6B9C6B81
:1049A80097359A3701E39B819A51A46FA451D8A4F3
:1049B80009D0000E966F000E976F000E986F000ECC
:1049C800996F1200170E9A6F96C09BF097C09CF0D3
:1049D80098C09DF09A299E6F04D0D8909D339C333F
:1049E8009B339E2FFAD700019B519F6F978FFF0E25
:1049F8009617FF0E9717000E98179651A06F9751AC
:104A0800A16F9851A26FA36B8E0EA45FA4AF16D0AE
:104A1800A451800A8F0FD8B009D0000E966F000EEF
:104A2800976F000E986F000E996F1200D890A333FD
:104A3800A233A133A033A43FF9D715D0170EA4652C
:104A48000FD0000E966F000E976F000E986F000E35
:104A5800996F1200D890A037A137A237A337A407BF
:104A6800A451D8A4F7D79F51D8B408D0A31FA21F28
:104A7800A11FA06D000EA123A223A323A0C096F01E
:104A8800A1C097F0A2C098F0A3C099F012006EC020
:104A980072F00001736B746B6D35723701E37381CB
:104AA8007251756F7551D8A407D0000E6C6F000E47
:104AB8006D6F000E6E6F120071C072F0736B746BC5
:104AC8007035723701E3738172517A6F7A51D8A4C5
:104AD80007D0000E6C6F000E6D6F000E6E6F120027
:104AE8007A517B0F75276EC07AF071517A1B800E50
:104AF8007A176D8F708FFF0E6F17FF0E7017000EED
:104B08007117000E766F000E776F000E786F070E24
:104B1800796F6CA106D06F51762770517723715148
:104B28007823D8906E336D336C33D8906F377037E5
:104B38007137792FEED7090E796F6CA106D06F51B6
:104B480076277051772371517823D8906E336D335F
:104B58006C33D890783377337633792FEED776C0A5
:104B680060F077C061F078C062F075C063F07AC019
:104B780064F0D4EC27F060C06CF061C06DF062C0E6
:104B88006EF012000600FACF1EF0FBCF1FF0E9CF3F
:104B980020F0EACF21F0E1CF22F0E2CF23F0D9CF05
:104BA80024F0DACF25F0F3CF26F0F4CF27F0F6CFB4
:104BB80028F0F7CF29F0F8CF2AF0F5CF2BF051C025
:104BC8002CF052C02DF053C02EF054C02FF0F2A498
:104BD80007D0F2943C0ED76EB00ED66E8EEC1FF056
:104BE8009EAA1AD0AECF30F00A0E3018D8B40FD023
:104BF8000D0E3018D8B40BD04350010D420EF324DB
:104C0800D96E020EF420DA6E30C0DFFF432A4F0E51
:104C1800436402D0000E436EF0A203D0F092C0ECC1
:104C28002EF02FC054F02EC053F02DC052F02CC0DF
:104C380051F02BC0F5FF2AC0F8FF29C0F7FF28C0A4
:104C4800F6FF27C0F4FF26C0F3FF25C0DAFF24C013
:104C5800D9FF23C0E2FF22C0E1FF21C0EAFF20C044
:104C6800E9FF1FC0FBFF1EC0FAFF5192110089C067
:104C78008DF000018E6B8F6B88358D3701E38E8147
:104C88008D51946F9451D8A407D0000E876F000EF1
:104C9800886F000E896F12008CC08DF08E6B8F6B41
:104CA8008B358D3701E38E818D51956F9551D8A441
:104CB80007D0000E876F000E886F000E896F1200F4
:104CC800000E916F000E926F000E936F9551890F31
:104CD800945F89C095F08C51951B800E9517888F2D
:104CE800FF0E8717FF0E8817000E89178B8FFF0E90
:104CF8008A17FF0E8B17000E8C17180E906FD8901E
:104D08009137923793378A51875D8B5188598C51E7
:104D18008959D8A007D08A51875F8B51885B8C51FD
:104D2800895B9181D890873788378937902FE7D763
:104D380091C060F092C061F093C062F094C063F0DB
:104D480095C064F0D4EC27F060C087F061C088F0AB
:104D580062C089F0120059D066C0F6FF67C0F7FF3D
:104D6800F86A070EF76403D00800F55005D0F6CFAF
:104D7800E9FFF7CFEAFFEF500009D8B41BD068C0AD
:104D8800F6FF69C0F7FF0800F5CF6CF066C0F6FFC4
:104D980067C0F7FFF86A0001070EF76403D0080040
:104DA800F55005D0F6CFE9FFF7CFEAFFEF506C19C1
:104DB800D8B426D068C0F6FF69C0F7FF0800F550E0
:104DC80000016C6F6D6B6C1F6D1F6C4B6D2B66C09B
:104DD800F6FF67C0F7FFF86A070EF76403D008000C
:104DE800F55005D0F6CFE9FFF7CFEAFFEF50000105
:104DF8006E6F6E516C25666F000E6D21676F120025
:104E08000001664B672B684B692B00016A07D8A025
:104E18006B076A29A1E16B29D8A49ED7000E676F9A
:104E2800000E666F1200010E0001636F010E7AEC2E
:104E380027F068C064F069C065F069EC2EF0010ED7
:104E48000001636F020E7AEC27F06AC064F06BC051
:104E580065F069EC2EF0000E0001636F030E7AEC2A
:104E680027F06CC064F06DC065F069EC2EF0000EA0
:104E78000001636F040E7AEC27F06EC064F06FC017
:104E880065F069EC2EF0000E0001706F000E706F77
:104E9800130E706501D012007051010DF350682592
:104EA800D96EF4506921DA6E200EDF6E7051010D53
:104EB800F3506A25D96EF4506B21DA6E200EDF6E3E
:104EC8007051010DF3506C25D96EF4506D21DA6ED6
:104ED800200EDF6E7051010DF3506E25D96EF4501F
:104EE8006F21DA6E200EDF6E702BD2D70001646F4F
:104EF80048D0000163517F0F676F67390F0B656FEB
:104F080067510F0B666F6551E7EC2EF00001665193
:104F1800E7EC2EF0120000016351BF0F676F67398D
:104F28000F0B656F67510F0B666F6551E7EC2EF03D
:104F380000016651E7EC2EF0120000016351940F56
:104F4800676F67390F0B656F67510F0B666F655198
:104F5800E7EC2EF000016651E7EC2EF0120000019C
:104F68006351D40F676F67390F0B656F67510F0B6C
:104F7800666F6551E7EC2EF000016651E7EC2EF004
:104F8800120000016451010AD8B4B3D7030AD8B497
:104F9800C2D7010AD8B4D1D7070AD8A41200DFD7DC
:104FA80000016351D8B405D0605161116211D8A4D1
:104FB8000CD0000E606F000E616F000E626F120061
:104FC800632BD890623361336033000E6015656FD0
:104FD800000E6115666FFE0E6215676F65516611EA
:104FE8006711D8B40CD0ECD7632B010E6027000EE4
:104FF8006123000E6223D890623361336033000E60
:105008006015656F000E6115666FFF0E6215676F9C
:10501800655166116711D8B406D0E6D76307D890F2
:1050280060376137623761BF03D0020E6361F6D71C
:1050380063A1619FD8906333635162136451D8A40C
:10504800628F60C060F061C061F062C062F01200FF
:10505800950EF66E770EF76E20EE67F0370E0900A4
:10506800F5CFDEFFE806FBE2040EE7EC2EF0000EBB
:10507800E7EC2EF0210EE82EFED700F0000E00011E
:10508800A36F000EA26F000EA16F000EA36F040E97
:10509800A36501D01200A105D8A402D0000EA36F09
:1050A800000EA26F070EA26501D025D0A151D8A489
:1050B80005D0000EA06F000E9F6F17D0A351080DEA
:1050C800670E646F000E656FF3506427F450652314
:1050D800A251010DF3506425D96EF4506521DA6EA2
:1050E800DF50666F66519F6FA06B9F5198EC2DF053
:1050F8000001A22BD7D7A12BA32BC9D732D06FC0C1
:1051080066F070C067F071C068F072C069F071C075
:1051180060F072C061F071EC2CF060C06AF061C0A0
:105128006BF0AFEC26F0000166516711D8A405D0EA
:105138006FC06FF070C070F01200010E6F25606FC5
:10514800000E7021616F71C0F6FF72C0F7FF080092
:10515800F550626F636B9DEC2BF060C06FF061C01F
:1051680070F000016F517011D8B413D06FC0F6FF02
:1051780070C0F7FFF86A070EF76403D00800F5500F
:1051880005D0F6CFE9FFF7CFEAFFEF500009D8A422
:10519800B6D7000E00016F6F000E706F120000018D
:1051A8006D6F65C0D9FF66C0DAFFDF5000016A6F16
:1051B8006A516E6F6F6B2CD068516A6F6B6B6A5156
:1051C8006E5D6F51800A6C6F6B51800A6C59D8B054
:1051D80003D06E4B6F2B13D067C06EF017D067519A
:1051E8006A6F6B6B6E516A5D6B51800A6C6F6F51A1
:1051F800800A6C59D8B008D06E07D8A06F076EC067
:105208006EF06FC06FF00BD068C06EF06F6B07D098
:105218006D512B0AD8B4D0D7060AD8B4E0D7695153
:10522800D8B405D06EC063F0695157EC2DF065C055
:10523800D9FF66C0DAFF6EC0DFFF12000001686F99
:10524800000EC46E000EC36E68C062F00001D890F4
:105258006237D89062373C0E6217C250C30B621196
:10526800C26E140EE82EFED7C2A204D00001626BF3
:10527800622B02D00001626B010E636F622B02D0B9
:10528800D8906337622FFCD7C2A004D00001646BAA
:10529800642B02D00001646B010E656F642B02D091
:1052A800D8906537642FFCD7000165516311C2128D
:1052B800C2B2FED7C350C4CF62F00001636B62C0B4
:1052C80063F0626B6211666F6351676F66C060F06E
:1052D80067C061F012000E6E06C0D9FF07C0DAFF82
:1052E800DF500B6E0B500F6E106A2CD009500B6EEE
:1052F8000C6A0B500F5C1050800A0D6E0C50800A1F
:105308000D58D8B003D00F4A102A13D008C00FF098
:1053180017D008500B6E0C6A0F500B5C0C50800AAB
:105328000D6E1050800A0D58D8B008D00F06D8A0BE
:1053380010060FC00FF010C010F00BD009C00FF00E
:10534800106A07D00E502B0AD8B4D0D7060AD8B4A2
:10535800E0D70A50D8B405D00FC004F00A50D3ECF7
:105368002DF006C0D9FF07C0DAFF0FC0DFFF12001B
:10537800900EF66E5E0EF76E000EF86E02EEB0F04E
:1053880010EE18F00900F5CFEEFFE550E150FAE114
:10539800260EF66E5F0EF76E000EF86E00EEFBF04E
:1053A80010EE05F00900F5CFEEFFE550E150FAE107
:1053B8002B0EF66E5F0EF76E000EF86E0900F5CF35
:1053C80050F002EE00F0B00EEE6AE806FDE101EEE4
:1053D80096F0610EEE6AE806FDE100EEEBF0100EC5
:1053E800EE6AE806FDE14F6A00EE31F01E0EEE6A45
:1053F800E806FDE151905192000EF86E000109EFA8
:1054080000F0000162AF16D060C066F061C067F0BE
:1054180062C068F0661F671F681F662B000E67234F
:105428006823000E6625606F000E6721616F800E8D
:105438006821626F65AF16D063C066F064C067F01C
:1054480065C068F0661F671F681F662B000E67231C
:105458006823000E6625636F000E6721646F800E57
:105468006821656F000E601B000E611B800E621BB9
:10547800000E631B000E641B800E651B6351605D8C
:105488006451615965516259D8B002D0D890120060
:10549800D88012000001676F425000016719D8B424
:1054A80007D0000E3A6E000E396E67C042F0120047
:1054B8006751D8B406D0010E606F040E1DEC2FF0B2
:1054C80006D0000E0001606F040E1DEC2FF039505D
:1054D8003A10D8A407D0000164516225396E65518D
:1054E80063213A6E39500001645D3A506559D8B06D
:1054F80015D06751D8A403D0666B662B02D0000183
:10550800666B663B664789506619DF0B6619896EBC
:1055180067B102D08B9401D08B841200899A8B9446
:105528001200000E00016C6F000E6B6F04D0664B0A
:10553800672B6B4B6C2B66C0F6FF67C0F7FFF86AEA
:10554800070EF76403D00800F55005D0F6CFE9FF41
:10555800F7CFEAFFEF500009D8B420D068C060F058
:1055680069C061F066C0F6FF67C0F7FFF86A070E0A
:10557800F76403D00800F55005D0F6CFE9FFF7CF60
:10558800EAFFEF5000016A6F6A51626F636B9DEC2E
:105598002BF0000160516111D8A4C9D76BC066F027
:1055A8006CC067F01200000E00016C6F000E6B6F8C
:1055B80004D0664B672B6B4B6C2B66C0F6FF67C03D
:1055C800F7FFF86A070EF76403D00800F55005D016
:1055D800F6CFE9FFF7CFEAFFEF500009D8B420D0A3
:1055E80068C060F069C061F066C0F6FF67C0F7FF89
:1055F800F86A070EF76403D00800F55005D0F6CF17
:10560800E9FFF7CFEAFFEF5000016A6F6A51626F56
:10561800636B9DEC2BF0000160516111D8B4C9D7C0
:105628006BC066F06CC067F01200959E959C959AC9
:10563800959895969594000E51EC2EF0340E000135
:10564800636FF10EE82EFED7632FFCD700D0030E50
:10565800E7EC2EF00D0E0001636FFB0EE82EFED76F
:10566800632FFCD700D0030EE7EC2EF01D0E0001CF
:10567800636F910EE82EFED7632FFCD7030EE7EC7D
:105688002EF0020EE7EC2EF0020EE7EC2EF0080EDC
:10569800E7EC2EF0000EE7EC2EF00C0EE7EC2EF007
:1056A800000EE7EC2EF0060EE7EC2EF01200000ECE
:1056B8000001686F000E696F000E6A6F000E6B6F55
:1056C8006451651166116711D8B42AD0010E6C6F48
:1056D80006D0D89064376537663767376C2B67AF65
:1056E800F8D7D890683769376A376B376451605D87
:1056F800655161596651625967516359D8A009D0FB
:105708006451605F6551615B6651625B6751635BC1
:105718006881D89067336633653364336C2FE1D77B
:1057280068C060F069C061F06AC062F06BC063F085
:10573800120060C0F6FF61C0F7FFF86A070EF76451
:1057480003D00800F55005D0F6CFE9FFF7CFEAFF00
:10575800EF5000016219D8A405D060C060F061C0A4
:1057680061F012006051646F6151656F604B612B8D
:1057780064C0F6FF65C0F7FFF86A070EF76403D048
:105788000800F55005D0F6CFE9FFF7CFEAFFEF5054
:105798000009D8A4CED7000E0001606F000E616F1B
:1057A800120093809382280EC66E000EC56E000EFE
:1057B8000001606F120E616F7A0E626F000E636FE8
:1057C8006DC071F06EC072F06FC073F070C074F08D
:1057D800020ED8907137723773377437E82EF9D7BD
:1057E80071C064F072C065F073C066F074C067F091
:1057F8005BEC2BF000016005C86E000EC76E820ED0
:105808000001716FDD0EE82EFED7712FFCD700D096
:10581800120071C076F072C077F005D00001764BA7
:10582800772B734B742B73C0F6FF74C0F7FFF86ABD
:10583800070EF76403D00800F55005D0F6CFE9FF4E
:10584800F7CFEAFFEF5076C0F6FF77C0F7FFF86AA8
:105858000001756F070EF76404D075C0F5FF0C00E2
:1058680006D0F6CFE9FFF7CFEAFF75C0EFFF0001DA
:105878007551D8B41200D2D760C066F061C067F025
:1058880015D000016407D8A0650762C0D9FF63C0BE
:10589800DAFF624B632B66C0E1FF67C0E2FF664B2D
:1058A800672BDFCFE7FFE750D8B40ED00001645173
:1058B8006511D8B409D0E5D766C0D9FF67C0DAFF4B
:1058C800000EDF6E664B672B6407D8A06507642956
:1058D800F3E16529D8B41200EFD760C064F061C065
:1058E80065F003D00001644B652B64C0F6FF65C00A
:1058F800F7FFF86A070EF76403D00800F55005D0E3
:10590800F6CFE9FFF7CFEAFFEF500009D8A4EAD7AE
:1059180060C062F061C063F00001621F631F624BE8
:10592800632B64516225606F65516321616F1200BA
:10593800000E0001656F000E646F62516311D8B4E8
:105948001CD0010E666F04D0D89062376337662B7F
:1059580063AFFAD7D890643765376251605D635199
:105968006159D8A005D06251605F6351615B648161
:10597800D89063336233662FEDD764C060F065C09A
:1059880061F012000001656F87EC2FF0000E000136
:10599800626FA00E616F75EC2FF065C061F00001B9
:1059A800626B75EC2FF07FEC2FF0000E0001626F38
:1059B800A10E616F75EC2FF0000E0001626F000EF2
:1059C800616FEFEC2DF000016151666F83EC2FF0F1
:1059D8000001665112000001626F15D0C80E000167
:1059E800606F7F0E616F1200980E606F7F0E616F9F
:1059F8001200E20E606F7F0E616F1200F30E606F8F
:105A08007F0E616F120000016251010AD8B4E6D717
:105A1800030AD8B4E9D7010AD8B4EBD7EFD781C0C5
:105A28008DF082C08EF0000E00018F6F000E906F17
:105A3800850E8B6F000E8C6F8D0E6C6F000E6D6F68
:105A480083C06EF084C06FF08B0E706F000E716FA4
:105A580007EC13F08DC0D9FF8EC0DAFF000EDF6EA1
:105A68001200000169516A11D8B418D0010E6B6F89
:105A780004D0D89069376A376B2B6AAFFAD7695167
:105A8800675D6A516859D8A004D06951675F6A5147
:105A9800685BD8906A3369336B2FF1D767C067F0BA
:105AA80068C068F012000001646F87EC2FF0000EE8
:105AB8000001626FA00E616F75EC2FF064C061F099
:105AC8000001626B75EC2FF063C061F00001626B3E
:105AD80075EC2FF083EC2FF0000E0001616F690E5A
